:020000040801F1
:10200000C00A00201D4C0108E5E00208E5E00208D6
:10201000C7F20208E5E00208E5E00208E5E0020890
:10202000E5E00208E5E00208E5E00208E5E0020874
:10203000E5E00208348403089DDE0208E5E00208BA
:10204000E5E00208E5E00208E5E00208E5E0020854
:10205000E5E00208E5E00208E5E00208E5E0020844
:10206000E5E002086D46010897DF0208E5E0020896
:10207000E5E00208E5E00208E5E00208E5E0020824
:10208000E5E00208E5E00208E5E00208E5E0020814
:10209000E5E00208F1550108E5E00208E5E0020884
:1020A000E5E00208F1570108CD570108E5E0020814
:1020B000E5E002080DB7020899C10208CD5E0308E9
:1020C000C95E030841B90208D95E0308D15E03085E
:1020D00071C10208D55E0308D9C1020845C20208D1
:1020E000E5E00208E5E00208E5E00208E5E00208B4
:1020F000BDEE0208E5E00208E5E00208E5E00208BE
:10210000E5E00208E5E00208E5E00208E5E0020893
:10211000E5E00208E5E00208E5E00208E5E0020883
:10212000E5E00208E5E00208E5E00208E5E0020873
:10213000E5E00208E5E00208E5E00208E5E0020863
:10214000E5E00208E5E00208E5E002085DF40208C7
:10215000A59F0208E5E002085F5B0308655B0308D2
:10216000E5E00208E5E00208E5E00208E5E0020833
:10217000002370B5404C05468AB0E36318B100886F
:1021800023600DF0C7F83D4823F017FA3C4E3D4B55
:10219000304633603C4B736020F066FB00213046D4
:1021A00013F05CFA32A3D3E90023A062C4E906234A
:1021B00020F065FBD4E9062319431043C4E9060166
:1021C000CDE900014FF0FF334FF0FF32A06A23F05A
:1021D00041FA02224FF0FF31A06A23F040FA0120B9
:1021E0000CF01AFE4FF4007300222849A06A23F075
:1021F00087FAB0F5007F38D100239422CDE9073368
:1022000009933C23CDE9033205939623A06A03A9E1
:10221000069313F041FB35B3287C0DF0F9F9054620
:10222000F0B9A06A23F04DFB0DF0A0F90CF0D6FD3B
:1022300020B14FF4807000210AF048FE0CF0DEFD62
:1022400020B14FF4006000210AF040FE20F0DAFBDC
:10225000012013F057FA0E4A0E49A06A20F002FB43
:1022600028460AB070BDFF20D7E70725F8E700BF72
:102270000DD501552000000040E30220690345EC24
:1022800094F602209DEC0108A4F6022094F40220AA
:102290000D2803084D2803080348044B834202D04D
:1022A000034B03B118477047D0E20220D0E202206E
:1022B00000000000064B0749C91A891048BF0131C8
:1022C000491003D0044B0BB101481847704700BFB9
:1022D000D0E20220D0E202200000000010B5064C3F
:1022E000237843B9FFF7D8FF044B13B10448AFF389
:1022F00000800123237010BD4CFE0220000000006E
:10230000F8DA030808B5054B1BB105490548AFF3DA
:102310000080BDE80840FFF7CDBF00BF000000000F
:10232000B0E50220F8DA0308A3F5803A704700BF51
:10233000174B002B08BF134B9D46FFF7F5FF0021FD
:102340008B460F461348144A121A23F0C6FE0E4B52
:10235000002B00D098470D4B002B00D09847002051
:10236000002104000D000D48002802D00C48AFF3F6
:1023700000801AF005FC200029001BF083FD1AF0F4
:102380006FF900BF0000080000000000000000001E
:10239000C00A0020D0E2022060FF022000000000FE
:1023A00000000000022108B5084A012002F5005390
:1023B000C3F8A01002F580521BF056FDBDE808409E
:1023C0000120C2F8A0101BF04FBD00BF00C0035099
:1023D00070B51DF013F81A4B04461B78052B2ED848
:1023E000DFE803F018031D221328164E3368C51AC0
:1023F0004FF4FA7007F00AFE854220D9124A346081
:10240000137883F00103137023B1BDE870400F48C7
:102410001BF0D3BE0D48BDE870401BF0D1BE094E85
:102420003368C51AC820E5E7064E3368C51A4FF46D
:102430009670DFE7034E3368C51A6420DAE770BD93
:102440004FFE0220CCE502204EFE022074830308DA
:1024500010B5032002F03AFA60B1174C1749206812
:102460001CF079FD1BF0E2FD1BF0E1FD1449206832
:102470001CF071FD1BF000FD04223224114BC3F847
:10248000A020FFF78FFF013CFBD104220E4BC3F8C5
:10249000A020FFF787FFFFF785FFFFF783FFFFF718
:1024A00081FFFFF77FFFFFF77DFFFFF77BFFBDE8B1
:1024B0001040FFF777BF00BF8CE60220006F0308D3
:1024C000056F030800D0035000E0035070B50446C8
:1024D00023F01BFE0546032002F0F8F968B11E4EFA
:1024E0001E4930681CF037FD1BF0A0FD1BF09FFD5E
:1024F00022461B4930681CF02EFD224629461D202D
:102500000FF040FB044690B9032002F0DFF910B34E
:10251000114C124920681CF01EFD1BF087FD1BF0BA
:1025200086FD20680F49BDE870401CF014BD0220F4
:1025300002F0CCF978B1084D0B4928681CF00BFD6E
:102540001BF074FD1BF073FD224628680749BDE8A7
:1025500070401CF000BD70BD8CE60220006F0308C7
:10256000206F0308316F03085F6F0308646F03086F
:1025700070B596B06D461E4B1E4E044618700FCEB9
:102580000FC596E8030085E80300032002F09EF9DA
:1025900088B1194D194928681CF0DDFC1BF046FD77
:1025A0001BF045FD16AB03EB840353F8582C14497C
:1025B00028681CF0D0FC013C042C04D8DFE804F0AF
:1025C0000E10121416000F4906A823F0A6FD06A847
:1025D000FFF77CFFFFF7FCFE16B070BD0A49F3E77A
:1025E0000A49F1E70A49EFE70A49EDE70A49EBE74B
:1025F0004FFE0220008003088CE60220006F0308D3
:10260000976F0308B16F0308D16F0308EF6F0308DA
:102610000B700308277003084B700308314B37B564
:1026200018681BF07FFD002835D0012858D18DF89F
:102630000700032002F04AF970B12B4C2B492068A7
:102640001CF089FC1BF0F2FC1BF0F1FC9DF807204C
:10265000274920681CF07FFC012200211D200DF17C
:1026600007030FF061FA044648BB032002F02EF97D
:1026700070B11D4D1D4928681CF06DFC1BF0D6FC87
:102680001BF0D5FC9DF807201A4928681CF063FC54
:10269000204603B030BD8DF80700032002F016F984
:1026A0000028D9D0104C114920681CF054FC1BF0B4
:1026B000BDFC1BF0BCFC9DF807200F49C9E70120B9
:1026C00002F004F90028E3D0074D0C4928681CF0FB
:1026D00042FC1BF0ABFC1BF0AAFC22460849D4E7E5
:1026E0000124D5E7D40A00208CE60220006F0308FD
:1026F00072700308C37003089A700308DD70030842
:10270000E270030830B5474B85B018681BF00AFD2E
:10271000012841D1032002F0D9F870B1424C43495D
:1027200020681CF018FC1BF081FC1BF080FC0E23C1
:102730003F4A404920681CF00EFC0E211D203C4AF7
:102740000FF020FA044698B9032002F0BFF860B1F8
:10275000354D364928681CF0FEFB1BF067FC1BF06A
:1027600066FC354928681CF0F6FB204605B030BDF4
:10277000012002F0ABF80028F7D02B4D2F49286834
:102780001CF0E9FB1BF052FC1BF051FC22462C49CB
:1027900028681CF0E0FBE8E70DF10B0501220021A1
:1027A0001D20009503AB0FF08DF9044680B1012088
:1027B00002F08CF80028D8D01B4D204928681CF066
:1027C000CAFB1BF033FC1BF032FC22461D49DFE73D
:1027D0002A4601211D200FF0D5F9044688B90320AF
:1027E00002F074F80028C0D00F4D104928681CF082
:1027F000B2FB1BF01BFC1BF01AFC9DF80B201249CE
:10280000C6E7012002F062F80028AED0064D0B4961
:1028100028681CF0A0FB1BF009FC1BF008FC2246FA
:102820000A49B5E7D40A00208CE60220006F0308AD
:10283000047103081371030835710308DD70030880
:102840005871030883710308A4710308C571030854
:102850004FF480720B4B10B50320C3F8A02002F098
:1028600035F870B1084C094920681CF074FB1BF066
:10287000DDFB1BF0DCFB20680549BDE810401CF0C7
:102880006ABB10BD00E003508CE60220006F030815
:10289000F07103084FF480720B4B10B50320C3F89E
:1028A000A02002F013F870B1084C094920681CF010
:1028B00052FB1BF0BBFB1BF0BAFB20680549BDE8CF
:1028C00010401CF048BB10BD00D003508CE6022025
:1028D000006F03080B720308F7B50F4B0F4E104F34
:1028E00033604FF40063044603203B6001F0EEFFC9
:1028F00078B10C4D0C4928681CF02DFB1BF096FBA1
:102900001BF095FB00943B683268084928681CF06E
:1029100022FB03B0F0BD00BF00000C40C40A002041
:10292000C00A00208CE60220006F0308267203080C
:10293000022208B511461046012304F007F90221CE
:10294000094A012002F50053C3F8A0101BF08CFACD
:1029500002F58053C3F8A010D2F8A42001201BF088
:1029600083FAC2F3800008BD00C0035010B50446CE
:102970001BF082FA042334B1044AC2F8A030BDE847
:102980001040FFF70FBD024AF7E700BF00D0035029
:1029900000E003502DE9F843054601201646FFF7F5
:1029A000E5FF2846FFF7E2FF0020FFF7DFFF0020EA
:1029B000FFF7DCFF2846FFF7D9FF0020FFF7D6FF1F
:1029C0000120FFF7D3FFFFF7EDFCFFF7B1FF04464F
:1029D000FFF7AEFF0746FFF7ABFF830043EA470070
:1029E0000443E4B2012C29D1002D42D00222234617
:1029F0001146104604F0AAF80022022511462A4F7B
:102A0000DFF8AC800120C8F8A0501BF02DFA274B4E
:102A1000C3F8A050D7F8A430580748BF01234FF09F
:102A2000010048BF8B4001F1010148BF1A431BF070
:102A30001BFA2029E6D13260FFF77AFFFFF7B2FCDC
:102A40001BF01AFA04221A4BC3F8A020FFF7AAFCC5
:102A5000FFF7A8FCFFF7A6FCFFF7A4FCFFF7A2FC1A
:102A6000FFF7A0FCFFF79EFCFFF79CFC2046BDE8AB
:102A7000F883FFF797FC2025366804271BF0FCF944
:102A8000DFF82C80DFF82490F3074CBFC9F8A07062
:102A9000C8F8A070FFF786FC013D4FEA5606F3D157
:102AA0002846FFF763FFC9E700C0035000D003507A
:102AB00000E0035013B5CDE9001001AA0421002065
:102AC000FFF768FF0128044613D0012001F0FEFE45
:102AD00060B1134C134920681CF03DFA1BF0A6FAB4
:102AE0001BF0A5FA104920681CF035FA002002B04E
:102AF00010BD6A460C210020FFF74CFF0128F6D0DC
:102B0000204601F0E3FE0028F0D0054C054920687E
:102B10001CF021FA1BF08AFA1BF089FA0349E2E75C
:102B20008CE60220DD7003086672030887720308D2
:102B3000014B18681BF0FFBAD40A00202DE9F04FB2
:102B400097B0FFF745FCAB4B1A78002A00F01E86C1
:102B500000221A70A84B1B78002B00F0BF870320BF
:102B600001F0B4FE60B1A54CA54920681CF0F3F952
:102B70001BF05CFA1BF05BFAA24920681CF0EBF931
:102B8000A148FFF7A3FC032001F0A0FE60B19B4C1D
:102B90009B4920681CF0DFF91BF048FA1BF047FA4C
:102BA0009A4920681CF0D7F99948FFF78FFC96489E
:102BB000FFF78CFC032001F089FE60B18F4C904937
:102BC00020681CF0C8F91BF031FA1BF030FA91496B
:102BD00020681CF0C0F90120FFF7CAFC032001F0B7
:102BE00075FE60B1854C864920681CF0B4F91BF075
:102BF0001DFA1BF01CFA884920681CF0ACF9FFF79D
:102C000027FE4FF47A701BF02FF9FFF743FE642084
:102C10001BF02AF9FFF71CFC032001F057FE70B1EE
:102C2000764C774920681CF096F91BF0FFF91BF0F1
:102C3000FEF94EF29E72794920681CF08CF91BF067
:102C40001BF94FF0100B4EF29E740425744E754F15
:102C5000E3074CBFC7F8A050C6F8A050FFF7A2FB8F
:102C6000BBF1010B4FEA5404F2D1FFF7F1FB032053
:102C700001F02CFE60B1614C614920681CF06BF9D9
:102C80001BF0D4F91BF0D3F9674920681CF063F9F5
:102C90006648FFF71BFC0021012006AAFFF77AFE19
:102CA0000128044640F0E480032001F00FFE069C5A
:102CB00068B1524D524928681CF04DF91BF0B6F925
:102CC0001BF0B5F922465A4928681CF044F9594BC3
:102CD0009C4265D1032001F0F9FD60B1474C4849A1
:102CE00020681CF038F91BF0A1F91BF0A0F952493B
:102CF00020681CF030F95148FFF7E8FB032001F091
:102D0000E5FD60B13D4C3E4920681CF024F91BF004
:102D10008DF91BF08CF94A4920681CF01CF94948D0
:102D2000FFF7D4FB032001F0D1FD60B1334C3449EF
:102D300020681CF010F91BF079F91BF078F9424972
:102D400020681CF008F94FF0A0430421002006AAD7
:102D50000693FFF71FFE012800F0D580012001F047
:102D6000B5FD60B1254C394920681CF0F4F81BF022
:102D70005DF91BF05CF9364920681CF0ECF8012085
:102D800001F0A4FD002800F0A7801C4C2F4920680A
:102D90001CF0E1F81BF04AF91BF049F92D4998E0C5
:102DA0002D4B9C4212D1032001F090FD60B1134CD9
:102DB000134920681CF0CFF81BF038F91BF037F9E5
:102DC000264920681CF0C7F8254895E7022001F045
:102DD0007DFD68B1094D234928681CF0BCF81BF043
:102DE00025F91BF024F922461F4928681CF0B3F886
:102DF0001E4881E751FE02204DFE02208CE6022093
:102E0000006F0308A0720308D16F0308C3720308A0
:102E1000ED7203080C730308327303085873030838
:102E200000E0035000D0035083730308A07303082D
:102E3000B97303087714A02BCF730308F173030849
:102E4000C87403081775030836750308DD70030896
:102E500057750308DB7503087714C10B0774030863
:102E6000277403085F6F03083B7403086A74030840
:102E7000012001F02BFD68B1AB4DAC4928681CF076
:102E80006AF81BF0D3F81BF0D2F82246A84928684C
:102E90001CF061F8012001F019FD60B1A24CA349BA
:102EA00020681CF058F81BF0C1F81BF0C0F8A149CD
:102EB00020681CF050F8012001F008FD60B19A4C28
:102EC0009A4920681CF047F81BF0B0F81BF0AFF8E7
:102ED000994920681CF03FF80520FFF749FB0120C5
:102EE00001F0F4FC60B1904C904920681CF033F87C
:102EF0001BF09CF81BF09BF8904920681CF02BF805
:102F00008F4800F03EBC64240421012006AAFFF78C
:102F100041FD012855D1069B03F02043B3F1204F1A
:102F20004FD1032001F0D2FC60B17F4C854920686D
:102F30001CF011F81BF07AF81BF079F88249206830
:102F40001CF009F88148FFF7C1FA032001F0BEFC2C
:102F500060B1754C7B4920681BF0FDFF1BF066F8E3
:102F60001BF065F87A4920681BF0F5FFF023082173
:102F7000002004AA0493FFF70DFD012804463BD06E
:102F8000012001F0A3FC60B1674C684920681BF088
:102F9000E2FF1BF04BF81BF04AF86E4920681BF06B
:102FA000DAFF012001F092FC002895D05E4C5F49C9
:102FB00020681BF0D0FF1BF039F81BF038F8664989
:102FC00087E74FF47A701AF04FFF013C9CD1012043
:102FD00001F07CFC00283FF4D2AE534C53492068EA
:102FE0001BF0B9FF1BF022F81BF021F8069A5B4991
:102FF00020681BF0B0FFC2E6FC2105AAFFF7CAFC5F
:1030000001280FD0204601F061FC0028C9D0464CB1
:10301000464920681BF09FFF1BF008F81BF007F8DB
:103020004F49BBE7032001F051FC059C68B13E4DC0
:10303000444928681BF08FFF1AF0F8FF1AF0F7FFD9
:103040002246484928681BF086FF474B9C420FD117
:10305000012001F03BFC0028A3D0334C3349206809
:103060001BF079FF1AF0E2FF1AF0E1FF3F4995E704
:103070003F4B9C422ED1032001F028FC60B12A4C2A
:10308000304920681BF067FF1AF0D0FF1AF0CFFF1D
:10309000384920681BF05FFF3548FFF71DFC00250D
:1030A0000821284604AA0495FFF774FC0128044669
:1030B0006CD0012001F00AFC00283FF472AF1A4CDA
:1030C0001A4920681BF047FF1AF0B0FF1AF0AFFF53
:1030D000294963E7294B9C4212D1032001F0F6FBFA
:1030E00060B1114C174920681BF035FF1AF09EFFA4
:1030F0001AF09DFF224920681BF02DFF1F48CCE7E6
:10310000022001F0E3FB0028C9D0074D1D492868C3
:103110001BF021FF1AF08AFF1AF089FF22461A4994
:1031200028681BF018FFBAE78CE60220DD70030860
:1031300082740308AD740308FC7403084D7D030812
:10314000657D0308006F03087F750308F6750308A3
:103150000C7603082476030875770308AC7503081A
:1031600048760308677603080100E61681760308AF
:10317000110077249E760308107703083100770446
:10318000C07603085F6F0308E0760308914B294679
:10319000284606AA0693FFF7FDFB012810D020461B
:1031A00001F094FB00283FF4FCAE8B4C8B49206867
:1031B0001BF0D1FE1AF03AFF1AF039FF8849EDE60C
:1031C000032001F083FB60B1834C864920681BF02B
:1031D000C2FE1AF02BFF1AF02AFF834920681BF069
:1031E000BAFE8248FFF772F9032001F06FFB60B16D
:1031F000794C7C4920681BF0AEFE1AF017FF1AF0DC
:1032000016FF7B4920681BF0A6FE7A497A48FFF733
:1032100051FC08BB012001F059FB60B16E4C6F49B5
:1032200020681BF098FE1AF001FF1AF000FF7349A6
:1032300020681BF090FE012001F048FB00283FF4BD
:103240004BAE654C654920681BF085FE1AF0EEFE1A
:103250001AF0EDFE6A493CE601216A48FFF72AFCB4
:1032600078B9012001F032FB0028E4D05A4C5B49C8
:1032700020681BF070FE1AF0D9FE1AF0D8FE6249E1
:10328000D6E762496248FFF715FC78B9012001F0E2
:103290001DFB0028CFD0504C504920681BF05BFE2E
:1032A0001AF0C4FE1AF0C3FE5A49C1E7032001F028
:1032B0000DFB60B1484C4B4920681BF04CFE1AF0E6
:1032C000B5FE1AF0B4FE544920681BF044FE0320FA
:1032D00001F0FCFADFF864A170B13F4C414920686D
:1032E0001BF039FE1AF0A2FE1AF0A1FEDAF8002057
:1032F0004A4920681BF02FFE4948FFF7E7F80320F2
:10330000DAF8004001F0E2FA70B1334D354928682F
:103310001BF021FE1AF08AFE1AF089FE23460022D5
:10332000404928681BF017FEB4F5803F3E4D40F23F
:10333000EE80032001F0CAFA60B1274C29492068C9
:103340001BF009FE1AF072FE1AF071FE3749206870
:103350001BF001FE286801210830FFF7ABFB08BB1A
:10336000012001F0B3FA60B11B4C1C4920681BF02E
:10337000F2FD1AF05BFE1AF05AFE2D4920681BF090
:10338000EAFD012001F0A2FA00283FF4A5AD124C9D
:10339000124920681BF0DFFD1AF048FE1AF047FEC4
:1033A000244996E528684FF480710C30FFF782FBC2
:1033B000002845D1012001F089FA0028E1D0064C0F
:1033C000064920681BF0C7FD1AF030FE1AF02FFEE8
:1033D0001949D3E7020000238CE60220DD700308C0
:1033E00034770308006F03085177030896770308C2
:1033F000AC77030803005FA0F0ED00E0C47703089A
:103400003D780308FCED00E0DC770308040005FAD2
:103410000CED00E0FD7703081678030852780308E6
:10342000777803088F780308C40A0020BF78030860
:10343000DA780308117A0308FE780308C8E5022049
:10344000032001F043FA60B1744C754920681BF009
:1034500082FD1AF0EBFD1AF0EAFD724920681BF0BC
:103460007AFD192006F0E4FD032001F02FFA60B187
:103470006A4C6B4920681BF06EFD1AF0D7FD1AF0FC
:10348000D6FD694920681BF066FD0220FFF770F841
:103490000320DAF8008001F019FA70B15F4C60493E
:1034A00020681BF058FD1AF0C1FD1AF0C0FD002382
:1034B00042465E4920681BF04EFD28680121083015
:1034C000FFF7F8FA002840F0C580012001F0FEF96E
:1034D00060B1524C564920681BF03DFD1AF0A6FD24
:1034E0001AF0A5FD534920681BF035FD012001F0BD
:1034F000EDF900283FF4F0AC484C4D4920681BF032
:103500002AFD1AF093FD1AF092FD4B49E1E4DFF831
:1035100040810320D8F800301C44013CB4FBF3F494
:1035200001F0D4F978B13D4E3D4930681BF013FDF0
:103530001AF07CFD1AF07BFD2246D8F800303F4996
:1035400030681BF008FD0026DFF8D090B4420FD1A0
:10355000032001F0BBF9002897D0304C3049206897
:103560001BF0F9FC1AF062FD1AF061FD344989E79D
:10357000D8F800700320774301F0A8F980B12849FA
:10358000D9F800001BF0E7FC1AF050FD1AF04FFDCF
:10359000009723462B49D9F80000721C1BF0DBFC76
:1035A000286801210830FFF785FA10B328683946EA
:1035B0001030FFF77FFAE0B12B6801210C33184679
:1035C0000293FFF777FAA0B1029B02211846FFF79A
:1035D00071FA70B11920013606F02AFD33464021F8
:1035E000194A009406A819F0ABF906A8FEF76EFF79
:1035F000ACE7012001F06AF900283FF4C2AE074CA5
:103600000B4920681BF0A7FC1AF010FD1AF00FFD03
:103610003A460E4920681BF09EFCB2E68CE602207A
:10362000006F03081E79030848790308297A030804
:10363000DD700308DA7803085A7B0308627903080F
:10364000E97903088B790308B0790308C479030882
:10365000C00A00202B6808F1030703F11002029250
:10366000032003F11802BF08039203F10C0901F0D3
:103670002DF968B1994C9A4920681BF06CFC1AF03E
:10368000D5FC1AF0D4FC3A46964920681BF063FC3E
:1036900000263446A7427CD1032001F017F960B11F
:1036A0008E4C8F4920681BF056FC1AF0BFFC1AF0B4
:1036B000BEFC8D4920681BF04EFC0320FEF758FF2E
:1036C0000320DAF8006001F001F970B1834C8449FD
:1036D00020681BF040FC1AF0A9FC1AF0A8FC00239B
:1036E0003246824920681BF036FC002706F10309A8
:1036F000DFF8E8814FEA9909B94540F01981BBF13B
:10370000000F40F0D781032001F0E0F860B1734C66
:10371000734920681BF01FFC1AF088FC1AF087FC24
:10372000734920681BF017FC7248FEF7CFFE724900
:103730007248FFF7BFF9032001F0C8F860B1674C89
:10374000674920681BF007FC1AF070FC1AF06FFC48
:103750006B4920681BF0FFFB0420FEF709FF0320E4
:1037600001F0B4F860B15D4C5D4920681BF0F3FBDB
:103770001AF05CFC1AF05BFC624920681BF0EBFB62
:103780006148FEF7A3FE0023604A137017B0BDE83E
:10379000F08FB04531D95E4B4FF0FF35F1184FF047
:1037A000FF0E0023A8EB060CD8000EFA00F225EA63
:1037B000020211F8015B01338540042B45EA020542
:1037C00001D06345F0D131460298FFF773F9B8B9DB
:1037D000012001F07BF800283FF488AE3F4D4D49B1
:1037E00028681BF0B8FB1AF021FC1AF020FC2246D6
:1037F000494928681BF0AFFB78E64FF0FF35E2E758
:1038000001214846FFF756F988B9012001F05EF81A
:1038100000283FF46BAE314D3E4928681BF09BFBFE
:103820001AF004FC1AF003FC22463C49E1E7294661
:103830000398FFF73FF988B9012001F047F8002805
:103840003FF454AE254D334928681BF084FB1AF031
:10385000EDFB1AF0ECFB22463149CAE7102148463D
:10386000FFF728F988B9012001F030F800283FF46B
:103870003DAE1A4D274928681BF06DFB1AF0D6FBA8
:103880001AF0D5FB22462749B3E74FF47A72142089
:103890001AF0EAFAB4FBF2F302FB1343DBB9234656
:1038A0004021214A009706A819F04AF806A8FEF719
:1038B0000DFE032001F00AF868B1084D0849286898
:1038C0001BF049FB1AF0B2FB1AF0B1FB174928684C
:1038D00006AA1BF040FB01340436DBE68CE602202E
:1038E000006F0308547A0308327B0308787B0308CF
:1038F000537C0308D07C0308040005FA0CED00E0BB
:10390000EB7C0308257D0308277003084DFE022089
:10391000070D0020DD700308747A03089C7A030801
:10392000C57A0308EC7A0308167B03082A7B030890
:1039300004210020BC0005AA0594FFF72BF80128FC
:10394000054671D0012000F0C1FF00285DD1A642DC
:1039500040F289804FF0FF3A4FF0FF3500234FF0DF
:10396000FF0E734921444FEAC30C0EFA0CF025EA0E
:10397000000011F8015B013305FA0CF5042B45EA50
:10398000000502D018198642EDD8AA456BD0012057
:1039900000F09CFF88B16749D8F800001BF0DBFA03
:1039A0001AF044FB1AF043FBCDF800A02B46224648
:1039B0006149D8F800001BF0CEFA0BF1010BBBF106
:1039C0000A0F50D9012000F081FF60B15B4C5949CA
:1039D00020681BF0C0FA1AF029FB1AF028FB58499E
:1039E00020681BF0B8FA012000F070FF00283FF4B7
:1039F00073AA524C4F4920681BF0ADFA1AF016FB1F
:103A00001AF015FB4F49FFF764BA4A49D8F800008D
:103A10001BF0A1FA1AF00AFB1AF009FB4A49D8F880
:103A200000001BF098FA92E70C2106AAFEF7B2FFFD
:103A3000012810D0284600F049FF002887D03F4DCC
:103A40003C4928681BF087FA1AF0F0FA1AF0EFFAEE
:103A50003E492868E5E7A642DDF818A03FF67CAFAE
:103A60004FF0FF3591E74FF47A72B7FBF2F302FBA8
:103A70001373EBB93B464021354ACDF8009006A8B8
:103A800018F05EFF06A8FEF721FD032000F01EFFE0
:103A900070B13049D8F800001BF05DFA1AF0C6FA90
:103AA0001AF0C5FA2C49D8F8000006AA1BF053FA00
:103AB000013721E6012000F009FF002893D01F4CB8
:103AC0001C4920681BF047FA1AF0B0FA1AF0AFFA56
:103AD0005A46224920681BF03EFA84E7FEF79EFD15
:103AE000044628B9FEF70EFE044600283FF44EAE09
:103AF000012000F0EBFE00283FF448AE0F4D0D49C9
:103B000028681BF028FA1AF091FA1AF090FA234666
:103B1000134A144928681BF01EFA204600F01CFFC7
:103B20001149286817B0BDE8F04F1BF014BA00BF68
:103B3000070D0020DD700308D47B03088CE602200B
:103B4000107C0308B17C03089C7B0308BC7B030842
:103B50003C7C0308006F03082A7B0308827C03086F
:103B6000797D03087C7D0308927E03087FB5036896
:103B7000B14A23F47F4323F00703934200F002820B
:103B80000AD8A2F5102293422AD002F5A02293422D
:103B900000F07E8104B070BDA84A934200F08A8193
:103BA00002F101729342F5D1B0F805301D2BF1D12D
:103BB00003890320DB0740F1588200F087FE0028CC
:103BC00000F015819E4C9F4920681BF0C4F91AF043
:103BD0002DFA1AF02CFA9C4920681BF0BCF906E17A
:103BE0009A4E30460DF0FAFE054618B3944C9849AB
:103BF00020681BF0B0F9974920681BF0ACF91AF067
:103C000015FA1AF014FA944B944A0093944940F22E
:103C10000F1320681BF09FF992492B46924A2068A7
:103C20001BF099F9284600F097FE904920681BF098
:103C300092F9FEE7022130780DF00AFF044618B32E
:103C40007F4D834928681BF086F9824928681BF05C
:103C500082F91AF0EBF91AF0EAF97F4B7F4A0093E8
:103C60007F494FF48A7328681BF075F97D49234614
:103C70007D4A28681BF06FF9204600F06DFE7B49F5
:103C800028681BF068F9FEE7A02200900346114661
:103C900030780DF0BBFE054618B3694C6C492068BE
:103CA0001BF059F96B4920681BF055F91AF0BEF961
:103CB0001AF0BDF9684B694A0093694940F21D1337
:103CC00020681BF048F967492B46674A20681BF0BB
:103CD00042F9284600F040FE644920681BF03BF999
:103CE000FEE7022130780DF0C7FE044618B3544DAC
:103CF000574928681BF02FF9564928681BF02BF903
:103D00001AF094F91AF093F9534B544A009354491A
:103D10004FF4917328681BF01EF952492346524A0A
:103D200028681BF018F9204600F016FE4F49286855
:103D30001BF011F9FEE74E4B18681AF0F8F9012153
:103D40003A2002F02DF8234604220121022002F03D
:103D5000FDFE022101230846042202F0F7FE0220A4
:103D600001230422082102F0F1FE032000F0AEFD41
:103D700080B1334C334920681BF0EDF81AF056F946
:103D80001AF055F9082300930122022339492068CB
:103D90001BF0E1F80020FEF7EBFB032000F096FD9E
:103DA00060B1274C274920681BF0D5F81AF03EF97E
:103DB0001AF03DF9304920681BF0CDF82F4D304BFB
:103DC00003202B6000F082FD68B11D4C1D49206866
:103DD0001BF0C1F81AF02AF91AF029F92A682949C2
:103DE00020681BF0B8F8FEF719FC044628B9FEF766
:103DF00089FC044600283FF4CDAE012000F066FDAA
:103E000000283FF4C7AE0E4D1F4928681BF0A3F8E9
:103E10001AF00CF91AF00BF912492346124A2868D5
:103E20001BF099F8204600F097FD1849286804B067
:103E3000BDE870401BF08FB8A0000A00A00006018A
:103E40008CE60220006F0308657E0308060D002043
:103E5000917E0308917D0308B87F0308967D0308CF
:103E60009F7D03087C7D0308797D0308AB7D0308F3
:103E7000D40A0020BC7D0308F47D0308C8E50220B5
:103E8000F0D3020057780308DD700308927E030820
:103E9000032000F01BFD00283FF47CAE7B4C7C49E6
:103EA00020681BF058F81AF0C1F81AF0C0F87949E8
:103EB0002068BCE7032000F009FD60B1734C744931
:103EC00020681BF048F81AF0B1F81AF0B0F87249FF
:103ED00020681BF040F8714C022120780DF0B8FDED
:103EE000054618B3694C6E4920681BF034F86D49DB
:103EF00020681BF030F81AF099F81AF098F86A4B1D
:103F00006A4A00936A4940F2491320681BF023F87B
:103F100068492B46684A20681BF01DF8284600F0C7
:103F20001BFD664920681BF016F8FEE70221207889
:103F30000DF0A2FD054600283FF42CAE534C584925
:103F400020681BF008F8574920681BF004F81AF0A5
:103F50006DF81AF06CF8544B544A009354494FF4DE
:103F6000A77320681AF0F7FF52492B46524A20687F
:103F70001AF0F1FF284600F0EFFC504920681AF0D3
:103F8000EAFFFEE7B0F805001B287FF403AE0DF151
:103F90000B0300930122002103AB0DF093FD0446B7
:103FA000C8B99DF80B30002B32D1454B18681AF078
:103FB00007F9032000F08AFC00283FF4EBAD334CF6
:103FC000334920681AF0C7FF1AF030F81AF02FF8BA
:103FD0003C49206819E0012000F078FC00283FF4FB
:103FE000D9AD2A4D384928681AF0B5FF1AF01EF8E5
:103FF0001AF01DF82F4923462F4A28681AF0ABFF04
:10400000204600F0A9FC314928681AF0A4FFC1E558
:10401000012B14D12A4B18681AF0CFF8032000F0B6
:1040200055FC00283FF4B6AD184C194920681AF029
:1040300092FF19F0FBFF19F0FAFF2549C9E70120AB
:1040400000F044FC00283FF4A5AD104C1E49206848
:104050001AF081FF19F0EAFF19F0E9FF9DF80B2033
:104060001C4920681AF077FF94E500F02FFC002827
:104070003FF490AD054C064920681AF06CFF19F02A
:10408000D5FF19F0D4FF144912E700BF8CE60220D7
:10409000006F0308097E03081D7E0308060D00203B
:1040A000917E0308917D0308B87F0308967D03087D
:1040B0009F7D03087C7D0308797D0308AB7D0308A1
:1040C000D80A0020317E0308DD700308927E0308C1
:1040D0003B7E0308447E03087B7E0308F8B5564BFD
:1040E0001B6883422BD11AF01DF80128054626D102
:1040F0001BF084F9514E04463368C71A4FF4FA7026
:1041000005F084FF87424E4A1AD3157034604D4B38
:1041100003201B78002B7BD100F0D8FB60B14A4C08
:104120004A4920681AF017FF19F080FF19F07FFF45
:10413000474920681AF00FFF0122464B1A70F8BD5C
:10414000137834600133DBB2012B1370DFD9002305
:104150000320137000F0BAFB60B13B4C3B49206870
:104160001AF0F9FE19F062FF19F061FF3A49206870
:104170001AF0F1FE032000F0A9FB60B1324C334984
:1041800020681AF0E8FE19F051FF19F050FF33498A
:1041900020681AF0E0FE3248FEF798F900242A4D14
:1041A0002A4E304F032000F091FB013460B13146BC
:1041B00028681AF0D0FE19F039FF19F038FF2246AE
:1041C000394628681AF0C7FEFEF742FB42F210702B
:1041D00019F04AFEFEF75EFB42F2107019F044FE41
:1041E000052CDFD1032000F071FB60B1164C17499C
:1041F00020681AF0B0FE19F019FF19F018FF1A49DB
:1042000020681AF0A8FEBDE8F8401848FEF75EB92D
:1042100000F05CFB002892D00B4C0C4920681AF08F
:104220009AFE19F003FF19F002FF20681049BDE85B
:10423000F8401AF090BE00BFD40A0020D0E502205A
:1042400050FE02204DFE02208CE60220006F030883
:104250004C7F030851FE0220937E0308BD7E0308B5
:10426000ED7E0308027F0308187F0308367F0308EA
:10427000877F030830B503687C4A23F47F4323F02B
:104280000703934289B040F0EE80082200211220FB
:10429000774B0DF049FC044610B3764D76492868FB
:1042A0001AF059FE754928681AF055FE19F0BEFE3D
:1042B00019F0BDFE724B734A009373493D23286881
:1042C0001AF049FE71492346714A28681AF043FEE4
:1042D000204600F041FB6F4928681AF03CFEFEE7DB
:1042E0000146032214206C4B0DF01EFC044610B353
:1042F000604D614928681AF02EFE604928681AF05E
:104300002AFE19F093FE19F092FE5D4B5D4A009370
:104310005D494B2328681AF01EFE5C4923465C4A1F
:1043200028681AF018FE204600F016FB5949286844
:104330001AF011FEFEE7014605221620574B0DF03C
:10434000F3FB054610B34B4C4B4920681AF003FEB3
:104350004A4920681AF0FFFD19F068FE19F067FE5F
:10436000474B484A00934849592320681AF0F3FD07
:1043700046492B46464A20681AF0EDFD284600F0D3
:10438000EBFA444920681AF0E6FDFEE70DF10F0153
:1043900004A80DF00DFC044610B3364D36492868CC
:1043A0001AF0D9FD354928681AF0D5FD19F03EFEFE
:1043B00019F03DFE324B334A009333496423286899
:1043C0001AF0C9FD31492346314A28681AF0C3FD65
:1043D000204600F0C1FA2F4928681AF0BCFDFEE71C
:1043E000BDF8143001465BBAADF818309DF81330B3
:1043F00008228DF81A30FF238DF81B30FE238DF82C
:104400001C309DF8123018208DF81D30BDF810308A
:104410005BBAADF81E3006AB0DF086FB054610B357
:10442000144C154920681AF096FD144920681AF0BA
:1044300092FD19F0FBFD19F0FAFD114B114A0093A2
:104440001149742320681AF086FD10492B46104A42
:1044500020681AF080FD284600F07EFA0D49206899
:104460001AF079FDFEE709B030BD00BFA0000100E1
:10447000188003088CE60220917E0308917D0308D2
:1044800053800308218003089F7D03087C7D030877
:10449000797D0308AB7D0308498003084D8003083C
:1044A00010B5274C01F0BEFE02F016F9236F23F081
:1044B000070343F00303236719F007FF214B002094
:1044C0009B6ADB015EBF4FF480321F4B9A62D4F8C7
:1044D000203123F0070343F00203C4F82031D4F85D
:1044E000283123F0070343F00203C4F82831D4F83D
:1044F000403123F0030343F00203C4F84031D4F801
:10450000603123F0030343F00203C4F86031D4F8B0
:10451000403223F0030343F00203C4F84032D4F8DE
:10452000003223F0070343F00203C4F80032D4F84A
:10453000083223F0070343F00203C4F8083210BD29
:10454000008000500040005A0060005A30B5214DF4
:1045500095B00DAC0FCD0FC495E80700032384E898
:1045600007008DF84D3029231B4A1C49CDE9022351
:104570001B4B0E22CDE9041300210DF126000691FC
:1045800021F0ABFD4FF48020164B07A9CDE90703BE
:1045900009238DF824300A238DF82530124B0DAAFB
:1045A0000A9320230B9301238DF831300F4B1048D1
:1045B000009302AB04F00CFD04469DF832304FF43A
:1045C000E130002B0CBF0321002119F07CFD2046B7
:1045D00015B030BD4083030800C00550000500063B
:1045E0000009000824C0055052FE0220D4E5022034
:1045F00028E60220831E012B10B512D8012922D8EB
:10460000114B04221B6C05210020C3F3401302F060
:104610009DFA0E4B1B681868A8B1BDE81040436AAC
:1046200018478B1E012B0CD801280CD8BDE8104070
:104630000022054B05211B6C1046C3F3401302F00A
:1046400085BA0129E5D910BD00C00350C80A002071
:1046500008B50449044804F0C5FFBDE80840FFF769
:1046600075BF00BFCC0A00204CE6022001481AF0BA
:10467000E0BD00BF28E60220014B1A6A1868104707
:1046800028E60220014819F048BD00BF5C830308FA
:10469000014819F08FBD00BF74830308184B37B56C
:1046A00083422AD1174B1B783BB3C8B20DF0F8F9FF
:1046B000054610B3144C154920681AF04CFC1449F7
:1046C00020681AF048FC19F0B1FC19F0B0FC114B4D
:1046D000114A00931149852320681AF03CFC1049C7
:1046E0002B46104A20681AF036FC284600F034F9B0
:1046F0000D4920681AF02FFCFEE703B030BD00BF63
:1047000054E6022072FE02208CE60220917E03080D
:10471000917D0308FE8303088C8303089F7D0308B3
:104720007C7D0308797D0308AB7D030830B5002547
:104730000368584A23F47F4323F0070385B093426C
:1047400004460295ADF80C507ED002F580229342CB
:104750000ED0A2F18272934240F09A804E4B1B78A9
:10476000002B00F0958005B0BDE830401AF0C3BEC4
:10477000B0F80530212B40F08B80FF2304A91A46A6
:1047800011E9030019F04BFC012814BF41F2FC159C
:10479000414B05F0FC0208BF1870212120790DF073
:1047A000D9F9054610B33D4C3D4920681AF0D3FBBA
:1047B0003C4920681AF0CFFB19F038FC19F037FC9F
:1047C000394B3A4A00933A49592320681AF0C3FBFF
:1047D00038492B46384A20681AF0BDFB284600F0BD
:1047E000BBF8364920681AF0B6FBFEE73449009062
:1047F0002379344A0968344800F008F9054600284E
:1048000046D0264C264920681AF0A5FB2549206889
:104810001AF0A1FB19F00AFC19F009FC224B234AFB
:1048200000932349622320681AF095FB21492B4607
:10483000214A20681AF08FFB284600F08DF81F49A6
:1048400020681AF088FBFEE7B0F80530B7EE047A6E
:1048500007EE903AF8EE677AB0F8073067EE877A9D
:10486000013307EE103AB8EEC77A67EE877AB1EEF9
:10487000047A67EE877AFAFE677AFCEEE77A17EE3B
:10488000903AB3F57A7F38BF4FF47A730C4A1360CD
:1048900005B030BDA000060272FE02208CE60220A8
:1048A000917E0308917D03080D8403088C8303081F
:1048B0009F7D03087C7D0308797D0308AB7D030899
:1048C000DC0A00209D46010854E602200B4B0246FC
:1048D0001B7883B10A4B1B78834234BF0020012030
:1048E000084B1B7833B1084B1B78134113F0010FB1
:1048F00008BF002070470120F2E700BFFCE0022063
:10490000FBE0022073FE0220FAE00220012208B53B
:10491000074B1A700022074B1A700422064B1A70BC
:104920001F22064B1A7004F04FF9054B186008BDA2
:10493000FCE0022073FE0220FBE00220FAE00220ED
:104940008CE60220024B034918681AF004BB00BF32
:104950008CE602202D84030870B50C4C0C490646E9
:1049600020681AF0F8FA04F02FF90546206804F0E0
:104970001FF93046FFF7E6FF284604F019F92068D2
:104980000449BDE870401AF0E6BA00BF8CE6022088
:104990002F8403083184030838B5054619F0B1FCAB
:1049A00000230B4A14685CB1AC4206D1A96A6BB112
:1049B000996219F0ACFC012007E02346A46AF2E7F3
:1049C000002DF3D019F0A3FC204638BD1160F0E7AC
:1049D00090E6022010B5044698B105F07DFA204615
:1049E000FFF7DAFF10B194F82C300BB9002010BD9E
:1049F00019F087FC044A1368013B136019F087FC27
:104A0000F4E72220F3E700BF94E602202DE9F0430B
:104A100085B00546914698460E469DF8307009B916
:104A2000002F5CD12846FFF7D5FF0446002836D179
:104A300085F82C00686305F071FB864233D905F0D8
:104A4000DFFA2146844640F2E7304FF47A720023C1
:104A5000E6FB0C0117F06CFC4FF0FF32002317F05F
:104A600067FC2B46E88611462846CDE900441D4ADE
:104A70001AF09FFC044690B9C5E9089885F82D7096
:104A80002E6319F03EFC184A136833B31A469B6A2A
:104A9000002BFBD195620023AB6219F038FC204655
:104AA00005B0BDE8F08347B12B4631462846CDE935
:104AB00000440C4A05F0F6FADCE7304603A905F09D
:104AC000D3FA04460028EAD12B462846CDE90077E0
:104AD000044A03991AF049FCCCE71560DBE721246E
:104AE000DDE700BFED4A010890E6022091F82C3086
:104AF00013B50C4683B98B8ECA8E93420ED243B93E
:104B0000CDE9003320460B46104A4FF0FF311AF032
:104B100010FCA38E0133A38602B010BD52B191F8F0
:104B20002D307BB101230093D1E908232046096B86
:104B3000FFF76CFF0123064A84F82C301368013319
:104B40001360E9E7084605F0C7F9F3E7ED4A010805
:104B500094E602202DE9F041144E336823B34FF060
:104B60000008134F19F0CDFB05463C6824B92846D0
:104B7000BDE8F04119F0CBBB94F82C3093B1336809
:104B800084F82C80013B336094F82D3013B9204613
:104B9000FFF702FF284619F0BAFBD4E90831204696
:104BA0009847DFE7A46AE1E7BDE8F08194E60220D8
:104BB00090E60220034B1B68002B14BF0420012049
:104BC000704700BF94E60220024B1868B0FA80F0EC
:104BD0004009704794E6022007B5082019F0D3FA7F
:104BE00002238DF80030054B6846019319F02FFA27
:104BF000082003B05DF804EB19F0D0BA006A181071
:104C00000348044A0449121A921019F06CBA00BF02
:104C10001CB306081CB3060860FF022008B500F0AC
:104C20002FF8FFF7EDFF124B12498B4212D30020F1
:104C3000114B12498B4218D3FDF77AFB186850F8D4
:104C40002240586840F82240013298688242F5D3E9
:104C50000C33EAE70022F8E71C6844F8220001322E
:104C60005C68A242F8D30833E4E70022F8E700BF0B
:104C700000DB03080CDB03080CDB03080CDB030878
:104C80004FF480414FF0FF30114B124A10B59A603B
:104C9000D3F8882042F47002C3F888200E4A916647
:104CA0000E4901F5005210660D4850660220C3F807
:104CB000D000BFF34F8FBFF36F8F01244FF4403309
:104CC0000848C0F88041D36004600B6110BD00BF8C
:104CD00000ED00E00020010800900050008000443A
:104CE000F7FF370000E100E0014B1868704700BF94
:104CF000E40A0020084B1B6F03F00703022B04D0CB
:104D0000032B05D0012B05D0FEE7044B1868704734
:104D1000034BFBE70348704700800050E40A002083
:104D2000EC0A0020002D310108B5FFF7E3FF054B29
:104D30001B6FC3F303330133B0FBF3F0024B186076
:104D400008BD00BF00800050E00A00200048704706
:104D500000B4C404014B1868704700BFEC0A00207F
:104D6000054B1860054B1B6F03F00703032B01D1A4
:104D7000FFF7DABF704700BFEC0A00200080005048
:104D800000487047002D31014FF0B4439868C0F3DC
:104D900004400C280AD8DFE800F00B0909090909CA
:104DA000072119091B1D1F000F487047002070477D
:104DB0009B6803F04073B3F1807F11D0B3F1007FA3
:104DC00010D00A4A002B08BF1046704708487047A9
:104DD00008487047084870470848704708487047B7
:104DE0000848704708487047405DC60000093D000C
:104DF000C0EA210180BA8C010048E801005A620231
:104E00000024F40080841E0040420F00014B18680B
:104E1000704700BFE80A00204FF000639B6A10B59E
:104E200003F17842B2F5903F11D21968094A9142D4
:104E30000DD1094C227812F0FD0F01D0002010BDD9
:104E4000DB6998470028FAD101232370F6E74FF475
:104E50008170F4E707B0CD5E74FE02204FF000537E
:104E6000074A1A60BFF34F8F0649074BCA6802F41E
:104E7000E0621343CB60BFF34F8F00BFFDE700BF7D
:104E800002020FF000ED00E00400FA050346054AB7
:104E90000549106803448B428CBF4FF0FF3013600C
:104EA000704700BFF00A00200000042010B40A6818
:104EB00008461378022B10D014213023147913FBE9
:104EC000041307495B585179CB40DB4303F00103DE
:104ED00013705DF8044BFFF701B95DF8044B7047A0
:104EE00030C00350F7B50468012105463A2000F0B0
:104EF00057FF002301226179207901F027FE142257
:104F00003023217913FB01231D4A99586379D94035
:104F1000C943A37901F00101022B217017D100F0E0
:104F2000BDFB184A2B466179207900F0E1FBFF2890
:104F3000024660790ED12A46124900F015FC012381
:104F4000024661792079CDE9003301F0A5FD00200A
:104F500003B0F0BD012627790023014600963846AC
:104F600001F05CFE2A460749607900F0FDFB002352
:104F7000617902462079009301963346E5E700BF48
:104F800030C00350AD4E010802681378022B24D0C4
:104F900014213023107913FB001310495B58517909
:104FA000CB40917903F00103012912D1508843EAE3
:104FB00040034FF6E07063F03F039BB2834202D19F
:104FC0001170538070474FF6DF718B42F9D1002189
:104FD000F6E711B983F001031370704730C0035036
:104FE00008B501213A2000F0DBFE01230422032151
:104FF000002001F0ABFD002019F0A0F90122354B93
:105000003549C3F844244FF40022A3F550335A66BF
:10501000324BD3F8FC20D20146D4D1F8803023F0B3
:10502000030343F00203C1F880304FF4607000F0D6
:10503000D1FE2A4B00F5D520D3F8F02000F2FC4039
:1050400042F00102C3F8F020D3F8FC2042F0807255
:10505000C3F8FC20224AA3F55D431A60214B0222CB
:10506000B0FBF3F0204B01381861C3F8F0204FF487
:105070008072C3F804234FF060431C4A0020C3F839
:10508000B02F1B4AC3F8802ED3F8002E42F4807252
:10509000C3F8002EFF2283F82020D3F8002E22F43C
:1050A0008072C3F8002E08BDD3F8FC2022F0807275
:1050B000C3F8FC20D1F8802022F0030242F0020263
:1050C000C1F88020D3F8FC2042F08072C3F8FC20A5
:1050D000ABE700BF00D003500080005000ED00E0BF
:1050E000FF030040F8590D00000004E055CEACC5A8
:1050F000090001004FF06043D3F8802E30B5D2078D
:1051000015D501240B4D8440D5F8FC2042F0807267
:10511000C5F8FC20D3F8002E2243C3F8002E53F824
:105120002020002AF0D003F82010002030BD1120EC
:10513000FCE700BF00ED00E010B5012243780178E4
:10514000847830209A40054B00FB01331CB903F5ED
:1051500001531A6010BD03F58253FAE700C00350F3
:1051600010B5012243780178847830209A40054BAD
:1051700000FB01331CB903F582531A6010BD03F51F
:105180000153FAE700C003500122437801789A40A6
:1051900030235943014B5A50704700BF40F0035031
:1051A000102130230246007813FB001305495B5899
:1051B0005178CB4003F0010093780BB980F00100E7
:1051C000704700BF30C003502DE9F04F9A46564B50
:1051D00085B01B7806460F461546DDF83C909DF8D5
:1051E00044B0DDF85080002B00F09780072A00F2D1
:1051F00096800E9B002B00F09280B9F1000F00F01A
:105200008E80129BB3F5006F00F38980012803D1D3
:10521000109B002B00F08380444B03EB05131B7B9A
:10522000002B7ED0424C10220021684620F055FF12
:1052300004EB45141022A7BB3946204620F04DFF51
:1052400043F210036380BBF1000F03D1E37843F016
:105250000303E370364A0E9B02EB451CCCE9019335
:10526000129B6901581E9DF84C30C0F30A0003F0F0
:1052700003039B0643EA001E53582E48012E00EA02
:1052800003004EEA0003CDF800A0535017D0B8F148
:10529000000F2ED19CF8023068F304138CF8023012
:1052A00027E00021204620F018FF4FF4447363806C
:1052B000BBF1000FCED1E37843F03003C9E71323ED
:1052C0000CF1100ECCF80C309CE80F008EE80F00AB
:1052D0006FF00301DCF81C20109B61F39F02012F8B
:1052E000CCF81C20CCF8143003D1CCF81890CCF8B2
:1052F000043000270D4A290102EB051342F8018012
:10530000159A28465A60694622469F605E7301F0EE
:1053100001FD384605B0BDE8F08F0748FAE70748B9
:10532000F8E70748F6E700BF75FE022098E702207D
:1053300098E602200F80FFF3028000F0018000F069
:10534000078000F038B5124B05461B78DBB1E0B1A1
:1053500018F0D7FF0F4A00231146147B54B92B6075
:1053600001251A0101EB03131D738C5018F0CFFFB8
:10537000204638BD0133082B02F11002EDD118F0A0
:10538000C6FF0548F5E70548F3E70548F1E700BF24
:1053900075FE022098E70220048000F0028000F0F1
:1053A000018000F038B518F0ACFF002305460B4A29
:1053B000147B6CB90133082B02F11002F8D101F013
:1053C0004BFC074B28461C7018F0A1FF204603E059
:1053D000284618F09CFF034838BD00BF98E702201C
:1053E00075FE0220058000F00D4B10B51B780446B9
:1053F00093B1072812D818F084FF0A4B03EB04136B
:105400001A7B2AB100241C7318F081FF204610BDBE
:1054100018F07DFF0448FAE70448F8E70448F6E787
:1054200075FE022098E70220068000F0028000F05E
:10543000018000F0154B13B51868002301908DF81A
:10544000043018F05EFF124B1C7824B118F05FFF97
:10545000104802B010BD01221A7018F058FF0E4B10
:1054600001A81C731C7783F82C4083F83C4083F818
:105470004C4083F85C4083F86C4083F87C40082300
:105480008DF8073001F014FC2046E2E7848403081D
:1054900075FE0220038000F098E702200A4A08B552
:1054A00012785AB107280BD8084A02EB00131B7B6D
:1054B00043B1002101F0EEFB002008BD0448FCE7E9
:1054C0000448FAE70448F8E775FE022098E702204E
:1054D000028000F0018000F0078000F00A4A08B561
:1054E00012785AB107280BD8084A02EB00131B7B2D
:1054F00043B1012101F0CEFB002008BD0448FCE7C8
:105500000448FAE70448F8E775FE022098E702200D
:10551000028000F0018000F0078000F00A4A08B520
:10552000127852B107280AD8084A02EB00131B7BF5
:105530003BB101F03BFC002008BD0548FCE70548F5
:10554000FAE70548F8E700BF75FE022098E7022059
:10555000028000F0018000F0078000F00D4B1B7806
:1055600093B1072812D889B10B4B03EB00131B7BB7
:1055700073B10A4B1A6D01238340134214BF0123F8
:10558000002300200B70704705487047054870479E
:105590000548704775FE022098E70220000004507D
:1055A000028000F0018000F0078000F00B4A10B587
:1055B00012780C4662B107280CD859B1084A02EBA0
:1055C00000131B7B43B101F003FC2070002010BDD1
:1055D0000448FCE70448FAE70448F8E775FE0220AF
:1055E00098E70220028000F0018000F0078000F0C0
:1055F000184B2DE9F0411F6D5B6D1F4000D5FEE794
:1056000001260025144CDFF85880374218D0236853
:10561000C8F85060A3B1A168284601316268A16052
:105620009847637B012B0BD150B90C4B03EB45130F
:105630001A7B60F341021A731A7F60F341021A77F2
:105640000135082D4FEA460604F11004DDD1BDE80E
:10565000F08100BF0000045098E7022098E6022085
:105660000020045070B5044601250B4E04B970BDEE
:1056700094FAA4F0B0FA80F005FA00F306EB0012F9
:1056800024EA03045368002BF0D0117B11B1916818
:105690009847EBE79847E9E718E8022008B5192092
:1056A00001F046F828B14FF00072074BC3F8802193
:1056B0001A601A2001F03CF828B14FF08062024BCA
:1056C000C3F880211A6008BD00E100E038B5054646
:1056D0000C4618F016FE0022044B03EB05135C6029
:1056E0001A73BDE8384018F012BE00BF18E8022057
:1056F000F8B504460D4617461E4618F002FE1CB9C2
:10570000052D1AD0FF2421E0012C05D1012D21D037
:10571000032DF7D1042410E0022C07D1052D1BD056
:10572000072D1BD0002DEDD1062406E0032CE9D176
:10573000022D15D0052DE5D10A240A4904F11003E4
:1057400001EB03110123C1E901760B7318F0DFFDB2
:105750002046F8BD0324F0E70724EEE70824ECE731
:105760000924EAE718E80220F8B505460E46174670
:1057700018F0C7FD134B2C46D3F8242405F0FC0188
:1057800022FA05F3DB0712D500230133DBB2042B29
:1057900004D1FF2418F0BBFD2046F8BDEC1804F03E
:1057A00003040C4422FA04FC1CF0010FEDD1FF2C81
:1057B000F0D00122044B03EB0413C3E901671A7311
:1057C000E8E700BF00C0035018E80220074BD3F8F9
:1057D0002404D3F8202403F50053104000F0553082
:1057E00020F05020C3F82004FFF73CBF00C0035056
:1057F000074BD3F82404D3F8202403F500531040BA
:1058000000F0AA3020F0A020C3F82004FFF72ABF40
:1058100000C00350024B1968024B18680FF030BBF0
:10582000F40A0020140B002070B5940022460546AF
:105830000E4621F041FB431C0AD058B9224631469E
:10584000284620F020FC0028034808BF002070BD37
:105850000248FCE70248FAE710E000F021E000F01F
:1058600024E000F010B5044621F02AFB431C10D0C0
:1058700088B901F027FB234620F00300204498421A
:1058800001D1002010BD53F8042B0132F7D003489A
:10589000F8E70348F6E70348F4E700BF0EE000F03E
:1058A00021E000F024E000F008B518F023FD014BE2
:1058B000186008BD08F10220014B186818F01EBDE1
:1058C00008F10220044BD3F88420D206FBD4D3F88D
:1058D0008400C0F3811070470040005038B5104B71
:1058E0000546D3F880300C4603F00303022B0BD09F
:1058F000032B0DD0012B0FD1FFF7FCF90E2305B1BF
:10590000286004B1236038BDFFF73EFA0723F6E7AD
:10591000FFF7EAF90623F2E700231846EFE700BF96
:105920000080005038B5184B0546D3F820010C46CE
:1059300000F00700062823D8DFE800F0040A0E165E
:10594000121A1E00012305B1286004B1236038BD7E
:10595000FFF7CAF90523F6E7FFF7FCF90323F2E79F
:10596000FFF712FA0723EEE7FFF70AFA0223EAE746
:10597000FFF7BAF90623E6E7FFF7ECF90423E2E7BD
:1059800000231846DFE700BF0080005038B5174BF2
:105990000546D3F828310C4603F00703013B052BDD
:1059A00020D8DFE803F003131B0F0B17FFF79CF958
:1059B000052305B1286004B1236038BDFFF794F9D1
:1059C0000623F6E7FFF7E0F90723F2E7FFF7C2F94E
:1059D0000323EEE7FFF7BEF90423EAE7FFF7D0F968
:1059E0000223E6E700231846E3E700BF00800050EB
:1059F00073B50D460021114B0191D3F88041064645
:105A000004F00304022C13D0032C0CD0012C13D16E
:105A100001A8FFF787FF10240EB1019B336005B189
:105A20002C6002B070BDFFF7AFF907240190F3E7D7
:105A3000FFF7A6F90190EFE70C46EDE70080005074
:105A4000002337B50193164B0546D3F820320C4698
:105A500003F00703042B21D8DFE803F0030B111632
:105A60001B0001230DB1019A2A6004B1236003B029
:105A700030BD002101A8FFF789FF1223F2E7FFF7ED
:105A800083F907230190EDE718F03AFB0A23019010
:105A9000E8E7FFF7BBF909230190E3E70023E1E71B
:105AA0000080005038B5104B0546D3F840310C4605
:105AB00003F00303022B0BD0032B0DD0012B0FD1CE
:105AC00018F01EFB0A2305B1286004B1236038BD1D
:105AD000FFF79CF90923F6E718F015FB0C23F2E712
:105AE00001230020EFE700BF00800050002337B5FE
:105AF0000193164B0546D3F860320C4603F00703BA
:105B0000013B032B1FD8DFE803F0020E191400211C
:105B100001A8FFF707FF10230DB1019A2A6004B115
:105B2000236003B030BD002101A8FFF7BBFF1123A4
:105B3000F2E7FFF729F907230190EDE7FFF720F9D6
:105B400002230190E8E70023E6E700BF0080005051
:105B5000002337B50193164B0546D3F894320C4613
:105B600003F00703013B032B1FD8DFE803F0020E0D
:105B70001914002101A8FFF7D5FE10230DB1019AD9
:105B80002A6004B1236003B030BD002101A8FFF7F3
:105B900089FF1123F2E7FFF7F7F807230190EDE7FC
:105BA000FFF7EEF802230190E8E70023E6E700BFE5
:105BB0000080005038B5144B0546D3F800020C465F
:105BC00000F0070004281BD8DFE800F003090D11DE
:105BD0001500012305B1286004B1236038BD18F019
:105BE0008FFA0A23F6E7FFF711F90923F2E718F015
:105BF0008AFA0C23EEE7FFF797F80F23800AE9E70C
:105C000000231846E6E700BF0080005038B5144B6B
:105C10000546D3F808020C4600F0070004281BD8FC
:105C2000DFE800F003090D111500012305B128601C
:105C300004B1236038BD18F063FA0A23F6E7FFF7D2
:105C4000E5F80923F2E718F05EFA0C23EEE7FFF718
:105C50006BF80F23800AE9E700231846E6E700BF48
:105C60000080005038B5104B0546D3F840320C4642
:105C700003F00303022B0BD0032B0DD0012B0FD10C
:105C800018F03EFA0A2305B1286004B1236038BD3C
:105C9000FFF7BCF80923F6E718F035FA0C23F2E712
:105CA00001230020EFE700BF0080005038B5104B03
:105CB0000546D3F860310C4603F00303022B0BD0EA
:105CC000032B0DD0012B0FD118F01AFA0A2305B1BE
:105CD000286004B1236038BDFFF798F80923F6E780
:105CE00018F011FA0C23F2E701230020EFE700BFC0
:105CF00000800050B0F5207F1FD009D8B0F5007F9C
:105D000015D003D868B1B0F5C07F0AD000200CE0F0
:105D1000B0F5607FFAD10B4BD3F88000C0F30110CF
:105D200003E0084B186FC0F3033001307047054B98
:105D3000D3F89000C0F30460F7E7024B186FC0F38C
:105D40008020F2E70080005002464FF48030104B74
:105D500010B598660020FFF7CDFF504341F6713231
:105D60000C4BDC69DA635A6804F4803422F4401284
:105D700059B90949884294BF002001200005024317
:105D80005A600CB10022DA6310BD0449F2E700BF8B
:105D90000090005000000350005A6202002D3101B3
:105DA000430905D0012B0CD0022B084B18BF002350
:105DB00000F01F0039B103F58053012282401A60C0
:105DC0007047034BF4E703F50053F6E76880005093
:105DD000648000501FB5002180280446CDE90011E1
:105DE00000F0A58035D85E2846D85E2844D8DFE884
:105DF00000F0A243434343434343434343434343AA
:105E00004343434343434343434343434343434362
:105E10004343A2AAA2AABABABABABAAAC44DDA71BC
:105E20004DAAAAAA4343434343434343AAAAAA7998
:105E3000E4AA43434343434343434343434343BAB3
:105E4000A2A2A2DF4D4DE9885EBF4343434343997D
:105E5000A200B0F5B06F00F090802DD8B0F5207F93
:105E600071D00CD8B0F5C07F65D0B0F5007F65D09B
:105E7000B0F5807F00F08680009804B010BDB0F5CA
:105E8000607F6BD00DD8B0F5407FF5D1FEF74CFFA9
:105E900002464FF42070FFF72DFFB2FBF0F25208DC
:105EA0005AE0B0F5806F5ED0B0F5A06FE4D100216C
:105EB0006846FFF7C5FDDFE7B0F5106F78D016D85C
:105EC000B0F5E06F79D00AD8B0F5C06F6BD0B0F5FF
:105ED000D06FD1D100216846FFF76CFECCE7B0F55A
:105EE000F06FC9D100216846FFF7E0FEC4E7B0F5C6
:105EF000406F3DD013D8B0F5206F63D0B0F5286F58
:105F0000BAD10021324B0391D3F8703203F003036E
:105F1000012B02D103A8FFF7C5FD039B3CE0B0F5C0
:105F2000486FA9D100216846FFF712FEA4E7FEF7EB
:105F3000E1FE0090A0E7FEF7F7FEFAE7FEF7DAFED3
:105F40000246204604E0FEF7EFFE02464FF42070C2
:105F5000FFF7D0FEB2FBF0F200928DE701A8FFF749
:105F6000BDFC019AEDE700216846FFF7DBFC83E703
:105F700000216846FFF70AFD7EE700216846FFF72B
:105F800037FD79E74FF0E02302911B695B0705D5E8
:105F9000FEF7CAFE0290029B00936DE703A902A8D8
:105FA000FFF780FDF7E700216846FFF77BFD63E719
:105FB00000216846FFF72AFE5EE700216846FFF7EA
:105FC00051FE59E700216846FFF790FD54E700BFF6
:105FD0000080005008B58020FFF7FCFE034B98427C
:105FE0009EBF4FF48032024B1A6708BD005A62020E
:105FF00000A000501FB503460020B3F5807F01903C
:1060000000F0C18064D85D2B55D84C2B07D82D2BC0
:1060100048D8232B2CD8019805B05DF804FB4D3BE4
:10602000102BF8D801A252F823F000BF7D610108BF
:106030001760010817600108176001083361010843
:106040001760010817600108016201085161010829
:10605000F7600108F761010817600108176001087F
:106060001760010817600108176001080B6201083A
:10607000243B092BCFD801A252F823F07D610108FF
:106080007D6101087D6101087D6101087D61010874
:1060900017600108736101081760010813610108A6
:1060A000B36101083D2B7FD03E2BB4D1002001A964
:1060B000FFF7D8FDAFE7802BADD1594B1B6F03F035
:1060C0000703013B032BA6D8DFE803F0514E858D73
:1060D000B3F5F06F68D021D8B3F5B06F49D00FD8C1
:1060E000B3F5607F00F0838095D3B3F5806F45D022
:1060F000B3F5A06F8FD1002001A9FFF7A1FC8AE7BB
:10610000B3F5D06F55D0B3F5E06FCFD0B3F5C06F16
:1061100081D1002001A9FFF7C5FC7CE7B3F5206F12
:106120006ED00BD8B3F5086F48D0B3F5106F7FF47D
:1061300072AF002001A9FFF769FD6CE7B3F5406F6E
:1061400059D0B3F5486F60D0B3F5286F7FF463AFD3
:10615000334BD3F8703203F00303012B5AD0022BD8
:106160000CBF1523002300E00523019353E702230E
:10617000FBE7002001A9FFF73BFC4CE7002001A949
:10618000FFF7D0FB47E74FF0E02302901B695B0766
:1061900005D5FEF7C9FD0D230393039BE5E703A98E
:1061A00002A8FFF77FFCF8E7002001A9FFF77EFDBA
:1061B00031E7002001A9FFF7FDFC2CE7184BD3F8CD
:1061C000003103F00303022B07D0032B09D0012B6E
:1061D0000BD1FEF7BFFD0323C7E7FEF717FE092328
:1061E000C3E717F08BFF0823BFE70123BDE701A931
:1061F000FFF774FB0FE7002001A9FFF7C7FB0AE7D1
:10620000002001A9FFF772FC05E7002001A9FFF7B4
:106210009FFC00E7002103A8FFF744FC1123A4E73B
:10622000008000504FF48012034B5A664FF48032C6
:10623000024B9A62704700BF009000500050005A15
:1062400008B5FFF7D7FE092811D00A38012802D96E
:106250004FF6FF7008BD4FF48002064B5A6603F5F7
:10626000D8335B6ADB07F3D54FF4FA70F2E7024BE1
:106270001888EFE700900050F40C002038B5044671
:106280008020FFF7B7FE032800F083804FF48012D0
:10629000524B4FF0A0615A6645F60E02504BC3F8C0
:1062A0008020504A91624FF4803102F58052916211
:1062B0009A6DD203FCD4996D11F08041FBD1D4E9E1
:1062C0000002120542EA0062E07B0243207B42EAC0
:1062D0000042607B42EA0032A07B42EA80121A61EF
:1062E0009869D4E90452120642EA856200F000403F
:1062F0000243A07EE57E0243207E42EA0042607EA9
:1063000042EA00229A611A6AE06922F00F0242EA28
:106310008502354D00283DD11A6294F82420996AEF
:1063200094F82000D200294042EA40120A4394F82F
:10633000211042EA011242F480329A622B49284A23
:10634000936D31EA0303FBD14FF0807125488162E0
:106350001369A56823F4700343EA055313614FF0F2
:106360000043836194F822300BB9214B996294F871
:1063700023303BB94FF480321D4B9A62184A936D1B
:106380005B00FCD494F825301BB1154B194AC3F8B7
:10639000802038BD024342F0080202281A6208D168
:1063A00019614FF40852996113484FF47F4117F077
:1063B0006AFF0B4994F822308A6A94F820001B0681
:1063C0002A4043EA4013134394F8242043EAC203CB
:1063D00094F8232043EA02438B62D3E700900050F5
:1063E0000040005A0050005AC7FFFEFE03000100A3
:1063F0000060005AF1A7FFFF3440005A70B5194CF5
:10640000FF28A66A2BD8A36D4FF0807113F4803F4C
:1064100018BF4FF48032144B18BF9A629962134A26
:10642000A36992F9005023F47F03054423F47F43CA
:1064300043EA002385F3080543EA0543A361324696
:106440000B4817F020FFA36DDB0301D4002070BDC3
:1064500032464FF48031064817F015FFF6E7212049
:10646000F5E700BF0040005A0050005AFDE002204E
:106470002840005A014B93F900007047FDE00220CC
:106480004FF4803311481249826A8B62836D03F0A6
:106490000303032BFAD14FF080730E488B620B4B32
:1064A000996D30EA0101FBD1012009490865996D18
:1064B0008907FCD4054B996D8807FCD5996D890730
:1064C000FCD50549054817F0DEBE00BF0040005A64
:1064D0000050005A03000100000001012840005A4A
:1064E000F0B5D0E901434FF400061A4A4178057827
:1064F00056664FF4D156022702F5B8325662164E50
:106500004F2977604FF0010728BF4F2106F58056CD
:1065100077601669F603FCD441EA052151611B013D
:10652000417B43EA04230B43017B43EA410393602D
:10653000C37B817B1B0143EA4113417C0B43017CFC
:1065400043EA41035360837C13B16FF4D153536228
:10655000F0BD00BF0090005000100250014B1880A9
:10656000704700BFF40C0020014B1880704700BF3B
:10657000F20C00204FF4800208B5184B5A66022333
:10658000174A5360936813F48033FBD1012822D15A
:10659000FEF7E0FB134B984215D003F5122303F5E9
:1065A000F863984213D0104B00EB8002400AB3FB13
:1065B000F0F3520A0A49CA620B6301234B620022BC
:1065C000074B5A6008BD45F67A13084AF2E745F6CC
:1065D0001A03074AEEE75362F1E700BF009000504C
:1065E0000040025000F0490264666666D8B80500B3
:1065F000BBCF0500B0F5207F10B50C465DD008D8A4
:10660000B0F5007F4ED003D8C0B1B0F5C07F15D033
:1066100010BDB0F5607FFBD12C4B4C1ED3F8FC2095
:106620002B4912F0807F4FEA041427D1D1F8803033
:1066300023F030032343C1F88030E9E717F032FE3E
:1066400017F03EFE4FF48031224B214A1967136F39
:10665000013C23F4704343EA04331367FEF764FB01
:106660000446FFF72FF9C0F10201204617F022FE81
:1066700000F042F8BDE81040FFF7ACBCD3F8FC20B6
:1066800022F08072C3F8FC20D1F8802022F0300282
:106690002243C1F88020D3F8FC2042F08072C3F876
:1066A000FC20B5E70A4A4C1ED2F8903023F0F8538C
:1066B00043EA0463C2F89030AAE7054A4C1E136F00
:1066C00023F4806343EA84231367A1E700ED00E02D
:1066D000008000500090005008B50121022000F019
:1066E0008FF817F0DFFD17F0EBFD4FF48032014B10
:1066F0001A6708BD0090005008B54FF4C070FFF74E
:1067000069FBBDE808400449884294BF0121022189
:106710004FF42070FFF76EBF80F0FA02034B586809
:10672000C0F30800003818BF0120704700ED00E0FA
:10673000054B420953F8223000F01F0023FA00F005
:10674000C04300F00100704700E100E0024A536BD3
:106750000342FCD1704700BF00400950044A417811
:10676000536F23F4407343EA01235367704700BF1C
:10677000004000500C4A10B51369044643F004036E
:10678000136103F07BF917F0C5FD084B084AC3F805
:10679000202430BF17F0BFFD03F0AAF91CB9BDE8F3
:1067A0001040FEF7C1BA10BD00ED00E000E003505C
:1067B0000000FF0F0A4A10B51369044643F00403B2
:1067C0001361084B084AC3F8202403F057F930BF7F
:1067D00003F08EF91CB9BDE81040FEF7A5BA10BD54
:1067E00000ED00E000E003500000FF0F034A0179D4
:1067F000D36E23F030030B43D36670470040005044
:10680000F8B504461C4BD3F88420D106FBD4D3F84A
:106810008430C3F381139C422CD0FEF76BFA012C19
:10682000064602D1214617F045FD17F063FD4FF0F3
:106830000072124B07465A66204617F06FFD4FF460
:1068400080630D4D621E93402B676B6E9A0103D4DB
:10685000D5F884309B060AD5384617F04FFD022C38
:1068600008D13046BDE8F840002117F023BDD5F827
:106870008430EAE7F8BD00BF0040005000600050DF
:1068800010B50C4608B9FEF735FA074B21461B78C0
:106890003BB1064B984204D80120BDE81040FFF7F9
:1068A000AFBF0220F9E700BF76FE0220005A620265
:1068B0000278034B012100201A70FFF7E1BF00BFEF
:1068C00076FE02204FF0004238B5244B244C5A6625
:1068D0004AF6CD33656C014605F00105236428BBFB
:1068E0000120FFF733FF6368DB0715D51D4B5860A8
:1068F00008461D4B226BD2070CD4984208D10724BE
:1069000015B1174B194A1A641EF0BCFE204638BD5B
:106910000130EFE79842F2D00024F1E70132236B17
:1069200013F0080305D08A42F8D1E8E700220E49A7
:10693000F5E78A42E3D020210A4A91620121A2F5BB
:10694000805251600649084A886A800603D49342FF
:10695000D5D00133F8E79342DDE700BF0090005047
:10696000004009500060095040420F003254FFFFC0
:106970004FF0004238B5164B01465A664AF6CD3301
:10698000144C154A656C236443780B205B0043F07C
:106990000103D363FFF7DAFE63688A7823F4F873A0
:1069A00043EA02136360CA784B7943EA0223A36087
:1069B0000A798B7943EA022323610878FFF782FF83
:1069C000EB0744BF054B23641EF05CFE012038BD7D
:1069D0000090005000400950004000503254FFFF2A
:1069E0004FF00042124B70B55D6E03F580535A664E
:1069F0004AF6CD3304460F4980204E6C0B64FFF7F6
:106A0000A5FE0B6A23F00F030F2C94BF234343F022
:106A10000F030B62F30744BF074B0B64002DA2BFAB
:106A20004FF00042054B5A661EF02CFE70BD00BFB1
:106A300000800050004009503254FFFF00A0005079
:106A40004FF00042104B70B55D6E03F580535A66EF
:106A50004AF6CD3304460D4980204E6C0B64FFF797
:106A600075FE0B6A23F4F85343EA04230B62F30721
:106A700044BF074B0B64002DA2BF4FF00042054BF3
:106A80005A661EF0FFFD70BD0080005000400950A6
:106A90003254FFFF00A00050072A2DE9F0411546AF
:106AA00098464FF0030401F003072DD89600B44038
:106AB00000FA06F221461C4817F031FC21461B481B
:106AC00007FA06F217F02BFC194B1A499DF818002B
:106AD000B8F1000F18BF1946012303FA05F50D6040
:106AE000154B1649002818BF0B461D60144B9DF826
:106AF0001C00C3F82054103103F22443002818BFAF
:106B00000B461D60BDE8F081A2F10806B600B44056
:106B100000FA06F221460B4817F001FC21460A480C
:106B200007FA06F2CEE700BF00C4035008C40350C2
:106B300010D4035010E4035014E4035014D4035051
:106B400000E0035004C403500CC403502DE9F0418D
:106B500005460F461E4690464AB101233022194C85
:106B60008B4002FB004436B304F5825423600F21AE
:106B7000072F05EB450388BFA7F108044FEA03136D
:106B8000114895BFBC00A40004330C3308FA04F28A
:106B9000A140184417F0C3FBB8F1000F09D101233D
:106BA0003021084ABB4001FB05223EB102F582526A
:106BB0001360BDE8F08104F50154D7E702F50152F6
:106BC000F6E700BF00C0035030C00350104B014037
:106BD000D3F8302422EA0002C3F83024D3F830245A
:106BE0001143C3F83014D3F82C240243C3F82C24E7
:106BF000084AD36E03F03003202B1FBFD36E23F05F
:106C0000300343F01003D366034BC3F820047047EE
:106C100000C003500040005000E0035038B5144657
:106C20001D46032283F00103FFF790FF012004F1CA
:106C30001001884005FA01F1FFF7C8FF9DF8101018
:106C4000034B044A002918BF1346186038BD00BF23
:106C500024E4035024D403504FF400120B4B10B51E
:106C6000C3F88020BFF34F8FBFF36F8F0024FF2244
:106C7000074B21465C6520209A625C60FFF790F824
:106C80002146BDE810402120FFF78AB800E100E06E
:106C900000000450044A054B002908BF1346012296
:106CA00082401A60704700BF4010045040200450DA
:106CB00010B5012104462020FFF772F801212120A0
:106CC000FFF76EF80122114B5A60227812069A6083
:106CD0006178A27842EA01429A61FF229A62002218
:106CE0009A631A644FF000425A654FF0FF324FF436
:106CF000001103F500531A65054AC2F88011E378C4
:106D00001B01DBB282F81533116010BD0000045086
:106D100000E100E0F8B50125C3B2D1F800E091F838
:106D20000AC00F7B0C469D40CB7A1D491D4E0D6558
:106D3000810001F1A04101F58821C1F804E04FF084
:106D4000300E0EFB00601B05617B43EA0C4343EAF7
:106D5000475322F003020166C365026717F0D1FAB8
:106D6000736D2B437365237A13B1336C2B433364F8
:106D7000637A13B1B36B2B43B3632279A37943EAEC
:106D80000243074A93616179E37943EA0143064983
:106D90008B61044B55639D64BDE8F84017F0B7BAAA
:106DA00000200450000004500010045010B50124CD
:106DB000C0B2844017F0A5FA044B5A6D22EA0402CF
:106DC0005A659C62BDE8104017F0A1BA000004505B
:106DD00010B50124C0B2844017F093FA074BDA6A69
:106DE000224208D15B6B9C430CBF0124002417F0A6
:106DF0008EFA204610BD0024F9E700BF00000450C1
:106E00004FF48032054B9A6641F6713203F51C331C
:106E1000DA63012203F50053DA60704700900050F6
:106E200041F671320121064BDA6303F50052D1605D
:106E30000022DA634FF48032A3F518339A66704764
:106E400000000350013831289ABF024B185C002023
:106E5000704700BFA984030838B5C2F3062504466D
:106E600002F0070241B942EA052242F44022063408
:106E7000074B43F8242038BD1146284617F05FFA27
:106E800002462846FFF7DEFF163442EA0022EFE70B
:106E9000008003504FF48032064B5A6603F5E62318
:106EA0009B69C3F38512827003F03F021B0B427093
:106EB0000370704700900050014B986CD96C70477C
:106EC0000080E00F0120034B9B680A3303F01F038F
:106ED000984070470080E00F70B5054616461C4686
:106EE00021B94FF42070FEF775FF0146402C1BD0EE
:106EF00003D8DCB1202C1BD070BD602CFCD1042346
:106F000003FB06F2530803EB4113B3FBF2F3094A08
:106F1000203B02EAC303AA6822F06002AA60AA68C2
:106F20001443AC60EB61E7E70623E9E71023E7E7EA
:106F30000823E5E7F8FF7F00012100F5805310B535
:106F4000596040F6AA6341F2050243610023094CEF
:106F50008360C365C26000F500520361C361C3640E
:106F60009464054C8365A04204BF0365436551608A
:106F700010BD00BFFFFF010000C0055070B50D46F9
:106F8000FFF7DAFF012300F580567360AB7C0446FF
:106F90001BB1836843F080438360EB7C5BB1244B7F
:106FA0009C4202BF2A7DA3F51033C3F8C821E36DCC
:106FB00043F08003E3652A8A6B7B20461343EA890A
:106FC0001343E3602B7BD5E90112FFF785FF6B7D4F
:106FD0001BB1A36843F48033A360AB7D1BB1A368EE
:106FE00043F40043A360EB7D2A7E1B07120502F4E5
:106FF000E00203F0E0431343A3656B7E9A1E012A6F
:107000004FF0020209D80B49032BC1F8202709D100
:107010000423F3652B78636170BD0749012BC1F828
:107020002027F4E7042204F50053DA65F2E700BFF5
:1070300000C0055000D0035000E00350034B5A68D5
:10704000D20702D5DA69002AF9D1704700800A50C8
:10705000054B9A689107FCD45A689207F9D4DA690B
:10706000002AF6D1704700BF00800A5008B5FFF72C
:10707000E5FF0222014B1A6108BD00BF00800A50E3
:1070800008B5FFF7E5FF0122024B03F580514A6086
:107090001A6108BD00800A5008B5044B59680129DF
:1070A00003D1FFF7E3FF024B596008BD00800A508F
:1070B00000A00A5010B5064CFFF7CAFF6368012B09
:1070C00003D1FFF7E9FFFFF7C3FF0378E36010BDCB
:1070D00000800A50B8B94A680B7812B1127843EAB6
:1070E000C2034A7843EA42038A6812B1127843EA3B
:1070F00082138A7843EA8203CA6812B1127843EA9B
:107100004223014A9364704700800A5008B9014B3A
:107110005964704700900A5008B9014B5964704790
:1071200000A00A5008B9014B1964704700A00A502A
:1071300010B9024B186C70470020704700800A504D
:1071400048B911B1012903D07047044BD86C70477E
:10715000024B186D70470020704700BF00800A5036
:1071600040B911B1012903D07047034BDA6470476D
:10717000014B1A65704700BF00800A5010B9024BDE
:10718000586D70470020704700800A5038B504469B
:10719000054D1EF09BFA0FCC0FC594E8030085E85F
:1071A0000300002038BD00BF0CF1022047F6FF733A
:1071B0009A42F0B56FD002296FD8394B5B5C012B36
:1071C0006BD8384DDF0005EBC30415F83330A178D8
:1071D000012B13D10025E078401AA84202D80844B8
:1071E000C0B2F0BD431B6668A0EB530336F91360D1
:1071F0009642D4BF1D4603F1FF30EEE760680028D9
:10720000EFD0B0F90040944204DBB0F90240944260
:10721000B8BF144683883D44FF2B19BFC8224FF0E6
:10722000280CB0F90620B0F908C0A2EB04030CBF8B
:107230000126002693FBFCF333446E781BB29E427A
:1072400001DD002B01DA731E1BB24FF47A7C01338F
:107250009BB2071D5D1E2DB24FEAC50E00EBC505A2
:10726000EA88AD689E4214FB025222EAE27202F101
:107270005C02B2FBFCF204DD37F833500133954277
:10728000E8D200EB0E039888904228BF104688424F
:1072900038BF0846A4E7FF20A3E70020A1E700BF0E
:1072A000DB8403080CF102200229F0B555D82C4BE1
:1072B000585C012851D82B4C04EBC00114F8300065
:1072C0004B6801280FD1C8788C78904294BFC4EBEA
:1072D0000001C4EB0201001BCAB28242C8BF0022F7
:1072E00033F91200F0BD002B37D08878904202D3DA
:1072F000B3F90200F6E7CC78B3F900009442F1D973
:107300004C789988013CA1F1FF06714203F1040514
:10731000E4B2714103F10C07CEB2B44216D805EBCA
:10732000C1014FF47A756A43B1F902404968521AB3
:1073300004EBD47102EB610292FBF4F29042D1DBD8
:10734000B3F902009042CDDC10B2CBE737F831C080
:107350004E1C9445E3D33146DEE70348C2E700BF45
:10736000DB8403080CF102200080FFFF0148FFF7D7
:107370000DBF00BFE084030800487047F60C0020F2
:107380007FB50222084B0949CDE901234FF0007374
:10739000CDE90313072301A94FF0FF3005931EF039
:1073A000CCF907B05DF804FB006A18000002060083
:1073B00008B5B0B14FF480620B4B9A6616F0F9FF36
:1073C0004FF098435A6CD202FCD54FF48062586D4E
:1073D000064B10F470209A6604D0BDE8084017F000
:1073E00021B8212008BD00BF0090005000A000502F
:1073F0002DE9F0418CB08846DDE912761D46044641
:10740000002847D0002945D0002F43D0002E41D07E
:1074100013F00F033ED120482049A360002A08BF83
:107420000146E361C4E90013404609A917F0F6F8E4
:1074300068BB2046099916F0B3FF2946204616F08E
:10744000AFFF6946404600F081FA00BB694620461E
:1074500016F092FF404603A917F0DFF9B8B92046AD
:1074600003A916F089FF06970127204645F000552D
:1074700006A90797089516F07FFF204609A90996E7
:107480000A970B9516F082FF2046FFF791FF0CB08C
:10749000BDE8F0812120FAE70001000400010104A9
:1074A000F0B50C4617461E46054695B0002874D028
:1074B000002972D0002A70D0002B6ED0036B0F2BE6
:1074C0005BD80023364A3846C4E90023A360E36151
:1074D00011A917F0A3F800285BD12046119916F0E6
:1074E0005FFF296B20460F2984BF01F00F01103187
:1074F00016F056FF384602A900F028FA002848D1B5
:10750000204602A916F038FF384605A917F085F97C
:1075100000283ED1204605A916F02EFF0122214B5E
:10752000089509920A932B6B05F1100003F00F01E7
:1075300041F000510B900F2B0C920D910E900F9279
:1075400043F00052109226D90A9B08A923F0005359
:1075500020460A9316F010FF0BA9204616F00CFFE8
:107560000123119612930F4B204611A9139316F085
:107570000DFF2046FFF71CFF0BE000F120030190F8
:1075800000930122102339462046FFF731FF0028DF
:1075900097D015B0F0BD0EA9DFE72120F9E700BFB5
:1075A00000000404100000202DE9F04F9BB00C46B1
:1075B00090461F460546DDF89090002800F0B28006
:1075C000002900F0AF80002A00F0AC80002B00F012
:1075D000A980026B02EB09031B09B3EB121F02F037
:1075E0000F0600F0978000234F4A8B60C1E900230B
:1075F000CB61404617A917F011F80346002840F068
:10760000858006EB090B204617992BF00F0A16F020
:10761000C7FE5146204616F0C3FE404602A900F0C0
:1076200095F90346002871D1204602A916F0A4FE60
:10763000404605A917F0F1F80346002866D14FF03F
:107640000108019005A9204616F096FE374A20460B
:1076500008A90895CDF824800A9216F08DFE46F010
:107660000051AAEB060605F1100346F000560B93F5
:10767000CDF830800D910E97CDF83C8010960D9985
:10768000204621F000510D910BA9009316F074FED5
:1076900020460EA916F070FE019B244A1193AAF110
:1076A000100343F00053CDF84880139305F12003F5
:1076B0001493CDF854801692139B204643F08043D8
:1076C0001393139B11A923F00053139316F05EFE3E
:1076D000204614A916F05AFE144A17A920461795F9
:1076E000CDF86080199216F051FE2046FFF760FE3B
:1076F000AAEB0B0149440190ABEB0A020098394414
:107700001EF0F6FC019B2A6B4A442A6318461BB004
:10771000BDE8F08F10304A46394630441EF0E8FC90
:107720000023F0E72123F1E703020004100000200A
:107730002DE9FF474FF000080E4617460446CDF8E6
:107740000080002859D022B90025284604B0BDE8A1
:10775000F087002951D032F0030902F0030A1FD04C
:107760004FF0E063C0E9003801230191C0F80880C0
:107770000293C0F81C8049F0005301A9039316F04E
:1077800005FE4946204616F00BFE2046FFF710FE88
:10779000054628B14A46414630461EF09EFCD4E7D5
:1077A000BAF1000FD0D04FF000084FF0E063C4E909
:1077B00000380123CDF804D00293114B204601A9D3
:1077C000C4F80880C4F81C80039316F0DFFD042180
:1077D000204616F0E5FD2046FFF7EAFD054608B114
:1077E0003A46D8E7009A4E44EB00013522FA03F3FB
:1077F000AA4506F8013BF7D1A6E72125A5E700BF7A
:1078000004000020F0B50F4616461D46044693B00E
:1078100010B9212013B0F0BD0029FAD0002AF8D009
:10782000002BF6D0002331461A46384616F09BFE50
:107830000028EFD1304602A916F031FE0028E9D128
:10784000EB68022B0AD039683F48029A81426B6983
:1078500002D01830814270D19A42DAD82B68002BBE
:10786000D7D14FF060623846C4E90023A360E361DA
:1078700001A916F0D3FE0028CCD10199204621F4AD
:10788000F061019116F08CFD6946284616F0C6FE9F
:107890000028BFD12046009916F082FD384609A97C
:1078A00000F054F80028B5D1204609A916F064FD6F
:1078B00038460CA916F0B1FF0028ABD120460CA920
:1078C00016F05AFDEB684BB1284606A900F03EF8C9
:1078D00000289FD1204606A916F04EFD304603A988
:1078E00016F09BFF002895D1B368DA040CD59B04F1
:1078F00027D50621F36932691B6801FB03225B006F
:1079000043F0005303920593204603A916F034FD7B
:1079100028460FA916F081FF00287FF47BAF204690
:107920000FA916F033FD03252046FFF741FD01287E
:107930007FF470AF013DF7D16CE7B3EB420F8DD20E
:1079400067E7292066E700BF200000B090B189B149
:1079500001234B60C368013B012B08D88269064BA9
:107960001AB10A6000208B607047044AF9E74FF0B3
:107970000053F7E721207047080000209496030881
:1079800006289ABF014B185C002070479C9603089C
:1079900030B5154B87B00293144B0390049346F611
:1079A00011030D46059300F077F91428044616D10B
:1079B000684617F033F84FF0A843032202A95A6330
:1079C00019601D619A63DA6B9207FCD1142C02D105
:1079D000684617F031F800F093F9044601E00028FA
:1079E000E9D0204607B030BD24F102200400002079
:1079F0002DE9F04FB1B005468C469E46E8466F4EE5
:107A0000DDF8EC90409C06F1100A4746306871683A
:107A1000083603C75645B846F7D13E9B03EB02082C
:107A2000C8F1000A0AF00F0AB9F1000F00F09D80BA
:107A3000C9F1000707F00F070121DDF8FCB044F0A1
:107A40000050C4F11006CDF810B005910690300238
:107A500000F4F85040F021000790B9F1000F40F019
:107A60008680CDF820D047F00050002D00F08480B3
:107A7000099121210A9041EA07210B9142F000501F
:107A8000CDF830C03D9B08A94FEA0A2C0D910E900D
:107A90004CF041000F901093002A75D13E9B11913C
:107AA00043F0005312933C9B1390149310AB159327
:107AB000434B444A169340F611031793424B00215F
:107AC000002D08BF1346189314AB19933F4B102297
:107AD0001A9311231B931CAB18461EF0FEFA0122C9
