:020000040801F1
:10200000C00A0020C94701080DFD02080DFD0208A5
:10201000D90F03080DFD02080DFD02080DFD020891
:102020000DFD02080DFD02080DFD02080DFD020860
:102030000DFD0208D097030865F402080DFD0208A3
:102040000DFD02080DFD02080DFD02080DFD020840
:102050000DFD02080DFD02080DFD02080DFD020830
:102060000DFD02086D3301086DF502080DFD020833
:102070000DFD02080DFD02080DFD02080DFD020810
:102080000DFD02080DFD02080DFD02080DFD020800
:102090000DFD02089D5101080DFD02080DFD02080D
:1020A0000DFD02089D530108795301080DFD02083A
:1020B0000DFD0208ADC5020839D00208A37D030852
:1020C0009F7D0308E1C70208AF7D0308A77D0308D1
:1020D00011D00208AB7D030879D00208E5D00208D0
:1020E0000DFD02080DFD02080DFD02080DFD0208A0
:1020F000CF0B03080DFD02080DFD02080DFD0208BF
:102100000DFD02080DFD02080DFD02080DFD02087F
:102110000DFD02080DFD02080DFD02080DFD02086F
:102120000DFD02080DFD02080DFD02080DFD02085F
:102130000DFD02080DFD02080DFD02080DFD02084F
:102140000DFD02080DFD02080DFD02086F110308C8
:1021500045AE02080DFD0208357A03083B7A0308F4
:102160000DFD02080DFD02080DFD02080DFD02081F
:10217000013800D0FCE77047D0B51BA7D7E900674E
:102180002DED028B04469FED1A8AD4ED007AF4EE11
:10219000C87AF1EE10FA0EDA13A7D7E900679FEDBF
:1021A000158AD4ED007AF4EEC87AF1EE10FA0ED466
:1021B000BDEC028BD0BD17EE900A1BF06DF93246D4
:1021C0003B461BF009F81BF0BFF92060DDE717EE76
:1021D000900A1BF061F932463B461AF0FFFF1BF0F4
:1021E000B3F92060DDE700BF182D4454FB211940EE
:1021F000DB0F4940DB0F49C0002370B5404C05465A
:102200008AB0E36318B1008823600DF071FE3D4889
:1022100025F03EF93C4E3D4B304633603C4B7360FD
:1022200022F094FA0021304614F068F932A3D3E981
:102230000023A062C4E9062322F093FAD4E906231E
:1022400019431043C4E90601CDE900014FF0FF3303
:102250004FF0FF32A06A25F068F902224FF0FF31FB
:10226000A06A25F067F901200DF0C4FB4FF400735C
:1022700000222849A06A25F0AEF9B0F5007F38D1D8
:1022800000239422CDE9073309933C23CDE903329F
:1022900005939623A06A03A9069314F04DFA35B36B
:1022A000287C0DF0A3FF0546F0B9A06A25F074FA6A
:1022B0000DF04AFF0DF080FB20B14FF4807000213B
:1022C0000BF0F2FB0DF088FB20B14FF40060002111
:1022D0000BF0EAFB22F008FB012014F063F90E4A30
:1022E0000E49A06A22F030FA28460AB070BDFF20DD
:1022F000D7E70725F8E700BF0DD5015520000000FE
:10230000A80F0020690345EC3C25002079F801085E
:102310004C2500203C230020F146030831470308E8
:102320000348044B834202D0034B03B11847704764
:10233000380F0020380F002000000000064B07492E
:10234000C91A891048BF0131491003D0044B0BB1A1
:1023500001481847704700BF380F0020380F002091
:102360000000000010B5064C237843B9FFF7D8FFF2
:10237000044B13B10448AFF300800123237010BD58
:10238000002D00200000000064EF030808B5054B95
:102390001BB105490548AFF30080BDE80840FFF7D1
:1023A000CDBF00BF000000001812002064EF03083A
:1023B000A3F5803A704700BF174B002B08BF134BA3
:1023C0009D46FFF7F5FF00218B460F461348144A40
:1023D000121A25F0BFFD0E4B002B00D098470D4B75
:1023E000002B00D098470020002104000D000D486C
:1023F000002802D00C48AFF300801BF0E9FC20005D
:1024000029001DF023F81BF087FA00BF0000080028
:102410000000000000000000C00A0020380F00206B
:102420001C2E00200000000000000000044A137869
:1024300083F0010313701022024B1A64704700BF2F
:10244000022D002000F0035037B50B880622ADF8AE
:1024500000304B880546ADF802308B880021ADF87E
:1024600004306B4610F004FA044630B96A4606217F
:10247000284610F057FA0446C8B1032001F07CFB4F
:10248000A8B10C4D0C4928681EF0EEFB1DF0C1F8F8
:102490001DF0C0F809492346094A28681EF0E4FBEC
:1024A000204601F0AFFB074928681EF0DDFB03B0B2
:1024B00030BD00BFBC140020808C0308888C03084A
:1024C000858C03087F8E030837B5474B0DF1060155
:1024D000187810F09DF90446002851D1032001F02E
:1024E0004BFB70B1414C424920681EF0BDFB1DF012
:1024F00090F81DF08FF89DF906203E4920681EF0E7
:10250000B3FB9DF8063001228DF8073000213420FE
:102510000DF1070310F0ACF90446002842D1032066
:1025200001F02AFB70B1314C314920681EF09CFB50
:102530001DF06FF81DF06EF89DF906202E492068F9
:102540001EF092FB012134200DF1070210F0EAF990
:102550000446002837D1032001F00EFB70B1234C54
:10256000234920681EF080FB1DF053F81DF052F83F
:102570009DF90620214920681EF076FB03B030BD8E
:10258000012001F0F9FA0028F8D0184D1C492868FC
:102590001EF06AFB1DF03DF81DF03CF8224619497B
:1025A0002868E9E7012001F0E7FA0028E6D00F4D9E
:1025B000134928681EF058FB1DF02BF81DF02AF86F
:1025C00022461149ECE7012001F0D6FA0028D5D0C7
:1025D000064D0B4928681EF047FB1DF01AF81DF048
:1025E00019F822460949DBE7600D0020BC140020E1
:1025F000808C03089D8C0308DF8C0308258D03085D
:10260000B38C0308B88C0308FD8C0308518D0308B4
:1026100010B5124C1248237800EB830282ED000AB9
:1026200007220133B3FBF2F19FED0E0AC1EBC101AA
:102630005B1ADBB20C49237073B1013BDBB200EBD8
:102640008304B1EC017AD4ED007A013A12F0FF0272
:1026500007EE270AF0D110BD0623F0E7042D002075
:10266000E813002000000000BC8F030810B588B0FC
:1026700001F0D8FF05A801F063FF0DF11A0001F089
:1026800099FF032001F078FAE0B1144C1449206856
:102690001EF0EAFA1CF0BDFF1CF0BCFFBDF91E30B5
:1026A000BDF914200393BDF91C300E490293BDF906
:1026B0001A300193BDF9183000932068BDF9163027
:1026C0001EF0D2FA05A92A20FFF7BEFE2D200DF13B
:1026D0001A01FFF7B9FE08B010BD00BFBC140020FE
:1026E000808C0308728D0308F0B5594DA7B008AC73
:1026F0000FCD0FC40FCD0FC495E8030000264FF493
:10270000403384E80300012402274F2231460DF1B3
:102710004900504D0393CDE905660796ADF810606A
:102720008DF8126025F016FC21462A208DF84840CD
:102730008DF84D408DF852408DF857408DF85C4033
:102740008DF861408DF866408DF86B408DF87040D3
:102750008DF875408DF87A408DF87F408DF8844073
:102760008DF889408DF88E408DF8934003F0EEF897
:1027700021463A2003F0EAF8284604F06FFC0221D3
:102780004FF4B06003F0A0FD3246284632498DF880
:10279000177004F0E3FC0D230B9305238DF8233011
:1027A0004FF4017332462D498DF81900ADF82430ED
:1027B00000903B46284604F0EBFC40F20313ADF8D2
:1027C0000E3045F251030A9008AA284605A9ADF833
:1027D00048308DF811408DF84C4004F015FD284626
:1027E00012AA03A904F0D8FB1D4B0320D3F824231D
:1027F0002243C3F82423D3F8242342F48032C3F8BD
:1028000024230823EB606D6901F0B6F960B1154C23
:10281000154920681EF028FA1CF0FBFE1CF0FAFE99
:10282000124920681EF020FA032001F0A5F968B1D2
:102830000C4C0D4920681EF017FA1CF0EAFE1CF043
:10284000E9FE2A460A4920681EF00EFA27B0F0BDBC
:10285000D88F030800400059002D310140420F007D
:1028600000C00350BC140020808C0308AE8D030808
:10287000B88D03080368A54A23F47F4323F00703B8
:10288000934273B500F0648102F18072934200F0CC
:10289000D3809F4A934240F06F81032001F06CF98E
:1028A00060B19C4C9C4920681EF0DEF91CF0B1FE22
:1028B0001CF0B0FE994920681EF0D6F9984E3046BB
:1028C0000FF02EFF054618B3924C964920681EF073
:1028D000CBF9954920681EF0C7F91CF09AFE1CF050
:1028E00099FE924B924A0093924940F2F31320686A
:1028F0001EF0BAF990492B46904A20681EF0B4F9B0
:10290000284601F07FF98E4920681EF0ADF9FEE7F8
:10291000022130780FF054FF044618B37D4D8149F1
:1029200028681EF0A1F9804928681EF09DF91CF066
:1029300070FE1CF06FFE7D4B7D4A00937D4940F296
:10294000F71328681EF090F97B4923467B4A2868D4
:102950001EF08AF9204601F055F9794928681EF0E1
:1029600083F9FEE7A02200900346114630780FF06D
:10297000EFFE054618B3674C6A4920681EF074F9EB
:10298000694920681EF070F91CF043FE1CF042FEFD
:10299000664B674A009367494FF4FF7320681EF047
:1029A00063F965492B46654A20681EF05DF92846A3
:1029B00001F028F9624920681EF056F9FEE702216D
:1029C00030780FF011FF0546032001F0D5F860B113
:1029D000504C514920681EF047F91CF01AFE1CF0BB
:1029E00019FE584920681EF03FF9002D00F0C48000
:1029F000484C4C4920681EF037F94B4920681EF0BE
:102A000033F91CF006FE1CF005FE484B484A0093C3
:102A100048494FF4017320681EF026F946492B46B9
:102A2000464A20681EF020F9284601F0EBF8444998
:102A300020681EF019F9FEE7032001F09DF860B14F
:102A4000344C354920681EF00FF91CF0E2FD1CF0F3
:102A5000E1FD3D4920681EF007F90022304C3B4B58
:102A6000022120781A700FF0ABFE054618B3294CEE
:102A70002C4920681EF0F8F82B4920681EF0F4F865
:102A80001CF0C7FD1CF0C6FD284B294A00932949BC
:102A900040F20E2320681EF0E7F827492B46274A0C
:102AA00020681EF0E1F8284601F0ACF824492068BF
:102AB0001EF0DAF8FEE7022120780FF095FE0546B9
:102AC000002859D0134C174920681EF0CDF816493C
:102AD00020681EF0C9F81CF09CFD1CF09BFD134BF8
:102AE000134A0093134940F2132320681EF0BCF8E8
:102AF00011492B46114A20681EF0B6F8284601F00D
:102B000081F80F4920681EF0AFF8FEE7A00006002C
:102B1000A0000100BC140020808C0308CD8D0308A8
:102B2000600D00207E8E0308FA8D0308AA8F03082B
:102B3000FF8D0308088E0308888C0308858C030822
:102B4000148E0308258E03083A8E0308032D0020F7
:102B5000032001F011F860B1084C094920681EF00B
:102B600083F81CF056FD1CF055FD064920681EF048
:102B70007BF80122044B1A7002B070BDBC14002017
:102B8000808C0308698E0308032D00200023042293
:102B900010B51146184604F06BF9002304220221F7
:102BA000032004F065F9002301200422194604F0F3
:102BB0005FF9032000F0E0FF60B11B4C1B49206867
:102BC0001EF052F81CF025FD1CF024FD1849206869
:102BD0001EF04AF84FF47A7007F0CCFF042201236C
:102BE0001146002004F044F90123042202210320AD
:102BF00004F03EF9012304221846002104F038F9BC
:102C0000032000F0B9FF70B1074C084920681EF09E
:102C10002BF81CF0FEFC1CF0FDFC20680549BDE80B
:102C200010401EF021B810BDBC140020808C030899
:102C3000808E0308998E0308002307B54FF47A713C
:102C4000CDE90033034A044807F0CEFF03B05DF836
:102C500004FB00BF2D240108C813002008B5034859
:102C600007F0DCFE1022024B1A6408BDC8130020D6
:102C700000E0035010B51CF0C9FC01F0E9FBB2EE16
:102C8000040A01F017FC01F0B9FC032000F074FF06
:102C900060B1124C124920681DF0E6FF1CF0B9FC2F
:102CA0001CF0B8FC0F4920681DF0DEFFFFF76EFF37
:102CB000032000F061FF60B1084C094920681DF055
:102CC000D3FF1CF0A6FC1CF0A5FC074920681DF0F2
:102CD000CBFFBDE81040FFF707BD00BFBC140020CC
:102CE000808C0308B38E0308CD8E030870B52DEDDC
:102CF000028B914B8AB01C78002C00F00681FFF704
:102D0000ADFF002304221846114604F0B1F81EF06E
:102D1000FEF98A4D2B68C41A0A2007F019FF844275
:102D2000C0F006811EF0F3F9854928604B699B05C8
:102D300019D4022000F020FF60B1824C8249206843
:102D40001DF092FF1CF065FC1CF064FC7F492068BC
:102D50001DF08AFFFFF78AFC0AB0BDEC028BBDE8CC
:102D60007040FFF7B1BB08A81DF04EF90320089C86
:102D700000F002FF68B1734D754928681DF074FFBB
:102D80001CF047FC1CF046FC2246724928681DF0E6
:102D90006BFF07EE904A704870490278704D0B68DF
:102DA00055F8226023449B1BDFED6E6A0B60F8EE42
:102DB000677A642167EEA67A9FED6B7AB3FBF1F335
:102DC00087EE878A07EE903AF8EEE77A67EEA67A02
:102DD000C7EE878AFCEEE87A45F822400132B2FB62
:102DE000F1F517EE903A01FB15229DB2B5F5EB7F98
:102DF00002705AD9002304221946012004F038F841
:102E0000042201231146002004F032F8B0EE480AF3
:102E1000FFF7FEFBBCEEC00A10EE103A03209CB296
:102E200000F0AAFED0B1474E494930681DF01CFFA2
:102E30001CF0EFFB1CF0EEFB18EE900A1AF02CFBD6
:102E4000CDE9040118EE100A02951AF025FBCDE930
:102E500000012246454930681DF006FF022200218C
:102E6000202007ABADF81C400FF002FD05460028FE
:102E700039D10221202007AA0FF054FD0546F8B9E8
:102E8000032000F079FE00283FF464AF2D4D304957
:102E900028681DF0E9FE1CF0BCFB1CF0BBFB2246C1
:102EA000334928681DF0E0FE54E701230422184648
:102EB000002103F0DDFF0023042218461146A3E79A
:102EC000012000F059FE00283FF444AF1D4C294971
:102ED00020681DF0C9FE1CF09CFB1CF09BFB2A46E1
:102EE00025492068DEE7012000F046FE00283FF477
:102EF00031AF144C1F4920681DF0B6FE1CF089FB51
:102F00001CF088FB2A461D49EBE7042220461146A7
:102F1000012303F0ADFF012304222146184603F0EC
:102F2000A7FF0AB0BDEC028BBDE87040FFF784BE7E
:102F30000AB0BDEC028B70BD032D0020C41300202D
:102F400000400059BC140020DD8E0308E28E030807
:102F5000808C0308048F0308012D0020C01300207B
:102F60003012002000404E4500007A44168F0308BE
:102F70004B8F0308B38C0308698F03088B8F0308FA
:102F800030B503687C4A23F47F4323F00703934260
:102F900089B040F0EE80082200211220774B0FF01C
:102FA00067FC044610B3764D764928681DF05CFE38
:102FB000754928681DF058FE1CF02BFB1CF02AFBFD
:102FC000724B734A009373493D2328681DF04CFEF1
:102FD00071492346714A28681DF046FE204600F0DC
:102FE00011FE6F4928681DF03FFEFEE701460322EF
:102FF00014206C4B0FF03CFC044610B3604D61494B
:1030000028681DF031FE604928681DF02DFE1CF077
:1030100000FB1CF0FFFA5D4B5D4A00935D494B23BA
:1030200028681DF021FE5C4923465C4A28681DF093
:103030001BFE204600F0E6FD594928681DF014FEED
:10304000FEE7014605221620574B0FF011FC0546FE
:1030500010B34B4C4B4920681DF006FE4A492068CE
:103060001DF002FE1CF0D5FA1CF0D4FA474B484A7A
:1030700000934849592320681DF0F6FD46492B4628
:10308000464A20681DF0F0FD284600F0BBFD44498B
:1030900020681DF0E9FDFEE70DF10F0104A80FF017
:1030A0008FFC044610B3364D364928681DF0DCFD10
:1030B000354928681DF0D8FD1CF0ABFA1CF0AAFABF
:1030C000324B334A00933349642328681DF0CCFD0A
:1030D00031492346314A28681DF0C6FD204600F0DC
:1030E00091FD2F4928681DF0BFFDFEE7BDF81430A3
:1030F00001465BBAADF818309DF8133008228DF800
:103100001A30FF238DF81B30FE238DF81C309DF8FC
:10311000123018208DF81D30BDF810305BBAADF8B4
:103120001E3006AB0FF0A4FB054610B3144C154936
:1031300020681DF099FD144920681DF095FD1CF0D4
:1031400068FA1CF067FA114B114A00931149742375
:1031500020681DF089FD10492B46104A20681DF09B
:1031600083FD284600F04EFD0D4920681DF07CFDD2
:10317000FEE709B030BD00BFA000010000900308C9
:10318000BC1400207E8E0308FA8D03083B900308D0
:1031900009900308088E0308888C0308858C0308AF
:1031A000148E0308319003083590030810B5274C9E
:1031B00002F00EFE03F066F8236F23F0070343F0DE
:1031C000030323671CF083FE214B00209B6ADB0175
:1031D0005EBF4FF480321F4B9A62D4F8203123F047
:1031E000070343F00203C4F82031D4F8283123F058
:1031F000070343F00203C4F82831D4F8403123F028
:10320000030343F00203C4F84031D4F8603123F0E3
:10321000030343F00203C4F86031D4F8403223F0D2
:10322000030343F00203C4F84032D4F8003223F021
:10323000070343F00203C4F80032D4F8083223F045
:10324000070343F00203C4F8083210BD00800050A9
:103250000040005A0060005A30B5204D95B00DACCA
:103260000FCD0FC495E80700292384E807001C4A06
:103270000024CDE902230523CDE904448DF8113063
:10328000062321460E220DF126008DF813300694F8
:1032900024F060FE4FF48021124B0DAACDE90713F4
:1032A00009238DF824300A238DF825300E4B07A909
:1032B0000A9320230B9301238DF831300B4B0C48DC
:1032C000009302AB06F026FC054621464FF4E130A0
:1032D0001CF0EEF9284615B030BD00BFDC940308A1
:1032E00000C0055024C00550052D00200414002006
:1032F00058140020831E012B10B512D8012922D8A2
:10330000114B04221B6C05210020C3F3401303F072
:10331000AFFD0E4B1B681868A8B1BDE81040436AAA
:1033200018478B1E012B0CD801280CD8BDE8104083
:103330000022054B05211B6C1046C3F3401303F01C
:1033400097BD0129E5D910BD00C00350C00A002077
:1033500008B50449044806F0E7FEBDE80840FFF759
:103360007BBF00BFC40A00207C14002001481DF070
:10337000E9BD00BF58140020014B1A6A18681047B5
:103380005814002001481CF0DCBC00BFF89403086E
:1033900001481CF017BD00BF10950308102337B576
:1033A0008DF80430214B224D1B788DF80530214BD0
:1033B0001B788DF806302B78012B22D0022B22D0DF
:1033C000D3B91D4803223021007801AB0FF094FAE5
:1033D000044698B1012000F0CFFB68B1174D1849A1
:1033E00028681DF041FC1CF014F91CF013F922466A
:1033F000144928681DF038FC03B030BD01232B7040
:10340000FAE70223FBE7012000F0B6FB0028F3D027
:103410000A4C0B4920681DF027FC1CF0FAF81CF040
:10342000F9F8094920681DF01FFCE5E7272D002069
:10343000252D0020262D00202C2D0020BC1400203E
:10344000B38C0308289503085E95030838B52A4B0A
:103450001B78002B4ED0294C294D214628461CF0C4
:10346000C9F848B1112845D147F6FF732B80238056
:103470006B806380AB80A380224B1B78D3B1224842
:1034800006222A211D4B00780FF020FA044688B14D
:10349000012000F071FB68B11C4D1D4928681DF02A
:1034A000E3FB1CF0B6F81CF0B5F822461949286871
:1034B0001DF0DAFB184B1B78E3B1134806222D21CF
:1034C0000F4B00780FF002FA044698B1012000F08B
:1034D00053FB78B10D4D0E4928681DF0C5FB1CF05B
:1034E00098F81CF097F8224628680A49BDE8384049
:1034F0001DF0BABB38BD00BF2B2D0020A62C00202C
:10350000A02C00202A2D00202C2D0020BC140020EF
:10351000B38C030889950308292D0020084908B5B4
:103520000978084B1A7849B90749087800F0010072
:103530009042187001D01CF061F808BD0120F5E739
:103540002A2D00202B2D0020292D00200368564A0B
:1035500023F47F4323F00703934273B504464DD011
:1035600002F18072934211D0A2F10172934243D1D1
:1035700000234E4A13704E4A13704E4A13704E4A3F
:10358000137002B0BDE87040FFF7C8BFC379012BCC
:1035900022D1B0F805302A2B08D10389474A017996
:1035A000003B117018BF0123404AE9E72D2B0AD0D8
:1035B000302B21D10389414A0179003B117018BF9A
:1035C00001233C4ADCE703893C4A0179003B117046
:1035D00018BF0123364AD3E7022B0DD1B0F80530CE
:1035E000302B09D1344C2378022B03D100232370D4
:1035F000FFF7D4FE0023237002B070BDB0F8053091
:10360000302BF9D1837A012B43D12A4B1B78002B25
:1036100041D0C57A2A4B2B4E1D7002239D42337038
:1036200034D0642D32D0012D02D11BF0E5FF58B308
:1036300000263246B4F8051020790FF02FF9054620
:1036400058B3214C214920681DF00EFB2049206809
:103650001DF00AFB1BF0DDFF1BF0DCFF1D4B1E4ABB
:1036600000931E49D42320681DF0FEFA1C492B4606
:103670001C4A20681DF0F8FA284600F0C3FA1A49DF
:1036800020681DF0F1FAFEE73570D1E701233370B1
:10369000CEE70D26CDE78126CBE7002EACD102B0D8
:1036A000BDE87040FFF77ABEA0000A022A2D002074
:1036B000292D0020282D0020252D00202C2D002034
:1036C000272D0020262D0020BC1400207E8E03080C
:1036D000FA8D030830960308C1950308088E030885
:1036E000888C0308858C0308148E030870B5036862
:1036F000894A23F47F4323F0070393428EB040F0BE
:10370000088106AA1446854B03F118061546186869
:103710005968083303C5B3422A46F7D118689B8815
:103720002860AB807E480EF0FBFF054610B37D4C51
:103730007D4920681DF098FA7C4920681DF094FAB4
:103740001BF067FF1BF066FF794B7A4A00937A49BA
:103750007E2320681DF088FA78492B46784A206835
:103760001DF082FA284600F04DFA764920681DF0D7
:103770007BFAFEE70DF1160300930DF1120205AB83
:1037800004A90DF10E000FF0E3F8054610B3654CE7
:10379000654920681DF068FA644920681DF064FAE4
:1037A0001BF037FF1BF036FF614B624A0093624902
:1037B000812320681DF058FA60492B46604A206832
:1037C0001DF052FA284600F01DFA5E4920681DF0EF
:1037D0004BFAFEE7BDF914300A22002B37DD053322
:1037E000B3FBF2F3293B9AB21BB27F2B3ADC53B204
:1037F0004B4D8DF835301E222346002128780EF0DF
:10380000C9FF044600282FD0464D474928681DF0BF
:103810002BFA464928681DF027FA1BF0FAFE1BF028
:10382000F9FE434B434A00934349932328681DF014
:103830001BFA42492346424A28681DF015FA2046E1
:1038400000F0E0F93F4928681DF00EFAFEE7053B5D
:1038500093FBF2F3293B9AB21BB28033C7DA6FF0C5
:103860007F03C5E77F23C3E7A022009003461146EC
:1038700028780EF06DFF044610B32A4D2A492868B7
:103880001DF0F2F9294928681DF0EEF91BF0C1FE80
:103890001BF0C0FE264B274A009327499C2328682B
:1038A0001DF0E2F925492346254A28681DF0DCF978
:1038B000204600F0A7F9234928681DF0D5F9FEE756
:1038C000014628780EF090FF054610B3154C1649B6
:1038D00020681DF0C9F9154920681DF0C5F91BF0D5
:1038E00098FE1BF097FE124B124A00931249A12337
:1038F00020681DF0B9F911492B46114A20681DF0C6
:10390000B3F9284600F07EF90E4920681DF0ACF9A5
:10391000FEE70EB070BD00BFA0000100BA9603081C
:10392000640D0020BC1400207E8E0308FA8D03086D
:10393000A296030842960308088E0308888C0308A1
:10394000858C0308148E0308184B37B583422AD19F
:10395000174B1B783BB3C8B20EF078FF054610B387
:10396000144C154920681DF07FF9144920681DF09A
:103970007BF91BF04EFE1BF04DFE114B114A0093DC
:103980001149852320681DF06FF910492B46104A14
:1039900020681DF069F9284600F034F90D492068C7
:1039A0001DF062F9FEE703B030BD00BF84140020B3
:1039B0002D2D0020BC1400207E8E0308FA8D0308F4
:1039C0004A970308D8960308088E0308888C0308D2
:1039D000858C0308148E030830B500250368584A07
:1039E00023F47F4323F0070385B0934204460295F6
:1039F000ADF80C507ED002F5802293420ED0A2F199
:103A00008272934240F09A804E4B1B78002B00F05C
:103A1000958005B0BDE830401DF0F6BBB0F805302C
:103A2000372B40F08B80FF2304A91A4611E90300CD
:103A30001BF0E5FD012814BF41F2FC15414B05F0D8
:103A4000FC0208BF1870372120790EF027FF0546C9
:103A500010B33D4C3D4920681DF006F93C492068F3
:103A60001DF002F91BF0D5FD1BF0D4FD394B3A4A8D
:103A700000933A49592320681DF0F6F838492B463F
:103A8000384A20681DF0F0F8284600F0BBF83649A7
:103A900020681DF0E9F8FEE7344900902379344AA4
:103AA0000968344800F008F90546002846D0264C3D
:103AB000264920681DF0D8F8254920681DF0D4F863
:103AC0001BF0A7FD1BF0A6FD224B234A00932349C0
:103AD000622320681DF0C8F821492B46214A20683E
:103AE0001DF0C2F8284600F08DF81F4920681DF02F
:103AF000BBF8FEE7B0F80530B7EE047A07EE903A6F
:103B0000F8EE677AB0F8073067EE877A013307EE90
:103B1000103AB8EEC77A67EE877AB1EE047A67EEAC
:103B2000877AFAFE677AFCEEE77A17EE903AB3F5F9
:103B30007A7F38BF4FF47A730C4A136005B030BDFA
:103B4000A00006022D2D0020BC1400207E8E03084C
:103B5000FA8D030859970308D8960308088E0308BE
:103B6000888C0308858C0308148E0308CC0A002077
:103B700049390108841400200B4B02461B7883B19D
:103B80000A4B1B78834234BF00200120084B1B786E
:103B900033B1084B1B78134113F0010F08BF00200D
:103BA00070470120F2E700BF670D0020660D00207E
:103BB0002E2D0020650D0020012208B5074B1A703C
:103BC0000022074B1A700422064B1A701F22064B64
:103BD0001A7005F09BFD054B186008BD670D0020AD
:103BE0002E2D0020660D0020650D0020BC14002045
:103BF000024B034918681DF037B800BFBC14002001
:103C00007997030870B50C4C0C49064620681DF0E6
:103C10002BF805F07BFD0546206805F06BFD30466E
:103C2000FFF7E6FF284605F065FD20680449BDE87A
:103C300070401DF019B800BFBC1400207B9703082A
:103C40007D97030838B505461CF05DF900230B4A43
:103C500014685CB1AC4206D1A96A6BB199621CF0E0
:103C600058F9012007E02346A46AF2E7002DF3D0BB
:103C70001CF04FF9204638BD1160F0E7C014002059
:103C800010B5044698B106F0C9FE2046FFF7DAFFEA
:103C900010B194F82C300BB9002010BD1CF033F992
:103CA000044A1368013B13601CF033F9F4E7222047
:103CB000F3E700BFC41400202DE9F04385B00546AA
:103CC000914698460E469DF8307009B9002F5CD198
:103CD0002846FFF7D5FF0446002836D185F82C008A
:103CE000686306F0BDFF864233D906F02BFF2146FC
:103CF000844640F2E7304FF47A720023E6FB0C0171
:103D000019F072FC4FF0FF32002319F06DFC2B46C6
:103D1000E88611462846CDE900441D4A1DF0D2F937
:103D2000044690B9C5E9089885F82D702E631CF0FB
:103D3000EAF8184A136833B31A469B6A002BFBD182
:103D400095620023AB621CF0E4F8204605B0BDE8A4
:103D5000F08347B12B4631462846CDE900440C4A52
:103D600006F042FFDCE7304603A906F01FFF0446D9
:103D70000028EAD12B462846CDE90077044A03996A
:103D80001DF07CF9CCE71560DBE72124DDE700BFFF
:103D9000993D0108C014002091F82C3013B50C4651
:103DA00083B98B8ECA8E93420ED243B9CDE90033CC
:103DB00020460B46104A4FF0FF311DF043F9A38E09
:103DC0000133A38602B010BD52B191F82D307BB102
:103DD00001230093D1E908232046096BFFF76CFF0C
:103DE0000123064A84F82C30136801331360E9E795
:103DF000084606F013FEF3E7993D0108C4140020BD
:103E00002DE9F041144E336823B34FF00008134FEF
:103E10001CF079F805463C6824B92846BDE8F04115
:103E20001CF077B894F82C3093B1336884F82C8068
:103E3000013B336094F82D3013B92046FFF702FFA1
:103E400028461CF066F8D4E9083120469847DFE799
:103E5000A46AE1E7BDE8F081C4140020C01400208A
:103E6000034B1B68002B14BF04200120704700BFC8
:103E7000C4140020024B1868B0FA80F04009704763
:103E8000C4140020202808B513DC032804DC013802
:103E9000012806D90E200BE0094B0438C340DB078C
:103EA000F8D5012304220921022002F0E1FF0020BD
:103EB00008BD4028EED1012304220821F4E700BF09
:103EC0001100001007B508201BF065FF02238DF8D4
:103ED0000030054B684601931BF0AEFB082003B091
:103EE0005DF804EB1BF062BF006A181070B5144651
:103EF00080220C4B0D461A6440EA02010A481CF06D
:103F000050F8094E2544AC4204D18022074B0020D2
:103F10001A6470BD002130461CF043F804F8010B10
:103F2000F1E700BF00E0035000000A5000D003504A
:103F3000F8B580260D46094C094F04F500531E6460
:103F400000F07F0138461CF02CF804F58054294617
:103F500038461CF026F800202664F8BD00C0035047
:103F600000000A5070B5264C8EB0264601AD0FCE2B
:103F700014340FC50FCC06AD0FC594E80F0085E8CB
:103F80000F00204B0121039306AB05934FF4807380
:103F90005720ADF81C3001F0D9FC01213A2001F086
:103FA000D5FC002304220321022002F061FF02213C
:103FB00000230846012202F05BFF002304220121B6
:103FC000022002F055FF012304220721002002F005
:103FD0004FFF0D4801A902F029FE0C4B0C4A0020AE
:103FE000C3F8CC244FF00212C3F8C424A2F58032E7
:103FF000C3F8C8241C22C3F8B4240EB070BD00BF9F
:1040000080970308A05A320000000A5000C00350F5
:104010000200030010B52DED028B9FED188AB7EE5C
:10402000007AC8EE007A77EEC77A9FED157AF4EE43
:10403000C77AF1EE10FA82B019DCF5EEC07AF1EE33
:1040400010FA17D4FCEEE77ACDED017A9DF8044022
:1040500019202146FFF76CFF631C00EE103AB8EE02
:10406000C00A88EE000A02B0BDEC028B10BDF0EE73
:10407000477AE7E7DFED037AE4E700BF00007A4420
:1040800000007F430000000013B5044601211B20FF
:104090000DF10702FFF72AFF9DF8073003F0180320
:1040A000102B0CD004D863B1082B0CD0012004E0F5
:1040B000182BFBD1054B0020236002B010BD044B30
:1040C000F9E7044BF7E7044BF5E700BF00007A3D42
:1040D0000000FA3C0000FA3B00007A3C01212DE987
:1040E000F043002285B0804608461BF0F8FB9FEDA8
:1040F0006D0AFFF78FFF05201BF031FB00201BF03E
:10410000DBFB6846FFF7C0FF322006F033FD40219D
:104110001A20FFF70DFF44216A20FFF709FF7821DD
:104120002320FFF705FF052006F024FD0221722061
:1041300001AAFFF7DBFEBDF804305BBA9BB2B3F512
:10414000FC7FF0D37822002123201BF0CCFA02213F
:10415000722001AAFFF7CAFE4FF000090C23BDF838
:1041600004704C467FBABFB2B7FBF3F74D464E46DC
:104170001FFA89F3BB4278D396FBF7F607EE906AF5
:104180009DED007AF8EEE77A95FBF7F567EE877A12
:10419000C8ED007A07EE905AF8EEE77A94FBF7F450
:1041A00067EE877AC8ED017A07EE904AF8EEE77A73
:1041B00067EE877A01AAC8ED027A02211320FFF781
:1041C00095FE9DF904309DF8058001AA0221152075
:1041D00048EA0328FFF78AFE9DF904309DF8057030
:1041E00001AA0221172047EA0327FFF77FFE002ECE
:1041F0009DF904209DF80530B8BF0336002DA8EBCB
:10420000A606B8BF0335002C43EA0223B8BF033427
:10421000C6F307211320A3EBA404A7EBA505FFF722
:1042200087FEF1B21420FFF783FEC5F307211520A6
:10423000FFF77EFEE9B21620FFF77AFEC4F30721EE
:104240001720FFF775FEE1B21820FFF771FE40223C
:1042500000216A201BF047FA0022114610461BF08D
:104260003EFB002005B0BDE8F08301AA0C217420BC
:10427000FFF73CFE9DF90A209DF80B3009F101097A
:1042800043EA02231E449DF90C209DF80D3043EAB9
:1042900002231D449DF90E209DF80F3043EA0223AE
:1042A0001C4465E700007A44B7EE007AC7EE007A56
:1042B0009FED057AC0ED157AC7EE007A80ED140AFD
:1042C000C0ED167A704700BF35FA8E3CF0B52DED83
:1042D000048B0F4600F15C050446D0ED098A90ED91
:1042E0000A9AD0ED0B9A85B028461646B0EE408A61
:1042F0001BF09CFC002F48D094ED097ADFED386A62
:10430000B4EEE67AF1EE10FA3FDBDFED367AB4EE8A
:10431000E77AF1EE10FA38D894ED0A7AB4EEE67A3C
:10432000F1EE10FA31DBB4EEE77AF1EE10FA2CD8A8
:10433000F5EEC09AF1EE10FAF1EE688AB1EE490A94
:1043400004F1680725DB1AF091F88DED010AB0EE53
:10435000680A1AF08BF8B1EE400A28463A4601A9DD
:104360008DED020A8DED038A1BF098FC28461BF0A8
:1043700050FC0EB900236366D4ED147AB6EE000A41
:10438000284680EE270A1BF069FC05B0BDEC048BC3
:10439000F0BD1AF06BF89FED149A39EE400A8DEDDE
:1043A000010AB0EE680A1AF061F838EE098AB1EE37
:1043B000400A01A88DED020A8DED038A1BF029FC4D
:1043C0003A46284601A91BF069FC28461BF021FC4F
:1043D000D4ED187AF1EE677AC4ED187AC9E700BF18
:1043E000DA1B7CBFDA1B7C3FDB0F494070B504460B
:1043F00000F05AF80128054626D104F1240630467B
:1044000000F016F93146204604F144061BF08AFB01
:10441000304600F01BF9D4ED117AF1EE677AC4ED65
:10442000117AD4ED127AF1EE677A31462046C4ED66
:10443000127A1BF093FB29462046BDE870409FEDA1
:10444000030A0022FFF742BF70BD00BF000000005A
:104450007FB502250E4E0F4835701BF041FB1BF057
:104460005AF9044660B90DF103001BF06BFA0446DB
:1044700030B9032301A83370FFF730FE044610B1B2
:104480001BF025F900252046357004B070BD00BF33
:104490002F2D0020C81400200022024B1A701BF0A0
:1044A00016B900BF2F2D0020014B1878704700BFB0
:1044B0002F2D002070B501212DED028B0223B0EECF
:1044C000408A1C4E82B00022084633701BF007FA67
:1044D000B0EE480AFFF79EFD174D082085ED000A53
:1044E0001BF04DF903201BF03AF900201BF0D1F925
:1044F00000201BF0E1F9322006F03CFB0F4C0021BC
:1045000001201BF005FA01A81BF010FA95ED000A36
:1045100020461BF004FB95ED000A2046FFF7C4FE81
:1045200020461BF037FB0123337002B0BDEC028B39
:1045300070BD00BF2F2D00203C150020C8140020A6
:104540001A4AD36B6BB392ED0C6A9FED197A07EEA2
:10455000903A26EE076AF8EE677AC6EE276A92ED81
:104560000D6AFDEEE66A26EE076A16EE903AC6EE92
:10457000276AFDEEE66A038016EE903AD2ED0E6AE7
:1045800066EE876A86EEA77ABDEEC77A438017EE9D
:10459000103A838000231363536393630023D36330
:1045A0007047038043808380704700BFC814002099
:1045B00000007A440F4B9FED107AD3ED1A7A67EE24
:1045C000877AFDEEE77A17EE902AD3ED1B7A67EE35
:1045D000877AFDEEE77A028017EE902AD3ED1C7AF7
:1045E00067EE877AFDEEE77A17EE903A4280838095
:1045F000704700BFC8140020A00CB345002110B5BF
:1046000008461BF085F9FFF747FFFFF721FF044637
:10461000034B93ED000AFFF74DFF204610BD00BF8E
:104620003C1500200148FFF7E1BE00BFC814002080
:10463000054A1278012A04D000220260426082609A
:1046400070471BF0C6B800BF2F2D0020054A127816
:10465000012A04D0002202604260826070471BF091
:10466000E8B800BF2F2D00209FED060A00F10C03D3
:10467000B0EC017AF1EC017A984207EE270AF7D103
:10468000704700BF000000002DE9F041424D88B0A6
:1046900001AC0FCD0FC495E8070084E807000124A2
:1046A00001213A2001F052F93C4E0121292001F06C
:1046B0004DF93B4B304601A903938DF8124003F0AE
:1046C00011FA234604220321022002F0D1FB022129
:1046D00022460846002302F0CBFB23462146042253
:1046E000022002F0C5FB042200212346022002F032
:1046F000BFFB2C4D2C4B05F50058C5F834374FF057
:104700000213C5F8303703F58033C5F838371C235A
:104710004FF44870C5F8203706F090FC05F5805737
:104720001420C8F8A04006F089FC2320C7F8A04058
:1047300006F084FCB9213046C8F8A0401BF0E4FC28
:10474000002303211A460220C7F8A04002F090FB84
:10475000002302211A46084602F08AFB234621461E
:104760000022022002F084FB002223461146022090
:1047700002F07EFB304603F033F900212920C5F812
:104780003417C5F83017C5F83817C5F8201701F0E9
:10479000DDF808B0BDE8F081B497030800C005500B
:1047A00000127A0000C00350020001000348044ACE
:1047B0000449121A92101BF0AABA00BFF0F30308C2
:1047C000F0F303081C2E002008B500F02FF8FFF7C7
:1047D000EDFF124B12498B4212D30020114B1249AC
:1047E0008B4218D3FDF7E8FD186850F8224058684E
:1047F00040F82240013298688242F5D30C33EAE750
:104800000022F8E71C6844F8220001325C68A242EA
:10481000F8D30833E4E70022F8E700BF6CEF0308A1
:1048200078EF030878EF030878EF03084FF480412E
:104830004FF0FF30114B124A10B59A60D3F8882020
:1048400042F47002C3F888200E4A91660E4901F5C1
:10485000005210660D4850660220C3F8D000BFF326
:104860004F8FBFF36F8F01244FF440330848C0F8D7
:104870008041D36004600B6110BD00BF00ED00E01B
:10488000002001080090005000800044F7FF37002E
:1048900000E100E0014B1868704700BFD40A002017
:1048A000084B1B6F03F00703022B04D0032B05D02A
:1048B000012B05D0FEE7044B18687047034BFBE75C
:1048C0000348704700800050D40A0020DC0A002012
:1048D000002D310108B5FFF7E3FF054B1B6FC3F354
:1048E00003330133B0FBF3F0024B186008BD00BF87
:1048F00000800050D00A00200048704700B4C40473
:10490000014B1868704700BFDC0A0020054B186097
:10491000054B1B6F03F00703032B01D1FFF7DABF31
:10492000704700BFDC0A002000800050004870473C
:10493000002D31014FF0B4439868C0F304400C28B7
:104940000AD8DFE800F00B0909090909072119094C
:104950001B1D1F000F487047002070479B6803F025
:104960004073B3F1807F11D0B3F1007F10D00A4AB9
:10497000002B08BF1046704708487047084870472A
:10498000084870470848704708487047084870470B
:1049900008487047405DC60000093D00C0EA21019B
:1049A00080BA8C010048E801005A62020024F40039
:1049B00080841E0040420F00014B1868704700BF02
:1049C000D80A00204FF000639B6A10B503F17842CB
:1049D000B2F5903F11D21968094A91420DD1094CA4
:1049E000227812F0FD0F01D0002010BDDB6998473E
:1049F0000028FAD101232370F6E74FF48170F4E721
:104A000007B0CD5E302D00204FF00053074A1A60EA
:104A1000BFF34F8F0649074BCA6802F4E0621343A5
:104A2000CB60BFF34F8F00BFFDE700BF02020FF066
:104A300000ED00E00400FA050346054A0549106848
:104A400003448B428CBF4FF0FF301360704700BFB0
:104A5000E00A00200000042010B40A680846137819
:104A6000022B10D014213023147913FB04130749AF
:104A70005B585179CB40DB4303F0010313705DF8C1
:104A8000044B1BF063B95DF8044B704730C0035012
:104A9000F7B50468012105463A2000F057FF0023CE
:104AA00001226179207902F0E3F91422302321797F
:104AB00013FB01231D4A99586379D940C943A3794F
:104AC00001F00101022B217017D100F0BDFB184A43
:104AD0002B466179207900F0E1FBFF2802466079DE
:104AE0000ED12A46124900F015FC012302466179D5
:104AF0002079CDE9003302F061F9002003B0F0BD68
:104B000001262779002301460096384602F018FA5C
:104B10002A460749607900F0FDFB002361790246CF
:104B20002079009301963346E5E700BF30C003507B
:104B3000594A010802681378022B24D0142130232B
:104B4000107913FB001310495B585179CB409179D0
:104B500003F00103012912D1508843EA40034FF6C4
:104B6000E07063F03F039BB2834202D11170538027
:104B700070474FF6DF718B42F9D10021F6E711B98A
:104B800083F001031370704730C0035008B5012152
:104B90003A2000F0DBFE012304220321002002F072
:104BA00067F900201BF016FA0122354B3549C3F88E
:104BB00044244FF40022A3F550335A66324BD3F805
:104BC000FC20D20146D4D1F8803023F0030343F017
:104BD0000203C1F880304FF4607000F0D1FE2A4B20
:104BE00000F5D520D3F8F02000F2FC4042F001029D
:104BF000C3F8F020D3F8FC2042F08072C3F8FC2008
:104C0000224AA3F55D431A60214B0222B0FBF3F068
:104C1000204B01381861C3F8F0204FF48072C3F8BC
:104C200004234FF060431C4A0020C3F8B02F1B4AF6
:104C3000C3F8802ED3F8002E42F48072C3F8002E01
:104C4000FF2283F82020D3F8002E22F48072C3F8CC
:104C5000002E08BDD3F8FC2022F08072C3F8FC209F
:104C6000D1F8802022F0030242F00202C1F8802035
:104C7000D3F8FC2042F08072C3F8FC20ABE700BF01
:104C800000D003500080005000ED00E0FF03004022
:104C9000F8590D00000004E055CEACC50900010034
:104CA0004FF06043D3F8802E30B5D20715D50124DC
:104CB0000B4D8440D5F8FC2042F08072C5F8FC20F2
:104CC000D3F8002E2243C3F8002E53F82020002AE8
:104CD000F0D003F82010002030BD1120FCE700BF09
:104CE00000ED00E010B5012243780178847830208F
:104CF0009A40054B00FB01331CB903F501531A60C0
:104D000010BD03F58253FAE700C0035010B501222D
:104D100043780178847830209A40054B00FB0133BA
:104D20001CB903F582531A6010BD03F50153FAE76D
:104D300000C003500122437801789A403023594340
:104D4000014B5A50704700BF40F0035010213023F0
:104D50000246007813FB001305495B585178CB409D
:104D600003F0010093780BB980F00100704700BF99
:104D700030C003502DE9F04F9A46564B85B01B7852
:104D800006460F461546DDF83C909DF844B0DDF828
:104D90005080002B00F09780072A00F296800E9B2F
:104DA000002B00F09280B9F1000F00F08E80129B72
:104DB000B3F5006F00F38980012803D1109B002B0D
:104DC00000F08380444B03EB05131B7B002B7ED04C
:104DD000424C10220021684623F0BCF804EB451435
:104DE0001022A7BB3946204623F0B4F843F2100343
:104DF0006380BBF1000F03D1E37843F00303E3705A
:104E0000364A0E9B02EB451CCCE90193129B6901CB
:104E1000581E9DF84C30C0F30A0003F003039B06B4
:104E200043EA001E53582E48012E00EA03004EEAC2
:104E30000003CDF800A0535017D0B8F1000F2ED1C9
:104E40009CF8023068F304138CF8023027E000214C
:104E5000204623F07FF84FF444736380BBF1000FCA
:104E6000CED1E37843F03003C9E713230CF1100EE1
:104E7000CCF80C309CE80F008EE80F006FF00301B7
:104E8000DCF81C20109B61F39F02012FCCF81C2042
:104E9000CCF8143003D1CCF81890CCF804300027AB
:104EA0000D4A290102EB051342F80180159A2846A4
:104EB0005A60694622469F605E7302F07FFC384666
:104EC00005B0BDE8F08F0748FAE70748F8E707485C
:104ED000F6E700BF312D00204016002040150020CD
:104EE0000F80FFF3028000F0018000F0078000F0E7
:104EF00038B5124B05461B78DBB1E0B11BF003F867
:104F00000F4A00231146147B54B92B6001251A0166
:104F100001EB03131D738C501AF0FBFF204638BDC4
:104F20000133082B02F11002EDD11AF0F2FF05480F
:104F3000F5E70548F3E70548F1E700BF312D00200C
:104F400040160020048000F0028000F0018000F094
:104F500038B51AF0D8FF002305460B4A147B6CB90C
:104F60000133082B02F11002F8D102F0C9FB074B04
:104F700028461C701AF0CDFF204603E028461AF0A0
:104F8000C8FF034838BD00BF40160020312D002067
:104F9000058000F00D4B10B51B78044693B107282F
:104FA00012D81AF0B0FF0A4B03EB04131A7B2AB194
:104FB00000241C731AF0ADFF204610BD1AF0A9FFA3
:104FC0000448FAE70448F8E70448F6E7312D0020E2
:104FD00040160020068000F0028000F0018000F002
:104FE000154B13B51868002301908DF804301AF0A2
:104FF0008AFF124B1C7824B11AF08BFF104802B0C4
:1050000010BD01221A701AF084FF0E4B01A81C7308
:105010001C7783F82C4083F83C4083F84C4083F89D
:105020005C4083F86C4083F87C4008238DF807309F
:1050300002F092FB2046E2E720980308312D002081
:10504000038000F0401600200A4A08B512785AB1D1
:1050500007280BD8084A02EB00131B7B43B1002141
:1050600002F06CFB002008BD0448FCE70448FAE7A6
:105070000448F8E7312D002040160020028000F09F
:10508000018000F0078000F00A4A08B512785AB192
:1050900007280BD8084A02EB00131B7B43B1012100
:1050A00002F04CFB002008BD0448FCE70448FAE786
:1050B0000448F8E7312D002040160020028000F05F
:1050C000018000F0078000F00A4A08B5127852B15A
:1050D00007280AD8084A02EB00131B7B3BB102F0F9
:1050E000B9FB002008BD0548FCE70548FAE705487C
:1050F000F8E700BF312D002040160020028000F0AC
:10510000018000F0078000F00D4B1B7893B1072859
:1051100012D889B10B4B03EB00131B7B73B10A4B05
:105120001A6D01238340134214BF01230023002082
:105130000B70704705487047054870470548704731
:10514000312D00204016002000000450028000F0A5
:10515000018000F0078000F00B4A10B512780C4671
:1051600062B107280CD859B1084A02EB00131B7B27
:1051700043B102F081FB2070002010BD0448FCE721
:105180000448FAE70448F8E7312D002040160020D3
:10519000028000F0018000F0078000F0184B2DE93C
:1051A000F0411F6D5B6D1F4000D5FEE70126002515
:1051B000144CDFF85880374218D02368C8F8506084
:1051C000A3B1A168284601316268A1609847637B5A
:1051D000012B0BD150B90C4B03EB45131A7B60F339
:1051E00041021A731A7F60F341021A770135082DC4
:1051F0004FEA460604F11004DDD1BDE8F08100BF9E
:1052000000000450401600204015002000200450EB
:1052100070B5044601250B4E04B970BD94FAA4F094
:10522000B0FA80F005FA00F306EB001224EA03045A
:105230005368002BF0D0117B11B191689847EBE7D0
:105240009847E9E7C016002008B5192001F09AFA3E
:1052500028B14FF00072074BC3F880211A601A2062
:1052600001F090FA28B14FF08062024BC3F8802120
:105270001A6008BD00E100E038B505460C461AF09A
:1052800042FE0022044B03EB05135C601A73BDE879
:1052900038401AF03EBE00BFC0160020F8B50446E4
:1052A0000D4617461E461AF02EFE1CB9052D1AD0C3
:1052B000FF2421E0012C05D1012D21D0032DF7D1B0
:1052C000042410E0022C07D1052D1BD0072D1BD084
:1052D000002DEDD1062406E0032CE9D1022D15D0D6
:1052E000052DE5D10A240A4904F1100301EB03114D
:1052F0000123C1E901760B731AF00BFE2046F8BDBD
:105300000324F0E70724EEE70824ECE70924EAE7A2
:10531000C0160020F8B505460E4617461AF0F3FDF4
:10532000134B2C46D3F8242405F0FC0122FA05F394
:10533000DB0712D500230133DBB2042B04D1FF2499
:105340001AF0E7FD2046F8BDEC1804F003040C4405
:1053500022FA04FC1CF0010FEDD1FF2CF0D0012249
:10536000044B03EB0413C3E901671A73E8E700BFBA
:1053700000C00350C0160020074BD3F82404D3F814
:10538000202403F50053104000F0553020F0502049
:10539000C3F82004FFF73CBF00C00350074BD3F80D
:1053A0002404D3F8202403F50053104000F0AA3061
:1053B00020F0A020C3F82004FFF72ABF00C003504C
:1053C000024B1968024B186810F0AABCE40A0020CE
:1053D000040B002070B59400224605460E4623F0CB
:1053E0002BFC431C0AD058B922463146284622F0ED
:1053F00087FD0028034808BF002070BD0248FCE775
:105400000248FAE710E000F021E000F024E000F0AC
:1054100010B5044623F014FC431C10D088B902F0E8
:10542000A5FA234620F003002044984201D1002031
:1054300010BD53F8042B0132F7D00348F8E70348B6
:10544000F6E70348F4E700BF0EE000F021E000F0CB
:1054500024E000F008B51AF04FFD014B186008BDBC
:10546000B01F0020014B18681AF04ABDB01F002081
:10547000044BD3F88420D206FBD4D3F88400C0F3C5
:10548000811070470040005038B5104B0546D3F8E6
:1054900080300C4603F00303022B0BD0032B0DD0FE
:1054A000012B0FD1FFF7FCF90E2305B1286004B1E1
:1054B000236038BDFFF73EFA0723F6E7FFF7EAF966
:1054C0000623F2E700231846EFE700BF00800050F4
:1054D00038B5184B0546D3F820010C4600F00700FC
:1054E000062823D8DFE800F0040A0E16121A1E0060
:1054F000012305B1286004B1236038BDFFF7CAF964
:105500000523F6E7FFF7FCF90323F2E7FFF712FAAA
:105510000723EEE7FFF70AFA0223EAE7FFF7BAF9F3
:105520000623E6E7FFF7ECF90423E2E70023184639
:10553000DFE700BF0080005038B5174B0546D3F8B1
:1055400028310C4603F00703013B052B20D8DFE888
:1055500003F003131B0F0B17FFF79CF9052305B18D
:10556000286004B1236038BDFFF794F90623F6E7FD
:10557000FFF7E0F90723F2E7FFF7C2F90323EEE7AD
:10558000FFF7BEF90423EAE7FFF7D0F90223E6E7C5
:1055900000231846E3E700BF0080005073B50D46B6
:1055A0000021114B0191D3F88041064604F0030419
:1055B000022C13D0032C0CD0012C13D101A8FFF71F
:1055C00087FF10240EB1019B336005B12C6002B03F
:1055D00070BDFFF7AFF907240190F3E7FFF7A6F9D5
:1055E0000190EFE70C46EDE700800050002337B54F
:1055F0000193164B0546D3F820320C4603F00703FF
:10560000042B21D8DFE803F0030B11161B00012344
:105610000DB1019A2A6004B1236003B030BD0021AE
:1056200001A8FFF789FF1223F2E7FFF783F90723A9
:105630000190EDE71AF078FB0A230190E8E7FFF705
:10564000BBF909230190E3E70023E1E70080005064
:1056500038B5104B0546D3F840310C4603F0030330
:10566000022B0BD0032B0DD0012B0FD11AF05CFBBA
:105670000A2305B1286004B1236038BDFFF79CF907
:105680000923F6E71AF053FB0C23F2E7012300206D
:10569000EFE700BF00800050002337B50193164BA1
:1056A0000546D3F860320C4603F00703013B032B99
:1056B0001FD8DFE803F0020E1914002101A8FFF73C
:1056C00007FF10230DB1019A2A6004B1236003B0D3
:1056D00030BD002101A8FFF7BBFF1123F2E7FFF760
:1056E00029F907230190EDE7FFF720F90223019044
:1056F000E8E70023E6E700BF00800050002337B54D
:105700000193164B0546D3F894320C4603F0070379
:10571000013B032B1FD8DFE803F0020E1914002110
:1057200001A8FFF7D5FE10230DB1019A2A6004B13C
:10573000236003B030BD002101A8FFF789FF1123CA
:10574000F2E7FFF7F7F807230190EDE7FFF7EEF830
:1057500002230190E8E70023E6E700BF0080005045
:1057600038B5144B0546D3F800020C4600F007008C
:1057700004281BD8DFE800F003090D1115000123F0
:1057800005B1286004B1236038BD1AF0CDFA0A23B0
:10579000F6E7FFF711F90923F2E71AF0C8FA0C232C
:1057A000EEE7FFF797F80F23800AE9E70023184692
:1057B000E6E700BF0080005038B5144B0546D3F82B
:1057C00008020C4600F0070004281BD8DFE800F0B0
:1057D00003090D111500012305B1286004B12360F0
:1057E00038BD1AF0A1FA0A23F6E7FFF7E5F8092316
:1057F000F2E71AF09CFA0C23EEE7FFF76BF80F23A1
:10580000800AE9E700231846E6E700BF0080005061
:1058100038B5104B0546D3F840320C4603F003036D
:10582000022B0BD0032B0DD0012B0FD11AF07CFAD9
:105830000A2305B1286004B1236038BDFFF7BCF826
:105840000923F6E71AF073FA0C23F2E7012300208C
:10585000EFE700BF0080005038B5104B0546D3F885
:1058600060310C4603F00303022B0BD0032B0DD049
:10587000012B0FD11AF058FA0A2305B1286004B1A0
:10588000236038BDFFF798F80923F6E71AF04FFABE
:105890000C23F2E701230020EFE700BF0080005057
:1058A000B0F5207F1FD009D8B0F5007F15D003D800
:1058B00068B1B0F5C07F0AD000200CE0B0F5607F81
:1058C000FAD10B4BD3F88000C0F3011003E0084B72
:1058D000186FC0F3033001307047054BD3F89000C8
:1058E000C0F30460F7E7024B186FC0F38020F2E7C3
:1058F0000080005002464FF48030104B10B598667F
:105900000020FFF7CDFF504341F671320C4BDC69AC
:10591000DA635A6804F4803422F4401259B9094910
:10592000884294BF00200120000502435A600CB158
:105930000022DA6310BD0449F2E700BF0090005076
:1059400000000350005A6202002D3101430905D0C6
:10595000012B0CD0022B084B18BF002300F01F00B6
:1059600039B103F58053012282401A607047034B1E
:10597000F4E703F50053F6E76880005064800050B8
:105980001FB5002180280446CDE9001100F0A58054
:1059900035D85E2846D85E2844D8DFE800F0A24318
:1059A00043434343434343434343434343434343C7
:1059B0004343434343434343434343434343A2AAF1
:1059C000A2AABABABABABAAAC44DDA714DAAAAAA98
:1059D0004343434343434343AAAAAA79E4AA434324
:1059E0004343434343434343434343BAA2A2A2DF57
:1059F0004D4DE9885EBF434343434399A200B0F550
:105A0000B06F00F090802DD8B0F5207F71D00CD809
:105A1000B0F5C07F65D0B0F5007F65D0B0F5807F70
:105A200000F08680009804B010BDB0F5607F6BD0A8
:105A30000DD8B0F5407FF5D1FEF74CFF02464FF48C
:105A40002070FFF72DFFB2FBF0F252085AE0B0F5DC
:105A5000806F5ED0B0F5A06FE4D100216846FFF7FB
:105A6000C5FDDFE7B0F5106F78D016D8B0F5E06F60
:105A700079D00AD8B0F5C06F6BD0B0F5D06FD1D166
:105A800000216846FFF76CFECCE7B0F5F06FC9D196
:105A900000216846FFF7E0FEC4E7B0F5406F3DD057
:105AA00013D8B0F5206F63D0B0F5286FBAD10021BC
:105AB000324B0391D3F8703203F00303012B02D170
:105AC00003A8FFF7C5FD039B3CE0B0F5486FA9D1E3
:105AD00000216846FFF712FEA4E7FEF7E1FE009002
:105AE000A0E7FEF7F7FEFAE7FEF7DAFE02462046E9
:105AF00004E0FEF7EFFE02464FF42070FFF7D0FE01
:105B0000B2FBF0F200928DE701A8FFF7BDFC019A0D
:105B1000EDE700216846FFF7DBFC83E700216846DC
:105B2000FFF70AFD7EE700216846FFF737FD79E7BA
:105B30004FF0E02302911B695B0705D5FEF7CAFE13
:105B40000290029B00936DE703A902A8FFF780FD76
:105B5000F7E700216846FFF77BFD63E70021684611
:105B6000FFF72AFE5EE700216846FFF751FE59E77E
:105B700000216846FFF790FD54E700BF0080005009
:105B800008B58020FFF7FCFE034B98429EBF4FF400
:105B90008032024B1A6708BD005A620200A0005012
:105BA0001FB503460020B3F5807F019000F0C1804F
:105BB00064D85D2B55D84C2B07D82D2B48D8232BD8
:105BC0002CD8019805B05DF804FB4D3B102BF8D89C
:105BD00001A252F823F000BF295D0108C35B010850
:105BE000C35B0108C35B0108DF5C0108C35B0108FC
:105BF000C35B0108AD5D0108FD5C0108A35C010801
:105C0000A35D0108C35B0108C35B0108C35B010816
:105C1000C35B0108C35B0108B75D0108243B092B86
:105C2000CFD801A252F823F0295D0108295D0108AF
:105C3000295D0108295D0108295D0108C35B010890
:105C40001F5D0108C35B0108BF5C01085F5D0108BF
:105C50003D2B7FD03E2BB4D1002001A9FFF7D8FD0A
:105C6000AFE7802BADD1594B1B6F03F00703013B0E
:105C7000032BA6D8DFE803F0514E858DB3F5F06F06
:105C800068D021D8B3F5B06F49D00FD8B3F5607F95
:105C900000F0838095D3B3F5806F45D0B3F5A06F46
:105CA0008FD1002001A9FFF7A1FC8AE7B3F5D06FDF
:105CB00055D0B3F5E06FCFD0B3F5C06F81D10020E0
:105CC00001A9FFF7C5FC7CE7B3F5206F6ED00BD8B8
:105CD000B3F5086F48D0B3F5106F7FF472AF0020B2
:105CE00001A9FFF769FD6CE7B3F5406F59D0B3F533
:105CF000486F60D0B3F5286F7FF463AF334BD3F8B0
:105D0000703203F00303012B5AD0022B0CBF152372
:105D1000002300E00523019353E70223FBE7002063
:105D200001A9FFF73BFC4CE7002001A9FFF7D0FBDE
:105D300047E74FF0E02302901B695B0705D5FEF7AC
:105D4000C9FD0D230393039BE5E703A902A8FFF711
:105D50007FFCF8E7002001A9FFF77EFD31E7002076
:105D600001A9FFF7FDFC2CE7184BD3F8003103F035
:105D70000303022B07D0032B09D0012B0BD1FEF715
:105D8000BFFD0323C7E7FEF717FE0923C3E719F09A
:105D9000C9FF0823BFE70123BDE701A9FFF774FB93
:105DA0000FE7002001A9FFF7C7FB0AE7002001A9C0
:105DB000FFF772FC05E7002001A9FFF79FFC00E751
:105DC000002103A8FFF744FC1123A4E70080005042
:105DD0004FF48012034B5A664FF48032024B9A62A2
:105DE000704700BF009000500050005A08B5FFF700
:105DF000D7FE092811D00A38012802D94FF6FF70C2
:105E000008BD4FF48002064B5A6603F5D8335B6A2F
:105E1000DB07F3D54FF4FA70F2E7024B1888EFE78F
:105E2000009000504E0D002038B504468020FFF74A
:105E3000B7FE032800F083804FF48012524B4FF0DE
:105E4000A0615A6645F60E02504BC3F88020504AB6
:105E500091624FF4803102F5805291629A6DD203C3
:105E6000FCD4996D11F08041FBD1D4E900021205F8
:105E700042EA0062E07B0243207B42EA0042607B10
:105E800042EA0032A07B42EA80121A619869D4E9A2
:105E90000452120642EA856200F000400243A07EEE
:105EA000E57E0243207E42EA0042607E42EA002212
:105EB0009A611A6AE06922F00F0242EA8502354DC2
:105EC00000283DD11A6294F82420996A94F82000A1
:105ED000D200294042EA40120A4394F8211042EAD3
:105EE000011242F480329A622B49284A936D31EABA
:105EF0000303FBD14FF08071254881621369A568C7
:105F000023F4700343EA055313614FF000438361A8
:105F100094F822300BB9214B996294F823303BB9A5
:105F20004FF480321D4B9A62184A936D5B00FCD48B
:105F300094F825301BB1154B194AC3F8802038BDA1
:105F4000024342F0080202281A6208D119614FF494
:105F50000852996113484FF47F4119F096FF0B499D
:105F600094F822308A6A94F820001B062A4043EAFB
:105F70004013134394F8242043EAC20394F82320E7
:105F800043EA02438B62D3E7009000500040005A7E
:105F90000050005AC7FFFEFE030001000060005AD7
:105FA000F1A7FFFF3440005A70B5194CFF28A66ACC
:105FB0002BD8A36D4FF0807113F4803F18BF4FF4BE
:105FC0008032144B18BF9A629962134AA36992F9FE
:105FD000005023F47F03054423F47F4343EA002366
:105FE00085F3080543EA0543A36132460B4819F0DF
:105FF0004CFFA36DDB0301D4002070BD32464FF48B
:106000008031064819F041FFF6E72120F5E700BF8F
:106010000040005A0050005A680D00202840005AE5
:10602000014B93F900007047680D00204FF4803356
:1060300011481249826A8B62836D03F00303032BBC
:10604000FAD14FF080730E488B620B4B996D30EA9A
:106050000101FBD1012009490865996D8907FCD42C
:10606000054B996D8807FCD5996D8907FCD50549C5
:10607000054819F00ABF00BF0040005A0050005AFE
:1060800003000100000001012840005AF0B5D0E9EA
:1060900001434FF400061A4A4178057856664FF4DA
:1060A000D156022702F5B8325662164E4F29776054
:1060B0004FF0010728BF4F2106F58056776016691B
:1060C000F603FCD441EA052151611B01417B43EAFF
:1060D00004230B43017B43EA41039360C37B817B31
:1060E0001B0143EA4113417C0B43017C43EA41031A
:1060F0005360837C13B16FF4D1535362F0BD00BF82
:106100000090005000100250014B1880704700BFF3
:106110004E0D0020014B1880704700BF4C0D002031
:106120004FF4800208B5184B5A660223174A536091
:10613000936813F48033FBD1012822D1FEF7E0FBF2
:10614000134B984215D003F5122303F5F8639842D8
:1061500013D0104B00EB8002400AB3FBF0F3520A5D
:106160000A49CA620B6301234B620022074B5A6043
:1061700008BD45F67A13084AF2E745F61A03074ABE
:10618000EEE75362F1E700BF00900050004002507C
:1061900000F0490264666666D8B80500BBCF05000A
:1061A000B0F5207F10B50C465DD008D8B0F5007F63
:1061B0004ED003D8C0B1B0F5C07F15D010BDB0F53A
:1061C000607FFBD12C4B4C1ED3F8FC202B4912F0E6
:1061D000807F4FEA041427D1D1F8803023F03003B8
:1061E0002343C1F88030E9E719F05EFE19F06AFE3A
:1061F0004FF48031224B214A1967136F013C23F47D
:10620000704343EA04331367FEF764FB0446FFF769
:106210002FF9C0F10201204619F04EFE00F042F8BD
:10622000BDE81040FFF7ACBCD3F8FC2022F0807230
:10623000C3F8FC20D1F8802022F030022243C1F8BC
:106240008020D3F8FC2042F08072C3F8FC20B5E730
:106250000A4A4C1ED2F8903023F0F85343EA046304
:10626000C2F89030AAE7054A4C1E136F23F48063EE
:1062700043EA84231367A1E700ED00E000800050AB
:106280000090005008B50121022000F0E3FA19F057
:106290000BFE19F017FE4FF48032014B1A6708BD50
:1062A0000090005008B54FF4C070FFF769FBBDE8DF
:1062B00008400449884294BF012102214FF4207014
:1062C000FFF76EBF80F0FA02B0F5807FF8B50C469C
:1062D00000F053816BD85D285DD84C2804D82D2858
:1062E00044D8232828D8F8BD4D381028FBD801A35E
:1062F00053F820F05B650108E7620108E7620108D6
:10630000E76201084B640108E7620108E7620108DF
:106310001167010883640108DB630108F166010865
:10632000E7620108E7620108E7620108E762010825
:10633000E76201083167010824380928D3D801A38E
:1063400053F820F05B6501085B6501085B65010897
:106350005B6501085B650108E76201083B650108B0
:10636000E7620108116401082B6601083D2800F06E
:106370004C813E28B7D1093C032C8CBF0021B34B84
:10638000B34A98BF195DD2F8403223F003030B43A0
:10639000C2F84032A7E78028A5D18B1E062B00F259
:1063A000C980DFE803F0C4B2C77FC7C7C100B0F53A
:1063B000F06F00F02A813BD8B0F5B06F00F0BD80DF
:1063C0001BD8B0F5607F00F06D818CD3B0F5806F85
:1063D00000F0C380B0F5A06F85D1073C0B2C8CBFBB
:1063E00000219C4B9A4A98BF195DD2F8203223F0C5
:1063F00007030B43C2F8203275E7B0F5D06F00F009
:106400001481B0F5E06FB6D0B0F5C06F7FF46BAF1C
:10641000093C032C8CBF00218F4B8D4A98BF195D1E
:10642000D2F8403123F003030B43C2F840315AE75E
:10643000B0F5206F00F06C8117D8B0F5086F00F050
:106440002181B0F5106F7FF44EAF093C062C8CBF54
:106450000021824B7E4A98BF195DD2F8083223F0A2
:1064600007030B43C2F808323DE7B0F5406F00F078
:106470003F81B0F5486F00F05B81B0F5286F7FF485
:1064800032AF112C00F06481A4F115035C425C4131
:1064900064006F4AD2F8703223F003032343C2F83A
:1064A000703220E7002502264FF4803701210220B8
:1064B00000F0D0F919F0F8FC19F004FD684B644ABB
:1064C0001F67136F23F0070333431367FEF702FAC6
:1064D0000646FEF7CDFFC0F10201304619F0ECFC94
:1064E0000121002000F0F6F9FFF7DCFEFFF748FB82
:1064F000002D7FF4F8AE032C7FF4F5AE594B5A4AC9
:106500009F62936D5C00FCD4EDE64FF48012544B17
:106510000E465A664FF48032534B9D6A03F5805302
:10652000C5F300659A62BFE700250426BCE7002595
:106530000126B9E700252E46B6E7023C0E2C8CBF9B
:1065400000214A4B424A98BF195DD2F8803123F0AE
:1065500003030B43C2F88031C5E6023C052C8CBF17
:106560000021434B3A4A98BF195DD2F8203123F0FD
:1065700007030B43C2F82031B5E6A1F10904082C4A
:106580003FF6B1AE01A353F824F000BFB165010896
:10659000B1650108E7620108B1650108DF6501081E
:1065A000E7620108E7620108E7620108B1650108D6
:1065B0004FF48032264B2F49586E03F580535A66AC
:1065C0004B6AC00343F001034B625CBF2A4B5A661F
:1065D0004FF0E022136923F00403136183E64FF4C4
:1065E00080321B4B2349586E03F580535A664B6A21
:1065F00023F001034B62C1035CBF1F4B5A664FF08F
:10660000E022136943F00403E7E7093C032C8CBF45
:1066100000211A4B0E4A98BF195DD2F8603123F061
:1066200003030B43C2F860315DE6093C062C8CBFC6
:106630000021134B064A98BF195DD2F8003223F0AF
:1066400007030B43C2F800324DE600BF78980308F9
:106650000080005055980308789803087198030843
:10666000009000500060005A0040005A82980308D1
:106670007C98030800C0075000A0005078980308D9
:1066800071980308CC1E062C8CBF0021314B324A76
:1066900098BF195DD2F8003123F003030B43C2F811
:1066A000003120E62D49063CD1F8FC2012F0807222
:1066B0001EBFD1F8FC3023F08073C1F8FC30082CE9
:1066C0008CBF0020264B244998BF185DD1F880303C
:1066D00023F003030343C1F88030002A3FF403AEE4
:1066E0001E4AD2F8FC3043F08073C2F8FC30FAE561
:1066F000023C052C8CBF00211A4B174A98BF195D2C
:10670000D2F8283123F007030B43C2F82831EAE519
:10671000023C0F2C8CBF0021134B0F4A98BF195D10
:10672000D2F8603223F007030B43C2F86032DAE597
:10673000023C0F2C8CBF00210C4B074A98BF195DFF
:10674000D2F8943223F007030B43C2F89432CAE51F
:1067500001249EE66A9803080080005000ED00E0E6
:10676000619803087C980308459803084598030836
:10677000034B5868C0F30800003818BF0120704769
:1067800000ED00E0054B420953F8223000F01F00F5
:1067900023FA00F0C04300F00100704700E100E080
:1067A000024A536B0342FCD1704700BF00400950BE
:1067B000044A4178536F23F4407343EA012353673B
:1067C000704700BF004000500C4A10B513690446E2
:1067D00043F00403136103F0F3FE19F09DFB084B33
:1067E000084AC3F8202430BF19F097FB03F022FFBA
:1067F0001CB9BDE81040FEF76DB810BD00ED00E01B
:1068000000E003500000FF0F0A4A10B51369044668
:1068100043F004031361084B084AC3F8202403F033
:10682000CFFE30BF03F006FF1CB9BDE81040FEF7F5
:1068300051B810BD00ED00E000E003500000FF0F74
:10684000034A0179D36E23F030030B43D3667047BC
:1068500000400050F8B504461C4BD3F88420D10604
:10686000FBD4D3F88430C3F381139C422CD0FEF7C1
:1068700017F8012C064602D1214619F01DFB19F02C
:106880003BFB4FF00072124B07465A66204619F048
:1068900047FB4FF480630D4D621E93402B676B6E78
:1068A0009A0103D4D5F884309B060AD5384619F0EE
:1068B00027FB022C08D13046BDE8F840002119F032
:1068C000FBBAD5F88430EAE7F8BD00BF00400050BD
:1068D0000060005010B50C4608B9FDF7E1FF074B0A
:1068E00021461B783BB1064B984204D80120BDE8F5
:1068F0001040FFF7AFBF0220F9E700BF322D0020A4
:10690000005A62020278034B012100201A70FFF73F
:10691000E1BF00BF322D00204FF0004238B5244BBC
:10692000244C5A664AF6CD33656C014605F00105E4
:10693000236428BB0120FFF733FF6368DB0715D50D
:106940001D4B586008461D4B226BD2070CD4984251
:1069500008D1072415B1174B194A1A6420F0FDFD20
:10696000204638BD0130EFE79842F2D00024F1E72D
:106970000132236B13F0080305D08A42F8D1E8E70F
:1069800000220E49F5E78A42E3D020210A4A9162AB
:106990000121A2F5805251600649084A886A8006A2
:1069A00003D49342D5D00133F8E79342DDE700BF2B
:1069B00000900050004009500060095040420F0014
:1069C0003254FFFF4FF0004238B5164B01465A666D
:1069D0004AF6CD33144C154A656C236443780B207A
:1069E0005B0043F00103D363FFF7DAFE63688A7844
:1069F00023F4F87343EA02136360CA784B7943EADD
:106A00000223A3600A798B7943EA02232361087881
:106A1000FFF782FFEB0744BF054B236420F09DFD89
:106A2000012038BD00900050004009500040005047
:106A30003254FFFF4FF00042124B70B55D6E03F50C
:106A400080535A664AF6CD3304460F4980204E6C77
:106A50000B64FFF7A5FE0B6A23F00F030F2C94BF06
:106A6000234343F00F030B62F30744BF074B0B6450
:106A7000002DA2BF4FF00042054B5A6620F06DFD7D
:106A800070BD00BF00800050004009503254FFFF2D
:106A900000A000504FF00042104B70B55D6E03F542
:106AA00080535A664AF6CD3304460D4980204E6C19
:106AB0000B64FFF775FE0B6A23F4F85343EA0423D3
:106AC0000B62F30744BF074B0B64002DA2BF4FF0CE
:106AD0000042054B5A6620F040FD70BD008000501A
:106AE000004009503254FFFF00A0005010B519F0CB
:106AF0001CFA042300F5805100F500520B6113616C
:106B00000B6113610B6113610B611361202341F26F
:106B1000020103610023C360836041614FF4A0213F
:106B20008361836541620549C36103628362C36215
:106B300043630365D164036310BD00BFFF3F0D03D2
:106B400070B505461446084641B9354B9D4218D0EC
:106B5000344B9D4208BF5720FEF712FFAB6813F07D
:106B6000010F6B6830D0B0FBF4F4D80704F1FF34A8
:106B70004FEA046407D42B6923F07F4323432B613E
:106B800070BD5620E8E72821284619F0CAF9AB6CF9
:106B9000990715D1AB6CDA0714D4AB6C13F0020F64
:106BA00014BF06260026284619F0BFF92B69314686
:106BB00023F07F4323432B61BDE8704019F0ECB90B
:106BC0000526F0E70926EEE7AB6DDB07AB6848BFAB
:106BD000640003F0E003402B1BD004D8DBB1202B72
:106BE000CED1082304E0602B17D0802BC8D101231D
:106BF00063434101B1FBF3F20B4B203A284603EA11
:106C0000C202012119F08DF92A63BDE8704019F024
:106C100088B90623ECE71023EAE70423E8E700BF7E
:106C20000000015B00000A50F8FF7F00F8B54368E0
:106C300004460E460D691BB140F6FF7119F071F95B
:106C40002046FFF753FF2269737BB17B22F0870256
:106C50000B43134343F0800323611DBBA368F27B06
:106C600023F00303134343F00103A3606369327B02
:106C700023F00F0313436361D6E901122046FFF7A7
:106C80005FFF0521204619F06AF9282119F049F91A
:106C90003378A36319F045F9A36CDB4313F4405F29
:106CA000FAD1F8BD2369297F23F0F80343EAC11321
:106CB0002978EA7B0B43297943EA4113697A43EA4D
:106CC000011343EA82132361E068D5E9053720F018
:106CD000F0403B4320F470200343287B697B43EA68
:106CE000802343EAC133E360A368F07B23F003030E
:106CF000034343F00103A3606B88A06803F4C0431F
:106D00000343A360A368687943EA8023A360AB7957
:106D1000EF79606A1B013F0203F0700307F4E0673C
:106D200020F4772020F4EE603B430343287A0003ED
:106D300000F4E0400343687F000400F47020034344
:106D400063626369307B23F00F03034363616B89E4
:106D5000A36111B3164B9C420CD1AB7B154903F0D8
:106D60000F034B67002A87D02B7C124A03F00F03D6
:106D7000136781E7104B9C427FF47EAFAB7B0D49DC
:106D800003F00F03C1F88030002A3FF475AF2B7C6D
:106D9000084A03F00F03D3676EE7002A3FF46CAF95
:106DA000034B9C42E0D0044B9C42F0D064E700BF10
:106DB0000000015B0090035000000A50072A2DE9F3
:106DC000F041154698464FF0030401F003072DD813
:106DD0009600B44000FA06F221461C4819F0EBF880
:106DE00021461B4807FA06F219F0E5F8194B1A4933
:106DF0009DF81800B8F1000F18BF1946012303FAD7
:106E000005F50D60154B1649002818BF0B461D608F
:106E1000144B9DF81C00C3F82054103103F2244396
:106E2000002818BF0B461D60BDE8F081A2F10806DE
:106E3000B600B44000FA06F221460B4819F0BBF840
:106E400021460A4807FA06F2CEE700BF00C4035005
:106E500008C4035010D4035010E4035014E403504A
:106E600014D4035000E0035004C403500CC4035076
:106E70002DE9F04105460F461E4690464AB10123D2
:106E80003022194C8B4002FB004436B304F5825487
:106E900023600F21072F05EB450388BFA7F10804E6
:106EA0004FEA0313114895BFBC00A40004330C3310
:106EB00008FA04F2A140184419F07DF8B8F1000F67
:106EC00009D101233021084ABB4001FB05223EB114
:106ED00002F582521360BDE8F08104F50154D7E752
:106EE00002F50152F6E700BF00C0035030C0035066
:106EF000104B0140D3F8302422EA0002C3F83024BA
:106F0000D3F830241143C3F83014D3F82C240243AF
:106F1000C3F82C24084AD36E03F03003202B1FBF84
:106F2000D36E23F0300343F01003D366034BC3F852
:106F30002004704700C003500040005000E00350A0
:106F400038B514461D46032283F00103FFF790FF76
:106F5000012004F11001884005FA01F1FFF7C8FF94
:106F60009DF81010034B044A002918BF13461860FF
:106F700038BD00BF24E4035024D403504369DA0130
:106F8000FCD4012300F50050024A436053689B077C
:106F9000FCD470470040005970B504461546FFF711
:106FA000EDFF0B784A7803F0070343EAC203CA787F
:106FB00043EA02238A78120102F070021343C4F8F4
:106FC0008030E26A0B7922F0170203F007031343C3
:106FD0004A79120102F010021343E3621E4B2A4663
:106FE0009C4225D0012004F5805358601A4B0022A2
:106FF0009C422AD08B79A26153BB70BD12F8023C2F
:1070000012F8040C5B0443EA002312F8050C034356
:1070100012F8030C000400F48030034306F128004A
:1070200044F820300136102E02F10502E6D1D9E7EE
:107030000026F8E703EB8306AE5D16B100FA03F60F
:1070400032430133102BF5D1D4E713460435F9E769
:107050000823E360D1E700BF004000590122014648
:1070600000F5805310B55A60244B254AC3604B6924
:107070001340FCD18B61C1F898304B6913F4401F69
:10708000FBD14B69DA052DD48B6F5BBB4B699B053C
:107090002AD4D1F888403CBB0846CB6FD1F88C305D
:1070A000FFF76CFF30238C600C61CC620C620B67C5
:1070B000C1F88030134B994208D142F26002124B62
:1070C0008A640B654C658A650B664C660D4B99426C
:1070D00002D10022102C0AD10C4B01F500514B6259
:1070E0008B6210BD4B6FCCE7D1F88430CEE704F152
:1070F000280043F820200134ECE700BF1200020012
:10710000520001000040005900C002808F330F8000
:10711000084608B569B92A20FEF732FCB0B10C4B1D
:10712000984206D90B4B9B68C3F302730133B0FB43
:10713000F3F0094B00F5742000F23F20B0FBF3F0B0
:1071400001387F2828BF7F20C0B208BD0120F0E7AA
:10715000005A62020040005940420F000B4B10B52C
:10716000994228BF19460C461AB92A20FEF708FC96
:107170000246631E1344B3FBF4F0A34228BF00F1A0
:10718000FF30032828BF0320C0B210BD005A62029E
:1071900010B50C46FBB111491148012B08BF01463F
:1071A0008C4228BF0C461AB92A20FEF7E9FB02469A
:1071B0009DF8083040F2FF300133B2FBF3F2631E5A
:1071C0001A44B2FBF4F3A24228BF03F1FF33984202
:1071D00028BF184610BD0349E2E700BF404B4C00F2
:1071E000002D31018096980013B5044601A800F0E7
:1071F000A5FB042C8EBF0020024B33F8140002B014
:1072000010BD00BF929803082DE9F04F2DED048BBF
:1072100006468DB0DFF85CC306AF0C461546BCE8E9
:107220000F000FC79CE8030087E80300C74F002248
:1072300039463046FFF792FF94F80580804538BF05
:1072400080463046FFF79AFE20795FFA88F850B9F9
:107250002A20FEF795FBB842014628BFB0FBF8F1A3
:107260003046FFF755FFE3784FEA08721B0102F042
:10727000E04203F0300313430004227800F4FE00E0
:1072800003430AB143F0020362780AB143F00403F6
:10729000A2780AB143F00803B360E388228933611E
:1072A000638943EA02433362A94B9E4200F01D8288
:1072B000012306F5805673600DB0BDEC048BBDE86C
:1072C000F08FA44920E0D1F88041012B4FEA14440B
:1072D00040F29680022B00F071813F0107F1B24726
:1072E000C9F3090307F580477B600AF1010A1435E9
:1072F000BAF1020FDCD02B78AF68002BE1D09649B1
:10730000964A012B18BF1146914C00222046CDF819
:1073100000800393FFF73CFF04EB0A14A16C039B6E
:1073200021F0435121F41D1121F443511FFA87F933
:1073300021F03F0103F003070F43697881454FEACD
:10734000810101F01C0147EA0107A97838BF814695
:107350004901C9B20F43E9782879090301F4E041F2
:107360003943070407F4E02739432F7C4FEA0A1B0F
:107370007F0507F4600739436F793F0707F04057EF
:107380003943A164A46C7649C4F30234013C0AF188
:107390000507042C2BD80FF2080C5CF824F000BF72
:1073A000EF730108EF730108C7720108B573010894
:1073B000CF730108D1F88441012BA4B28AD8002BE5
:1073C00040F09880D1F88C11091449001DE0D1F8E3
:1073D0008441012B4FEA14443FF67CAF002B40F070
:1073E0008C80D1F88C11091401EB41010DE0D1F82A
:1073F0008041012BA4B23FF66DAFDFED637A08E068
:10740000002B74D1D1F88C11091407EE901AF8EE04
:10741000E77A22040BF1B24202F58042926C24F426
:10742000C041C2F3820C4FF001020CF1010E02FACE
:107430000EF209EE102A4FEA8141B8EEC99AF6EE33
:10744000008A474A48BF41F00041BCF1000F5AD1C1
:10745000002B55D1D2F88C311BB207EE103AB8EEA2
:10746000C77A37EE878A002840F0908005A80391FC
:1074700000F064FADFED3B7A68EE277A0399DFEDDE
:107480003A6A86EE897ADFED396A27EE267AF1EEDE
:10749000006AB1F1004F07EEA67A0BD0DFED347A27
:1074A00006EE104A77EE276ABAEEE86A56EE267ABA
:1074B000B0EE677AB5EEC07AF1EE10FACBBFB1EE5E
:1074C000477A78EEC78A37EE687AFDEEE87AC8BF69
:1074D000FDEEC77A17EE903AB3F5003F65DB6FEA31
:1074E00051416FEA41411A4A3B01D150F5E6D1F8CA
:1074F000941189E7D1F8941166E7D1F8941172E7F5
:10750000D2F89431A8E7ABB9D2F890311BB207EEAC
:10751000103AB8EEC77A77EE677A69EE286A104BB0
:1075200087EEA67AD3F888311BB207EE903AF8EED0
:10753000E77A96E7D2F898311BB207EE103AB8EE28
:10754000C77A37EE677A77EE877AE6E7005A620203
:107550000040005980969800002D3101404B4C00AE
:107560000080E00F3D3B843F00008043000020444A
:10757000000000499C98030800007A44000000388D
:10758000E71B753F0000004700000000D5ED037ABF
:107590005FED076AF8EE677A87EEA67AF7EE046A7F
:1075A000C6EE877A67EE887A69E713F5003FAABFCF
:1075B000C3F3110341F40031194394E7FFF714FEBC
:1075C00007EE900A1FED147AF8EE677A0BF1B243DA
:1075D00003F580439B6C0CAAC3F3421302EB8303B5
:1075E00087EE875A13ED067AFCEEC77A17EE903ACB
:1075F000F7EE006A5C2B1CBF77EE267A87EE276ACF
:1076000007EE904A5FED235AF8EE677A08BF1FED48
:10761000246A67EEA57A67EE867A1FED266A67EE22
:10762000867AF5EEC07AB6EE006AF1EE10FA4CBF3B
:1076300077EEC67A77EE867A0BF1B24202F5804297
:10764000136DFDEEE77A0023136517EE903A17EEFF
:10765000900A13F4004F136D5FED354A18BF43F0E5
:1076600000431365224B116D03EA80430B431365FE
:10767000204B9FED214AD3F88811D3F88831116D42
:107680001BB207EE903AF8EEE77A77EEA47AC4EEF2
:10769000074A37EE267AC4EE876AF7EE044A84EE8C
:1076A000857A67EE277AB1EE007A47EE876A07EEB1
:1076B000104ADFED127AB8EEC77A76EEA76A65EE69
:1076C000C75A46EEA57AF5EEC07AF1EE10FA4CBF35
:1076D00077EEC67A77EE867AFDEEE77A17EE903A85
:1076E000C3F311030B431365F7E54FF0000AFFE501
:1076F0000000FC7F0080E00F00008048000000498F
:107700004FF400120B4B10B5C3F88020BFF34F8F1E
:10771000BFF36F8F0024FF22074B21465C652020BA
:107720009A625C60FEF712F92146BDE81040212004
:10773000FEF70CB900E100E000000450044A054BDC
:10774000002908BF1346012282401A60704700BF1B
:10775000401004504020045010B501210446202060
:10776000FEF7F4F801212120FEF7F0F80122114B79
:107770005A60227812069A606178A27842EA014241
:107780009A61FF229A6200229A631A644FF00042C3
:107790005A654FF0FF324FF4001103F500531A659C
:1077A000054AC2F88011E3781B01DBB282F8153379
:1077B000116010BD0000045000E100E0F8B50125A3
:1077C000C3B2D1F800E091F80AC00F7B0C469D408F
:1077D000CB7A1D491D4E0D65810001F1A04101F5D7
:1077E0008821C1F804E04FF0300E0EFB00601B054D
:1077F000617B43EA0C4343EA475322F003020166EC
:10780000C365026718F07FFB736D2B437365237AA2
:1078100013B1336C2B433364637A13B1B36B2B43D3
:10782000B3632279A37943EA0243074A93616179FA
:10783000E37943EA014306498B61044B55639D6438
:10784000BDE8F84018F065BB00200450000004506B
:107850000010045010B50124C0B2844018F053FB4E
:10786000044B5A6D22EA04025A659C62BDE810403E
:1078700018F04FBB0000045010B50124C0B2844082
:1078800018F041FB074BDA6A224208D15B6B9C433C
:107890000CBF0124002418F03CFB204610BD00243E
:1078A000F9E700BF000004504FF48032054B9A66A0
:1078B00041F6713203F51C33DA63012203F50053FC
:1078C000DA6070470090005041F671320121064B9A
:1078D000DA6303F50052D1600022DA634FF480329C
:1078E000A3F518339A667047000003500138312819
:1078F0009ABF024B185C0020704700BFB498030881
:1079000038B5C2F30625044602F0070241B942EA3F
:10791000052242F440220634074B43F8242038BDA8
:107920001146284618F07AFB02462846FFF7DEFF8C
:10793000163442EA0022EFE7008003504FF4803211
:10794000064B5A6603F5E6239B69C3F385128270E2
:1079500003F03F021B0B4270037070470090005011
:10796000014B986CD96C70470080E00F0120034BED
:107970009B680A3303F01F03984070470080E00FB4
:1079800070B5054616461C4621B94FF42070FDF728
:10799000F7FF0146402C1BD003D8DCB1202C1BD0B4
:1079A00070BD602CFCD1042303FB06F2530803EBEB
:1079B0004113B3FBF2F3094A203B02EAC303AA686E
:1079C00022F06002AA60AA681443AC60EB61E7E7AA
:1079D0000623E9E71023E7E70823E5E7F8FF7F0040
:1079E000012100F5805310B5596040F6AA6341F2B9
:1079F000050243610023094C8360C365C26000F542
:107A000000520361C361C3649464054C8365A04262
:107A100004BF03654365516010BD00BFFFFF010057
:107A200000C0055070B50D46FFF7DAFF012300F5E1
:107A300080567360AB7C04461BB1836843F080437F
:107A40008360EB7C5BB1244B9C4202BF2A7DA3F593
:107A50001033C3F8C821E36D43F08003E3652A8A3D
:107A60006B7B20461343EA891343E3602B7BD5E904
:107A70000112FFF785FF6B7D1BB1A36843F48033D0
:107A8000A360AB7D1BB1A36843F40043A360EB7D0F
:107A90002A7E1B07120502F4E00203F0E0431343C1
:107AA000A3656B7E9A1E012A4FF0020209D80B498A
:107AB000032BC1F8202709D10423F3652B786361D8
:107AC00070BD0749012BC1F82027F4E7042204F513
:107AD0000053DA65F2E700BF00C0055000D0035044
