S01D0000626F6F746C6F616465722D6170706C6F616465722D312E73333769
S315080000000810002013AC000811AC000885AD0008E4
S3150800001011AC000811AC000811AC000811AC0008BE
S3150800002011AC000811AC0008FCBF000811AC0008B0
S3150800003011AC0008ACBF000811AC000811AC0008F0
S3150800004011AC000811AC000811AC000811AC00088E
S3150800005011AC000811AC000811AC000811AC00087E
S3150800006011AC000811AC000811AC000811AC00086E
S3150800007011AC000811AC000811AC000811AC00085E
S3150800008011AC000811AC000811AC000811AC00084E
S3150800009011AC000811AC000811AC000811AC00083E
S315080000A011AC000811AC000811AC000811AC00082E
S315080000B011AC0008019500087D9F00086DBE000878
S315080000C069BE00083597000879BE000871BE0008A9
S315080000D0559F000875BE0008BD9F000829A00008A6
S315080000E011AC000811AC000811AC000811AC0008EE
S315080000F011AC000811AC000811AC000811AC0008DE
S3150800010011AC000811AC000811AC000811AC0008CD
S3150800011011AC000811AC000811AC000811AC0008BD
S3150800012011AC000811AC000811AC000811AC0008AD
S3150800013011AC000811AC000811AC000811AC00089D
S3150800014011AC000811AC000811AC000811AC00088D
S315080001502183000811AC0008AFBB0008B5BB000836
S3150800016011AC000811AC000811AC000811AC00086D
S3150800017070B506468AB032480BF02CFB3148324B34
S3150800018000210360314B324C436004F047FC2AA33C
S31508000190D3E900232060CDE900234FF0FF334FF069
S315080001A0FF320BF062FB02224FF0FF3120680BF0A2
S315080001B05EFB00239422CDE9073309933C23CDE95E
S315080001C003320593962303A92068069304F0F8FCE6
S315080001D002F0E2FC2546014620680BF05DFB20682C
S315080001E00BF0C6FBB6F9001055F8080B0BF069FBC7
S315080001F07668D6B928460BF072F8A37B66F3000337
S31508000200A373202310222384124B83F8202383F818
S31508000210212383F8252383F8242383F8222383F8CC
S315080002201F2383F823230AB070BD3068A060B28804
S31508000230B379AA80AB71E4E70855005100000000C5
S31508000240690345ECB81A0020353F0008C81A002093
S31508000250D81A002000E100E00348044B834202D08C
S31508000260034B03B1184770478810002088100020F8
S3150800027000000000064B0749C91A891048BF01311A
S31508000280491003D0044B0BB101481847704700BF0B
S3150800029088100020881000200000000010B5064CC9
S315080002A0237843B9FFF7D8FF044B13B10448AFF3DB
S315080002B000800123237010BDB42300200000000035
S315080002C02C15010808B5054B1BB105490548AFF3C0
S315080002D00080BDE80840FFF7CDBF00BF0000000062
S315080002E0B81200202C15010810B5274C02F02EF87C
S315080002F002F078F9236F23F0070343F0030323671B
S315080003000AF0A9FE214B00209B6ADB015EBF4FF471
S3150800031080321F4B9A62D4F8203123F0070343F04A
S315080003200203C4F82031D4F8283123F0070343F038
S315080003300203C4F82831D4F8403123F0030343F00C
S315080003400203C4F84031D4F8603123F0030343F0C4
S315080003500203C4F86031D4F8403223F0030343F0B3
S315080003600203C4F84032D4F8003223F0070343F0FE
S315080003700203C4F80032D4F8083223F0070343F026
S315080003800203C4F8083210BD008000500040005A2D
S315080003900060005A064B0748DA1C121AC11E22F0E2
S315080003A00302994288BF002203490BF0ADBD00BF86
S315080003B0881000200810002040150108064B074841
S315080003C0DA1C121AC11E22F00302994288BF0022C3
S315080003D000210BF091BD00BFF023002088100020FB
S315080003E00348044A0449121A92100AF01FBC00BFB7
S315080003F0C0150108C0150108F02300204FF48041FC
S315080004004FF0FF30114B124A10B59A60D3F8882086
S3150800041042F47002C3F888200E4A91660E4901F527
S31508000420005210660D4850660220C3F8D000BFF38C
S315080004304F8FBFF36F8F01244FF440330848C0F83D
S315080004408041D36004600B6110BD00BF00ED00E081
S31508000450000000080090005000800044F7FF3700B5
S3150800046000E100E0014B1868704700BF0C1000203F
S31508000470084B1B6F03F00703022B04D0032B05D090
S31508000480012B05D0FEE7044B18687047034BFBE7C2
S3150800049003487047008000500C10002014100020FC
S315080004A0002D310108B5FFF7E3FF054B1B6FC3F3BA
S315080004B003330133B0FBF3F0024B186008BD00BFED
S315080004C000800050081000200048704700B4C4049B
S315080004D0014B1868704700BF14100020054B1860C0
S315080004E0054B1B6F03F00703032B01D1FFF7DABF98
S315080004F0704700BF14100020008000500048704765
S31508000500002D31014FF0B4439868C0F304400C281D
S315080005100AD8DFE800F00B090909090907211909B2
S315080005201B1D1F000F487047002070479B6803F08B
S315080005304073B3F1807F11D0B3F1007F10D00A4A1F
S31508000540002B08BF10467047084870470848704790
S315080005500848704708487047084870470848704771
S3150800056008487047405DC60000093D00C0EA210101
S3150800057080BA8C010048E801005A62020024F4009F
S3150800058080841E0040420F00014B1868704700BF68
S315080005901010002030B5154BADF5117D03AC0FCB0F
S315080005A084E80F002C22002107A80BF0A5FC68257B
S315080005B0FF234FF49472002146A88DF81D300BF0E6
S315080005C09BFC2A46002112A80BF096FC2A4600211D
S315080005D02CA80BF091FC00942CAB12AA46A907A8EC
S315080005E000F0E2F80DF5117D30BD00BF80BF0008B0
S315080005F00122044B1A700023034A1370034A13702E
S31508000600704700BFB7230020B6230020B52300207B
S31508000610002238B5124B134C1A700122124B1A706D
S3150800062023689A78DAB1DA78CAB11A78510706D502
S31508000630986A0AF089FB10B10C4800F009FA236899
S315080006401A7892070BD55D680AF06BFB854206D9C6
S3150800065023680648596ABDE8384000F0AFB938BD86
S31508000660B7230020E8120020B623002000800108E6
S3150800067007B5024601200B46064908700649074891
S315080006800968009106490068096800F04DFC03B046
S315080006905DF804FBB5230020E4120020E0120020D8
S315080006A0E8120020044A054905482023126809680B
S315080006B0006800F0FFBB00BFD8120020DC12002043
S315080006C0E0120020094B1A68D37892782AB1002BD9
S315080006D041F20C0018BF0020704741F20C0240F2AC
S315080006E00570002B08BF1046704700BFE8120020AF
S315080006F008B5FFF7F9FD02F0F5FB02F0DDFB02F0A5
S3150800070045FABDE8084001480AF056BDD012002057
S3150800071010B5234B234C18681B7992B08DF80C3012
S3150800072023880290ADF80D30A37868468DF80F300F
S315080007300AF050FD41F60833ADF810309DF8063042
S31508000740BDF80420C3F300038DF8183040F60223E1
S31508000750ADF8283000230098ADF816208DF82A3019
S31508000760CDF8120002F0FCFB02F000FC2046032143
S3150800077002F002FC02F008FC02F0ECFB112102A8D0
S315080007800AF03CFD03210AA80AF03FFD01200AF001
S3150800079043FD002840F2017008BF002012B010BDCA
S315080007A090BF000896BF000870B5134C134E206022
S315080007B01348144D016014490A60144A1360049AD8
S315080007C0134B1A6033780BB10AF002FD2B78002B15
S315080007D0F8D0104B1B784BB123689A784AB1DB786E
S315080007E040F20570002B18BF002070BD40F2037060
S315080007F0FBE740F20570F8E7E8120020B72300206F
S31508000800E0120020B6230020DC120020D8120020B7
S31508000810E4120020B523002037B500F1006303F584
S31508000820C0330193104B0D46984214461AD8019AC4
S315080008300E4B9A4216D2019A9B1AA34212D348B972
S315080008404FF000639B6A0A4A5969914202D91869AE
S3150800085000F056FA22462946019803B0BDE8304012
S315080008600AF012BA03B030BDFF7FFEF700E01708A2
S31508000870008001087FB56FF0006200F1784191426F
S31508000880034619D26D460D4A02F110062C46106829
S315080008905168083203C4B2422546F7D15A1E04A944
S315080008A00F3311F8014D12F8010F844204D19A4210
S315080008B0F7D1012004B070BD0020FBE79ABF0008FD
S315080008C0F0B50368044603F16043B3F5802F9FB083
S315080008D033D84FF000639B6A42681E6996422CD84B
S315080008E0344B9A4229D8456B06F14002AA425ED893
S315080008F09D425CD82846FFF7BDFF002857D02846FA
S315080009000AF0F5F980B16B6973B1022B0ED1AB69A8
S31508000910C4F1040119444FF0FF32204600F054FE9A
S31508000920254BC31A584258411FB0F0BD40F2046324
S3150800093028460293FFF79EFF08B90020F4E74FF018
S3150800094000635F6B3846FFF795FF0028F5D0A6F1E0
S3150800095050039F42F1D8284603A90AF0CFF9002888
S31508000960EBD0039DAE42E8D8AC42E6D8114B9D4287
S31508000970E3D804A800F0ECFE21462A1B04A80AF0D6
S3150800098026FB04A80AF025FB00F0F2FE044600F058
S315080009900DFF23460090294605F1200204A800F021
S315080009A057FE02900298B0FA80F04009BCE7012091
S315080009B0BAE700BF00001808E320BBDE70B54FF0A9
S315080009C0FF3290B005460C4600F0FEFD1C4B9842DF
S315080009D032D14FF480621B4B00219A6601A81C2273
S315080009E00BF08AFA184B29466846043C00930AF02D
S315080009F06CFB214668460AF068FB68460AF06EFBFF
S31508000A000AF039F90646B8B940F2022000F042F970
S31508000A101C22314609A80BF06FFA0C4B294608A888
S31508000A2008930AF052FB08A821460AF04EFB08A8CC
S31508000A300AF054FB0AF01FF9002010B070BD00BF81
S31508000A40E320BBDE00900050010005430100064389
S31508000A504FF4806230B50446154B91B09A66002172
S31508000A601C2201A80BF048FA124B2146684600934F
S31508000A700AF02BFB68460AF031FB0AF0FCF805463B
S31508000A8098B940F2022000F005F91C22294609A867
S31508000A900BF032FA084B08A8214608930AF015FB12
S31508000AA008A80AF01BFB0AF0E6F8002011B030BDD2
S31508000AB00090005000000243000003434FF4806298
S31508000AC010B50F4B8CB004469A6600211C2205A867
S31508000AD00BF012FA0B4B01940493012302930A4B71
S31508000AE001A904A803930AF0E6FA04A80AF0F6FA9C
S31508000AF00AF0C1F8B0FA80F040090CB010BD00BF8A
S31508000B000090005000000843040000200048704789
S31508000B10008001081A4B10B5D3F88420110606D4B4
S31508000B204FF400621A67D3F88420D206FBD40AF081
S31508000B301BF900F099F80AF08CF80AF08CF818B14D
S31508000B404FF4017000F0B2F8FFF724FD04460AF0EE
S31508000B5084F834B940F2012000F0A8F84FF4017087
S31508000B6009E040F203739C42F4D0A4F20574012C08
S31508000B70F4D840F2032000F099F8002010BD00BF19
S31508000B8000400050012337B58DF806308DF8073040
S31508000B902F4BD3F894305A060FD500F09BF8A0F2E5
S31508000BA0022080B2072808D8C923C340DB0742BF02
S31508000BB000238DF806308DF80730264B5B68013325
S31508000BC008D14FF4027000F065F800238DF806305E
S31508000BD08DF807309DF807305BB11E48FFF770FEA9
S31508000BE08DF806009DF806301BB94FF4027000F028
S31508000BF051F89DF806304BB34FF480424FF0FF3161
S31508000C00154B9A6603F17443196601F58001596616
S31508000C100021124BC3F8D010BFF34F8FBFF36F8F6D
S31508000C2001250F4CC4F88050BFF34F8FBFF36F8F69
S31508000C304FF440300B490861C4F88051C860054834
S31508000C4001F140618A6698600AF092F803B030BDF7
S31508000C5000400050002001080090005000ED00E020
S31508000C6000E100E000A000444CF23C32014B5A80FF
S31508000C70704700BF000000204AF6C030044B5B886E
S31508000C8023F00F039BB21B1A58425841704700BF06
S31508000C9000000020044A08B51080FFF7EDFF10B9E0
S31508000CA04FF20F03538008BD0000002008B5FFF778
S31508000CB0F1FFBFF34F8F0549054BCA6802F4E0629E
S31508000CC01343CB60BFF34F8F00BFFDE700ED00E095
S31508000CD00400FA054FF20F01084B5A888A4201D1DF
S31508000CE0188870473AB91B8840F20220012B18BFB2
S31508000CF04FF4007070474FF40070704700000020F2
S31508000D004FF4803208B5044B9A6601F001FEB0FA3A
S31508000D1080F0400908BD00BF00900050072BF8B5C9
S31508000D2006460F4614461D4601D90020F8BD012186
S31508000D30202001F0C9F80121212001F0C5F88CB165
S31508000D4044EA06039B07F0D14FF48032064B31463E
S31508000D509A66284623463A4601F002FEB0FA80F023
S31508000D604009E3E70120E1E70090005030B502466C
S31508000D7000230C25054905FB03F460180C59944219
S31508000D8003D001330C2BF6D1002030BD44C0000837
S31508000D90F0B50023082787B0CDE9013315463B4651
S31508000DA0009704AA04460AF080F841F20303984221
S31508000DB0064623D194F8433053B13A46E06C04A969
S31508000DC00AF005F904AA3B461146A06C0AF0EEF8AB
S31508000DD0059A049B6A6094F843202B6052B9094A25
S31508000DE0934207D0084A934204D00822E06C04A92B
S31508000DF00AF0EDF86B68236500236365304607B093
S31508000E00F0BD00BFF70A0AF7FC0404FC2DE9F04719
S31508000E1099465B6804460F469046002B3FD08B07E1
S31508000E2040D14FF000639B6A006E1B6981181D1D37
S31508000E30A9421BD31C33984218D2A842024638BF8F
S31508000E402A46994294BFC2EB010AC2EB030A101A5A
S31508000E503E18C5F1680010443146524620440BF04E
S31508000E6053F85246FF2130460BF046F8226E0F4BD8
S31508000E709A420BD80E4902EB0800884206D99B1AFB
S31508000E80FA58C4F880204FF0FF32FA50D9E90035F5
S31508000E9042463946206EA847236E434423660020FF
S31508000EA0BDE8F08741F20200FAE700BF04800108B6
S31508000EB0078001082DE9F04100254FF0FF37044669
S31508000EC08846164603F0200380F842301822FF2190
S31508000ED0C0E91855A0F8405080F84350A0F844508F
S31508000EE080F84650C0F8887068300BF005F88822FC
S31508000EF02946C4E91286C4F88070C4F8847004F1DF
S31508000F0090000AF0F9FF074BC4F82071C4E946358A
S31508000F1084F8245116B1304600F01AFC0020BDE8CA
S31508000F20F08100BF000101012DE9F04FA5B09946F7
S31508000F30CDE91123002304460E464FF001082E9DE5
S31508000F401393139978E094F846300C2B70D8062B37
S31508000F504BD908FA03F212F4286F40F00F8212F404
S31508000F60885F40F0BA810A2B66D1DFF8BCA3636DAF
S31508000F70072B00F228814FF0080B382316AA2046C3
S31508000F80CDE90188CDF800B011A909F08EFF41F22C
S31508000F9003030A900A9A9A4200F03F810A9B5BE093
S31508000FA0A3F10E02052A00F29482DFE812F0060386
S31508000FB00600F5003602360204030027636D0F2B80
S31508000FC000F28A80102314AA009320464023CDE914
S31508000FD0018711A909F069FF41F203030890089AED
S31508000FE09A4200F0CB80089B36E0013B052B27D8B8
S31508000FF0DFE813F074006E000600C401DC007B0114
S315080010000127636D072B00F2DE80082314AA0093DC
S3150800101020464023CDE9017711A909F046FF41F2A0
S3150800102003030B900B9A9A4200F021810B9B13E065
S31508001030A3F10D02062AB3D9494584D3002065E0F9
S3150800104014AA204611A9FFF7A3FE41F20302059050
S31508001050059B934208D0059B049341F20303049A27
S315080010609A423FF46EAF50E0159A14992265002211
S315080010706265AB4A914240F00781022284F8462015
S31508001080EAE7082314AA009320464023CDE90187FE
S3150800109011A909F00AFF41F203030690069A9A423B
S315080010A001D0069BD8E7149B03F07F43B3F1407F3A
S315080010B005D0132384F8463041F20903CCE7159B83
S315080010C0D90706D594F8423043F0010384F8423034
S315080010D00027636D072BD4D9012303E1204614AA00
S315080010E011A9FFF755FE41F203030790079F9F4298
S315080010F00FD0079F41F203030497049A9A423FF4DC
S3150800110020AF049B0BB10023F370049825B0BDE80B
S31508001110F08F1498FFF72AFE28B9132341F208071F
S3150800112084F84630E6E7437994F824219A4205D9AB
S31508001130132341F20E0784F84630DBE70268794943
S315080011408A4205D00289D20748BF013384F8243180
S3150800115094F84230D9070DD5028994F8433092079E
S3150800116006D53BB1132341F2010784F84630C1E79F
S31508001170002BF7D0037984F84630BBE7D4F848A0AB
S3150800118000F032FB80230221CDE9000315AA0123D2
S31508001190504600F031FA11E7226D0123A2650022BC
S315080011A084F84330E26584F84630CAE600213C22DA
S315080011B015A8149101270AF09FFED4E91432934228
S315080011C004D884F8467041F2030345E7009314AA4D
S315080011D040232046CDE9017711A909F066FE41F2C0
S315080011E003030990099A9A4201D0099B34E70DF145
S315080011F0500C06F108030DF1680E624603CA7245E3
S3150800120018605960944603F10803F6D1106818600F
S31508001210337843F001033370CFE7337843F00403A0
S315080012203370179BB36273785F071CD50020236D54
S31508001230CDF850A0C4F8843094F84530606643F081
S31508001240020384F84530EF686FB104222B6814A9AD
S31508001250B847606E2B685A46EF6816A90830B84733
S31508001260636E103363660B2384F846307FE6337863
S3150800127043F002033370149B7360236D083B73625B
S31508001280159BB3F1006F05D0132384F8463041F25D
S315080012900103E1E6042384F8463094F8453043F028
S315080012A0010384F8453000236366AAE6042314AADA
S315080012B0009320464023CDE9017711A909F0F5FDF1
S315080012C041F203030C900C9A9A4201D00C9BC3E698
S315080012D0226D149B042A01D923660127636D032B0B
S315080012E0E4D9092384F846306DE7002363660723AB
S315080012F059E79F4252D89F4228BF1F46402314AA47
S315080013002046CDE90188009711A909F0CEFD41F2E2
S3150800131003030D900D9A9A4211D00D9B9CE600BFCF
S31508001320EB17A603F90707F9EB17A65E402F28BFA8
S3150800133040279F4228BF1F4627F00307DEE794F899
S3150800134046B0BBF1070F2FD0042FC7F1040A88BF98
S315080013504FF0000A14AB5246FF21D8190AF0CCFD0B
S31508001360BBF1090FBA442DD12B465246204614A983
S31508001370FFF74CFD0D900D9B002BCED1D4E91473CD
S315080013809F427FF6A9AEFF1ADDE912329B1A94F83E
S315080013904020032F1344ACD9032BC7D8204611A9E4
S315080013A009F062FD002357E6D5F808A0BAF1000F48
S315080013B0CAD02B683A46606E14A9D047636E3B4480
S315080013C06366DBE7BBF1040F1DD173789807D5D5A3
S315080013D0EB68002BD2D0626E042A0BD80AEB020304
S315080013E0062B07D915AB9B1A1A68C4F884204FF048
S315080013F0FF321A60EF682B685246606E14A9B84728
S31508001400636E5344DCE7BBF10B0FB7D1737859070A
S31508001410B4D5EF68002FEED1B0E74FF000618A6AC5
S31508001420496B1269503A91423FF631AF112B0FD1F1
S3150800143094F81831002B7FF44FAE41F206030E9351
S315080014400E9A9A4202D1132384F846300E9B03E67D
S3150800145094F84430002B7FF43FAECDE901334023A6
S3150800146014AA0093204611A909F01FFD41F20303AF
S315080014700E900E9A9A42E9D1E06C09F0AAFD94F80A
S315080014801831A3B104F1B4030093E06C04F194039A
S315080014901CAA14A900F0DCF80E900E9BA3B1002339
S315080014A0F370132384F8463041F20603D4E5D4F8E2
S315080014B04CA000F05DF9074600F078F93B4600902D
S315080014C01CAA504614A9E5E70123F37084F84430B2
S315080014D002E600234FF00408CDE9013314AA40239D
S315080014E02046CDF8008011A909F0DFFC41F203037C
S315080014F00F900F9A9A4202D00F9B049305E6D4F8F0
S3150800150088202F4B9A4205D0132384F8463041F29F
S315080015100503F2E70123F37094F84530DA0707D597
S31508001520EF682FB1424640462B6804F18401B8475C
S3150800153094F845309B0707D5EF682FB104222B682E
S31508001540104604F18401B847236E6BB36F685FB326
S315080015504FF0FF3304F180080422414610A8109387
S315080015600AF0A0FC20B1042241462B681548B8476A
S3150800157004F168090422494610A80AF093FC98B1B8
S315080015804FF000639B6A1422D3F8108004F16C01B3
S3150800159008F10800D5E90037B847D5E9003704222D
S315080015A0494608EB0200B8470123B3700E2384F8B6
S315080015B046300023A1E70023F37041F20700A5E5B2
S315080015C0E320BBDE0480010830B50824094B00255A
S315080015D05C66012403F5FE235C6001449D601A6184
S315080015E0DC60884201D1586A30BD10F8012B1A62B6
S315080015F0F7E700BF009000502DE9F04116464FF47A
S3150800160080621D46114B00F1200804469A66404642
S315080016100F4609F0B2FDDDE90612404609F0B1FDB4
S31508001620002384F8587063643368C4F859307368C3
S31508001630C4F85D30B368C4F861302B0C6DBA84F811
S315080016406530A4F86650BDE8F08100BF00900050F0
S315080016502DE9F04315464FF480621C46364B99B087
S31508001660DDF880900E4607469A66002861D0002964
S315080016705FD0002D5DD0002C58D0304B304AB9F1E0
S31508001680000F14BF984690461C22002111A80AF0A4
S3150800169033FC2C4B414610A8109309F016FD202167
S315080016A010A809F012FD0122274B01940292039318
S315080016B0CDF810900592069354B1B9F1000F07D0F2
S315080016C001A910A809F0EDFC04A910A809F0E9FC85
S315080016D0079701271C4C07A910A80897099409F031
S315080016E0E0FC0AA910A80A960B970C940D950E977C
S315080016F00F9409F0D6FC0DA910A809F0D2FC10A881
S3150800170009F0ECFC114B00934FF098435A6CD20247
S31508001710FCD55B6D40F2046003F470230093009BD4
S31508001720002B08BF002019B0BDE8F083DFF8108051
S31508001730AAE740F20160F6E7009000501F240080F7
S315080017401F24FC840000010620000020785634126D
S315080017504FF4806210B50446044B9A6609F03CFCC7
S315080017602046BDE81040002109F03ABC0090005020
S315080017704FF4806200B50B4B99B09A66002120227F
S3150800178068460AF0B9FB40230021684608AA01F01A
S3150800179037FA20F010000128034818BF002019B0B6
S315080017A05DF804FB009000504CE317084FF4806284
S315080017B000B50B4B99B09A660021202268460AF0BC
S315080017C09BFB40230021684608AA01F019FA20F07D
S315080017D010000128034818BF002019B05DF804FB63
S315080017E0009000506CE317080048704786E2170817
S315080017F02DE9F3471446DDE90A920D461F460028EF
S315080018004DD14CB313683F2B2AD8516851B325499B
S31508001810002F14BFB846884603F03F061B1913600D
S3150800182022BF536801335360FEB93F2C0ED9A30972
S315080018302A46009341463B46002000F083F824F0F0
S315080018403F031D4404F03F0434B1002622462946CE
S3150800185009EB06000AF058FB002002B0BDE8F08745
S31508001860B846D9E7DFF83C80D6E7C6F1400A5445C2
S31508001870ECD32946524609EB06000AF045FB01233C
S31508001880264400934A463B4641460020A6F14004BA
S3150800189000F058F83F2C5544D6D9B846C7E7024851
S315080018A0DBE700BF14C1000880AFFFFF2DE9F04158
S315080018B01746146886B01E46E3008DF80F30630994
S315080018C08DF80E30630B8DF80D30630D8DF80C30E6
S315080018D053680546DA0002EB54728DF80B2004F0C3
S315080018E03F045A09372C8DF80A204FEA53324FEA3B
S315080018F053538DF80920884694BFC4F13802C4F1C1
S315080019007802CDE900178DF808300D490346002006
S31508001910FFF76EFF08222B460020CDE900870DEB66
S315080019200201FFF765FF284605F1200350F8042B4E
S31508001930984246F8042BF9D1002006B0BDE8F0819C
S31508001940D4C00008F0B517464FF480621D46254BF3
S3150800195093B00E469A660446202200210AA80AF089
S31508001960CBFA01204FF00052019702900392049699
S3150800197005900692079508900992002C2FD1189C7D
S31508001980194BA40121460AA80A9309F09EFB039B5A
S3150800199004A91C430394069B0AA843F02003069354
S315080019A0099B43F02003099309F07BFB01A90AA8C8
S315080019B009F077FB07A90AA809F07DFB0AA809F030
S315080019C08DFB4FF098435A6CD202FCD55B6D13F42D
S315080019D0702F14BF6FF06F00002013B0F0BD6FF0CA
S315080019E07100FAE70090005000040103044BD3F895
S315080019F08420D206FBD4D3F88400C0F38110704744
S31508001A000040005038B5104B0546D3F880300C46D8
S31508001A1003F00303022B0BD0032B0DD0012B0FD1A0
S31508001A20FEF726FD0E2305B1286004B1236038BDF4
S31508001A30FEF768FD0723F6E7FEF714FD0623F2E72F
S31508001A4000231846EFE700BF0080005038B5184B52
S31508001A500546D3F820010C4600F00700062823D8CF
S31508001A60DFE800F0040A0E16121A1E00012305B15B
S31508001A70286004B1236038BDFEF7F4FC0523F6E7B9
S31508001A80FEF726FD0323F2E7FEF73CFD0723EEE704
S31508001A90FEF734FD0223EAE7FEF7E4FC0623E6E751
S31508001AA0FEF716FD0423E2E700231846DFE700BF2A
S31508001AB00080005038B5174B0546D3F828310C4638
S31508001AC003F00703013B052B20D8DFE803F00313D7
S31508001AD01B0F0B17FEF7C6FC052305B1286004B1DA
S31508001AE0236038BDFEF7BEFC0623F6E7FEF70AFDBF
S31508001AF00723F2E7FEF7ECFC0323EEE7FEF7E8FC24
S31508001B000423EAE7FEF7FAFC0223E6E70023184671
S31508001B10E3E700BF0080005073B50D460021114B66
S31508001B200191D3F88041064604F00304022C13D031
S31508001B30032C0CD0012C13D101A8FFF787FF102422
S31508001B400EB1019B336005B12C6002B070BDFEF783
S31508001B50D9FC07240190F3E7FEF7D0FC0190EFE7E4
S31508001B600C46EDE700800050002337B50193164B6D
S31508001B700546D3F820320C4603F00703042B21D878
S31508001B80DFE803F0030B11161B0001230DB1019AC0
S31508001B902A6004B1236003B030BD002101A8FFF715
S31508001BA089FF1223F2E7FEF7ADFC07230190EDE764
S31508001BB009F049F80A230190E8E7FEF7E5FC09234E
S31508001BC00190E3E70023E1E70080005038B5104BA9
S31508001BD00546D3F840310C4603F00303022B0BD01D
S31508001BE0032B0DD0012B0FD109F02DF80A2305B1CF
S31508001BF0286004B1236038BDFEF7C6FC0923F6E762
S31508001C0009F024F80C23F2E701230020EFE700BFD0
S31508001C1000800050002337B50193164B0546D3F8CC
S31508001C2060320C4603F00703013B032B1FD8DFE89D
S31508001C3003F0020E1914002101A8FFF707FF10236D
S31508001C400DB1019A2A6004B1236003B030BD0021AA
S31508001C5001A8FFF7BBFF1123F2E7FEF753FC0723A2
S31508001C600190EDE7FEF74AFC02230190E8E700231E
S31508001C70E6E700BF00800050002337B50193164BF6
S31508001C800546D3F894320C4603F00703013B032BB1
S31508001C901FD8DFE803F0020E1914002101A8FFF788
S31508001CA0D5FE10230DB1019A2A6004B1236003B052
S31508001CB030BD002101A8FFF789FF1123F2E7FEF7DF
S31508001CC021FC07230190EDE7FEF718FC022301909B
S31508001CD0E8E70023E6E700BF0080005038B5144B5C
S31508001CE00546D3F800020C4600F0070004281BD866
S31508001CF0DFE800F003090D111500012305B128607E
S31508001D0004B1236038BD08F09EFF0A23F6E7FEF704
S31508001D103BFC0923F2E708F099FF0C23EEE7FEF7F0
S31508001D20C1FB0F23800AE9E700231846E6E700BF50
S31508001D300080005038B5144B0546D3F808020C4607
S31508001D4000F0070004281BD8DFE800F003090D118E
S31508001D501500012305B1286004B1236038BD08F0D9
S31508001D6072FF0A23F6E7FEF70FFC0923F2E708F0ED
S31508001D706DFF0C23EEE7FEF795FB0F23800AE9E7D4
S31508001D8000231846E6E700BF0080005038B5104B20
S31508001D900546D3F840320C4603F00303022B0BD05A
S31508001DA0032B0DD0012B0FD108F04DFF0A2305B1E7
S31508001DB0286004B1236038BDFEF7E6FB0923F6E781
S31508001DC008F044FF0C23F2E701230020EFE700BFE9
S31508001DD00080005038B5104B0546D3F860310C46E4
S31508001DE003F00303022B0BD0032B0DD0012B0FD1CD
S31508001DF008F029FF0A2305B1286004B1236038BD1D
S31508001E00FEF7C2FB0923F6E708F020FF0C23F2E7EA
S31508001E1001230020EFE700BF00800050B0F5207FC7
S31508001E201FD009D8B0F5007F15D003D868B1B0F532
S31508001E30C07F0AD000200CE0B0F5607FFAD10B4BCA
S31508001E40D3F88000C0F3011003E0084B186FC0F305
S31508001E50033001307047054BD3F89000C0F3046097
S31508001E60F7E7024B186FC0F38020F2E700800050B6
S31508001E7002464FF48030104B10B598660020FFF7E5
S31508001E80CDFF504341F671320C4BDC69DA635A6870
S31508001E9004F4803422F4401259B90949884294BF9F
S31508001EA000200120000502435A600CB10022DA63C3
S31508001EB010BD0449F2E700BF00900050000003502F
S31508001EC0005A6202002D3101430905D0012B0CD0BE
S31508001ED0022B084B18BF002300F01F0039B103F589
S31508001EE08053012282401A607047034BF4E703F5DA
S31508001EF00053F6E768800050648000501FB5002143
S31508001F0080280446CDE9001100F0A58035D85E2862
S31508001F1046D85E2844D8DFE800F0A243434343434B
S31508001F204343434343434343434343434343434373
S31508001F3043434343434343434343A2AAA2AABABAE9
S31508001F40BABABAAAC44DDA714DAAAAAA43434343F8
S31508001F5043434343AAAAAA79E4AA434343434343D0
S31508001F6043434343434343BAA2A2A2DF4D4DE98804
S31508001F705EBF434343434399A200B0F5B06F00F0F8
S31508001F8090802DD8B0F5207F71D00CD8B0F5C07FE1
S31508001F9065D0B0F5007F65D0B0F5807F00F086800B
S31508001FA0009804B010BDB0F5607F6BD00DD8B0F5C1
S31508001FB0407FF5D1FEF776FA02464FF42070FFF718
S31508001FC02DFFB2FBF0F252085AE0B0F5806F5ED0F2
S31508001FD0B0F5A06FE4D100216846FFF7C5FDDFE73D
S31508001FE0B0F5106F78D016D8B0F5E06F79D00AD86A
S31508001FF0B0F5C06F6BD0B0F5D06FD1D1002168466F
S31508002000FFF76CFECCE7B0F5F06FC9D10021684642
S31508002010FFF7E0FEC4E7B0F5406F3DD013D8B0F542
S31508002020206F63D0B0F5286FBAD10021324B0391E7
S31508002030D3F8703203F00303012B02D103A8FFF78C
S31508002040C5FD039B3CE0B0F5486FA9D10021684661
S31508002050FFF712FEA4E7FEF70BFA0090A0E7FEF7DB
S3150800206021FAFAE7FEF704FA0246204604E0FEF7EC
S3150800207019FA02464FF42070FFF7D0FEB2FBF0F2D1
S3150800208000928DE701A8FFF7BDFC019AEDE7002154
S315080020906846FFF7DBFC83E700216846FFF70AFD81
S315080020A07EE700216846FFF737FD79E74FF0E02322
S315080020B002911B695B0705D5FEF7F4F90290029BAE
S315080020C000936DE703A902A8FFF780FDF7E7002153
S315080020D06846FFF77BFD63E700216846FFF72AFE9F
S315080020E05EE700216846FFF751FE59E7002168467A
S315080020F0FFF790FD54E700BF0080005008B5802028
S31508002100FFF7FCFE034B98429EBF4FF48032024B0A
S315080021101A6708BD005A620200A000501FB50346A0
S315080021200020B3F5807F019000F0C18064D85D2B54
S3150800213055D84C2B07D82D2B48D8232B2CD80198AB
S3150800214005B05DF804FB4D3B102BF8D801A252F8F8
S3150800215023F000BFA52200083F2100083F21000800
S315080021603F2100085B2200083F2100083F210008A4
S3150800217029230008792200081F2200081F230008C7
S315080021803F2100083F2100083F2100083F210008A1
S315080021903F21000833230008243B092BCFD801A28E
S315080021A052F823F0A5220008A5220008A522000857
S315080021B0A5220008A52200083F2100089B22000846
S315080021C03F2100083B220008DB2200083D2B7FD078
S315080021D03E2BB4D1002001A9FFF7D8FDAFE7802B2D
S315080021E0ADD1594B1B6F03F00703013B032BA6D850
S315080021F0DFE803F0514E858DB3F5F06F68D021D82E
S31508002200B3F5B06F49D00FD8B3F5607F00F083807F
S3150800221095D3B3F5806F45D0B3F5A06F8FD1002065
S3150800222001A9FFF7A1FC8AE7B3F5D06F55D0B3F53E
S31508002230E06FCFD0B3F5C06F81D1002001A9FFF7B9
S31508002240C5FC7CE7B3F5206F6ED00BD8B3F5086FE5
S3150800225048D0B3F5106F7FF472AF002001A9FFF7DD
S3150800226069FD6CE7B3F5406F59D0B3F5486F60D098
S31508002270B3F5286F7FF463AF334BD3F8703203F0AE
S315080022800303012B5AD0022B0CBF1523002300E0B1
S315080022900523019353E70223FBE7002001A9FFF773
S315080022A03BFC4CE7002001A9FFF7D0FB47E74FF0BE
S315080022B0E02302901B695B0705D5FEF7F3F80D23AB
S315080022C00393039BE5E703A902A8FFF77FFCF8E75A
S315080022D0002001A9FFF77EFD31E7002001A9FFF7DD
S315080022E0FDFC2CE7184BD3F8003103F00303022B4F
S315080022F007D0032B09D0012B0BD1FEF7E9F80323EE
S31508002300C7E7FEF741F90923C3E708F09AFC082353
S31508002310BFE70123BDE701A9FFF774FB0FE700201C
S3150800232001A9FFF7C7FB0AE7002001A9FFF772FC1E
S3150800233005E7002001A9FFF79FFC00E7002103A895
S31508002340FFF744FC1123A4E7008000504FF48012E5
S31508002350034B5A664FF48032024B9A62704700BFAD
S31508002360009000500050005A38B504468020FFF708
S31508002370D5FE032800F083804FF48012524B4FF0AD
S31508002380A0615A6645F60E02504BC3F88020504AA3
S3150800239091624FF4803102F5805291629A6DD203B0
S315080023A0FCD4996D11F08041FBD1D4E900021205E5
S315080023B042EA0062E07B0243207B42EA0042607BFD
S315080023C042EA0032A07B42EA80121A619869D4E98F
S315080023D00452120642EA856200F000400243A07EDB
S315080023E0E57E0243207E42EA0042607E42EA0022FF
S315080023F09A611A6AE06922F00F0242EA8502354DAF
S3150800240000283DD11A6294F82420996A94F820008D
S31508002410D200294042EA40120A4394F8211042EABF
S31508002420011242F480329A622B49284A936D31EAA6
S315080024300303FBD14FF08071254881621369A568B3
S3150800244023F4700343EA055313614FF00043836195
S3150800245094F822300BB9214B996294F823303BB992
S315080024604FF480321D4B9A62184A936D5B00FCD478
S3150800247094F825301BB1154B194AC3F8802038BD8E
S31508002480024342F0080202281A6208D119614FF481
S315080024900852996113484FF47F4108F0BAFD0B4979
S315080024A094F822308A6A94F820001B062A4043EAE8
S315080024B04013134394F8242043EAC20394F82320D4
S315080024C043EA02438B62D3E7009000500040005A6B
S315080024D00050005AC7FFFEFE030001000060005AC4
S315080024E0F1A7FFFF3440005A014B93F900007047EB
S315080024F078100020014B1880704700BF6810002034
S31508002500B0F5207F10B50C465DD008D8B0F5007F31
S315080025104ED003D8C0B1B0F5C07F15D010BDB0F508
S31508002520607FFBD12C4B4C1ED3F8FC202B4912F0B4
S31508002530807F4FEA041427D1D1F8803023F0300386
S315080025402343C1F88030E9E708F072FD08F07EFD04
S315080025504FF48031224B214A1967136F013C23F44B
S31508002560704343EA04331367FDF79CFF0446FFF7FD
S315080025703DFAC0F10201204608F062FD00F042F87B
S31508002580BDE81040FFF7BABDD3F8FC2022F08072F0
S31508002590C3F8FC20D1F8802022F030022243C1F88B
S315080025A08020D3F8FC2042F08072C3F8FC20B5E7FF
S315080025B00A4A4C1ED2F8903023F0F85343EA0463D3
S315080025C0C2F89030AAE7054A4C1E136F23F48063BD
S315080025D043EA84231367A1E700ED00E0008000507A
S315080025E00090005008B50121022000F025F808F0F7
S315080025F01FFD08F02BFD4FF48032014B1A6708BD0A
S315080026000090005008B54FF4C070FFF777FCBDE89E
S3150800261008400449884294BF012102214FF42070E2
S31508002620FFF76EBF80F0FA02024A536B0342FCD1F1
S31508002630704700BF00400950F8B504461C4BD3F854
S315080026408420D106FBD4D3F88430C3F381139C428B
S315080026502CD0FDF70DFF012C064602D1214608F0C5
S31508002660EFFC08F00DFD4FF00072124B07465A6654
S31508002670204608F015FD4FF480630D4D621E934009
S315080026802B676B6E9A0103D4D5F884309B060AD55E
S31508002690384608F0F9FC022C08D13046BDE8F84067
S315080026A0002108F0CDBCD5F88430EAE7F8BD00BFB4
S315080026B0004000500060005010B50C4608B9FDF700
S315080026C0D7FE074B21461B783BB1064B984204D8E8
S315080026D00120BDE81040FFF7AFBF0220F9E700BFB1
S315080026E0B8230020005A62024FF0004238B5244B46
S315080026F0244C5A664AF6CD33656C014605F0010549
S31508002700236428BB0120FFF78FFF6368DB0715D515
S315080027101D4B586008461D4B226BD2070CD49842B5
S3150800272008D1072415B1174B194A1A6409F0B2F8EB
S31508002730204638BD0130EFE79842F2D00024F1E791
S315080027400132236B13F0080305D08A42F8D1E8E773
S3150800275000220E49F5E78A42E3D020210A4A91620F
S315080027600121A2F5805251600649084A886A800606
S3150800277003D49342D5D00133F8E79342DDE700BF8F
S3150800278000900050004009500060095040420F0078
S315080027903254FFFF4FF0004238B5164B01465A66D1
S315080027A04AF6CD33144C154A656C236443780B20DE
S315080027B05B0043F00103D363FFF736FF63688A784B
S315080027C023F4F87343EA02136360CA784B7943EA41
S315080027D00223A3600A798B7943EA022323610878E6
S315080027E0FFF782FFEB0744BF054B236409F052F855
S315080027F0012038BD009000500040095000400050AC
S315080028003254FFFF4FF00042124B70B55D6E03F570
S3150800281080535A664AF6CD3304460F4980204E6CDB
S315080028200B64FFF701FF0B6A23F00F030F2C94BF0D
S31508002830234343F00F030B62F30744BF074B0B64B4
S31508002840002DA2BF4FF00042054B5A6609F022F848
S3150800285070BD00BF00800050004009503254FFFF91
S3150800286000A000504FF00042104B70B55D6E03F5A6
S3150800287080535A664AF6CD3304460D4980204E6C7D
S315080028800B64FFF7D1FE0B6A23F4F85343EA0423DB
S315080028900B62F30744BF074B0B64002DA2BF4FF032
S315080028A00042054B5A6608F0F5FF70BD00800050DF
S315080028B0004009503254FFFF00A00050F0B5114AFD
S315080028C0114C124E00F00105E3695F0713D40DB9E8
S315080028D0334213D103EA00078F4207D10B4A1A4045
S315080028E0002A0CBF00206FF00100F0BD013AEBD1C1
S315080028F06FF00200F9E74FF0FF30F6E76FF00100DE
S31508002900F3E700BF8096980000000350020001001C
S315080029104FF4803238B50E4B0E4C9A66E56941F68F
S31508002920713315400122E3630B4B0021DA60022361
S31508002930606121202361FFF7C1FF10B92120FFF74D
S31508002940BDFF0122054BDA600DB10023E36338BDF4
S315080029500090005000000350001003500020035060
S315080029602DE9F04F01274FF4302530268400DFF893
S31508002970C0C004F1A04404F58824CCF8047065604E
S3150800298000244FF48035DFF8ACE0DFF8AC9006FBA6
S3150800299000E6F46534663467234CDFF8A0A0A56624
S315080029A041F6713504F51C34D4F81C80E563E568F6
S315080029B007FA00F03D43E5604BB9E26818F4803F3A
S315080029C022F00102E26029D10020BDE8F08F01F56E
S315080029D0005505EA09056D1A9D4228BF1D46616125
S315080029E0D4F81CB0AF081BF0040F19D1013F3F0102
S315080029F047F060577766B266C6F86CA0CCF8240034
S31508002A00DEF834703842FBD0084F2944786304272F
S31508002A10CCF828002A4427615B1BCDE7E363D3E79C
S31508002A204FF0FF30D1E700BF00900050002004505F
S31508002A30001004500000045000E0FFFF1800035087
S31508002A404FF48032064B5A6603F5E6239B69C3F3B7
S31508002A508512827003F03F021B0B427003707047A9
S31508002A6000900050014B986CD96C70470080E00FBD
S31508002A7038B50446054D08F020FF0FCC0FC594E87D
S31508002A80030085E80300002038BD00BFEC120020D3
S31508002A9047F6FF739A42F0B56FD002296FD8394BC3
S31508002AA05B5C012B6BD8384DDF0005EBC30415F8CA
S31508002AB03330A178012B13D10025E078401AA842BB
S31508002AC002D80844C0B2F0BD431B6668A0EB5303A6
S31508002AD036F913609642D4BF1D4603F1FF30EEE780
S31508002AE060680028EFD0B0F90040944204DBB0F9E2
S31508002AF002409442B8BF144683883D44FF2B19BF51
S31508002B00C8224FF0280CB0F90620B0F908C0A2EB8D
S31508002B1004030CBF0126002693FBFCF333446E78AE
S31508002B201BB29E4201DD002B01DA731E1BB24FF465
S31508002B307A7C01339BB2071D5D1E2DB24FEAC50E86
S31508002B4000EBC505EA88AD689E4214FB025222EAEC
S31508002B50E27202F15C02B2FBFCF204DD37F8335094
S31508002B6001339542E8D200EB0E039888904228BFBD
S31508002B701046884238BF0846A4E7FF20A3E700208E
S31508002B80A1E700BF34C10008EC1200200148FFF796
S31508002B906FBF00BF38C10008004870476A100020A0
S31508002BA04FF48062014B00209A66704700900050EF
S31508002BB04FF48062014B00209A66704700A00050CF
S31508002BC008B5B0B14FF480620B4B9A6608F086FAE6
S31508002BD04FF098435A6CD202FCD54FF48062586D78
S31508002BE0064B10F470209A6604D0BDE8084008F039
S31508002BF096BA212008BD00BF0090005000A00050E2
S31508002C001FB5044660B35AB3402B29D1930727D181
S31508002C10042925D8DFE801F0031A24221E004FF400
S31508002C20807310490B4323600023C4E90133E36131
S31508002C300123019202930C4B204601A9039308F045
S31508002C403AFA2046FFF7BCFF04B010BD4FF40073F4
S31508002C500449E7E705494FF48063E3E70149FAE7E2
S31508002C602120F1E7010008FF40000020000008FFCE
S31508002C702DE9F041012905460E4690461F4692B0B9
S31508002C804AD8046824F04003802B02D0B4F5807F2C
S31508002C9045D11C2200210BA809F02EF9234A244B02
S31508002CA00121012E08BF13460A932B1D0193E40840
S31508002CB0204B44F0005402910AA80394CDF81080E2
S31508002CC0059106930797089101A9099308F0E9F970
S31508002CD004A90AA808F0E5F907A90AA808F0EBF973
S31508002CE029680AA8C90808F0F0F910210AA808F006
S31508002CF0ECF9FFF755FFA8B90AA808F0EFF94FF065
S31508002D0098435A6CD202FCD55C6DFFF751FF04F468
S31508002D10702012B0BDE8F0816FF02000F9E76FF07F
S31508002D207100F6E74FF0FF30F3E700BF000100043B
S31508002D3000010104100000202DE9F04F07468946DE
S31508002D409846164699B082B115683B6823F040024A
S31508002D50802A03D0B3F5807F40F0A68000244C4536
S31508002D6005D306B1356000207BE01546EDE75DB179
S31508002D70239B229A1B5D525D01355340249A05F028
S31508002D800F0513550134EAE7A9EB040ABAF10F0F48
S31508002D900BD8239B03EB040A249B1C44239B03EBBD
S31508002DA0090BDA4560D14C46D9E71C22294611A8F9
S31508002DB009F0A2F83E4B3A6810933B1D0193012394
S31508002DC0D20842F00052029303923A4ACDF8108094
S31508002DD005930692CDF81C8008930992239A2499A4
S31508002DE022442AF00F0A0A9221444AF000520B9311
S31508002DF010A80C920D9101A90E930F9208F051F9A3
S31508002E0004A910A808F04DF90AA910A808F049F96C
S31508002E100DA910A808F04FF907A910A808F04BF952
S31508002E20396810A8C90808F050F9514610A808F0E2
S31508002E304CF9FFF7B5FE90B910A808F04FF94FF016
S31508002E4098435A6CD202FCD5586D544400F4702B42
S31508002E50FFF7AEFEBBF1000F9BD0584601E04FF0DE
S31508002E60FF3019B0BDE8F08F55B1229A1AF8013B28
S31508002E70525D0135534004F8013B05F00F0590E714
S31508002E80424601213846229BFFF7F2FE0028E8D188
S31508002E9008F1100212F8013D0133DBB21370002B62
S31508002EA0E3D19045F6D1E0E76FF01F00D9E700BF00
S31508002EB0030300041000002007B5094B18689A8818
S31508002EC09B7900906846ADF804208DF80630FFF728
S31508002ED061FC0C20FFF796FC002003B05DF804FBAC
S31508002EE028D0000830B58BB06C46174D0FCD0FC4EF
S31508002EF00FCD0FC495E8030084E80300134BD3F8FD
S31508002F004C2112031CD5A3F5FE431C884FF6FF730C
S31508002F109C4208BF64248DF81940FFF7E5FA20445F
S31508002F2080F308008DF818000948FDF7D7FA6846B7
S31508002F30FFF71AFA3220FFF7DDFA00200BB030BD92
S31508002F40D3F85041E4B2E6E730D000080080E00F3D
S31508002F50C0175302014808F091B900BF04130020B6
S31508002F60014808F060B900BF04130020014800F0CA
S31508002F7053B800BF041300200A460146014800F072
S31508002F807BB800BF04130020014800F0B5B800BFA5
S31508002F90041300201FB50A79064B02920A68083105
S31508002FA00192022200920CCB08F048FA05B05DF8AF
S31508002FB004FB00BF64D0000830B50B7985B0033335
S31508002FC0029301F14403019302230C460546114A74
S31508002FD0009314310CCA08F031FA238A04F12C0143
S31508002FE00293E36828460193237A009394E80C0039
S31508002FF008F024FA0546237AA4F8450022792168C0
S3150800300084F8443004F1470008F07EFF284605B0EE
S3150800301030BD00BF5CD0000838B50546124B134CCE
S3150800302094E8030083E8030019462846FFF7B2FF31
S31508003030D4E9020110220E4B83E8030019462846FC
S315080030401A72FFF7B9FFD4E904010222094B1834B2
S315080030501A7283E80300DC60194628461A82BDE81E
S31508003060384008F0E9B800BF0814002078D00008F6
S31508003070B013002084130020F8B504460D4B0E4DFE
S315080030800F46D5E9070183E8030019462046164688
S31508003090FFF780FFD5E909010222084B1A7283E877
S315080030A00300DF60194620461E82BDE8F840FFF798
S315080030B083BF00BF6413002078D000080C130020DB
S315080030C010B50C4630B907F0CBFD034B18602360EA
S315080030D00423A380002010BD5816002010B50C4606
S315080030E030B907F0BBFD034B186023600423A380A7
S315080030F0002010BD5C1600202DE9F74306466D46F4
S315080031004FF00809404C414B414F94E8030083E8CF
S31508003110030019463046FFF73DFFD4E9020187E868
S31508003120030028463B4987F8089008F080F895E898
S31508003130030007F10C0383E8030039463046FFF71E
S315080031403BFFD4E904010C234FF00208324F87E80D
S315080031500300284631493B7208F069F895E80300F0
S3150800316007F10C0383E8030039463046FFF724FFCE
S31508003170D4E906012A4B2B4A83E803001946304650
S3150800318083F80880DA60A3F81090FFF715FFD4E9F2
S315080031900801254B254A264FDA60012283E80300F9
S315080031A0194630461A8283F80880FFF705FFD4E9E6
S315080031B00A0187E8030028461E4987F8088008F0B0
S315080031C036F895E8030007F10C0383E8030039464F
S315080031D0194F3046FFF7F0FED4E90C0187E80300E3
S315080031E02846164987F8088008F021F895E803006C
S315080031F007F10C0383E803003946304603B0BDE8FF
S31508003200F043FFF7D9BE00BF2CD1000838160020BE
S31508003210E0150020C5B2000888150020ADB20008E8
S315080032203015002022D10008D814002021D100082A
S3150800323080140020DD30000828140020C130000862
S315080032407FB500230130CDE9043380B2054BCDE9C3
S315080032500101694604200093039208F010F907B0AB
S315080032605DF804FBB92300201B22014B1A80704726
S3150800327094230020F7B50346CDE9001207460E460B
S3150800328015464FF48040094A094908F00AF8002211
S31508003290012311460420074C237067706680257148
S315080032A003B0BDE8F040FFF7CBBF00BF04D300086A
S315080032B064D10008B9230020034610B5094A04461C
S315080032C009494FF4804007F0ECFF0322074B022020
S315080032D01A700022A3F801401146BDE81040FFF716
S315080032E0AFBF00BFEDD2000898D10008B92300206F
S315080032F030B50C4685B004A901E90C00054603461D
S315080033000A4A4FF480400A49009407F0CAFF05228A
S315080033100320084B02991A709DF80C205D705C809A
S3150800332005B0BDE83040FFF78BBF00BFD2D200081A
S31508003330A4D10008B923002037B5034605460C4634
S3150800334000914FF48040094A094907F0AAFF07226D
S31508003350084B04201A7000221146A3F80150A3F85E
S31508003360034003B0BDE83040FFF76ABFB7D2000894
S31508003370C8D10008B923002038B5094A05460C46C5
S315080033800B464FF48040074907F08BFF0B22064B8C
S3150800339029461A7000202246BDE83840FFF750BF7C
S315080033A0A7D20008EDD10008B923002008B54FF4CC
S315080033B08040074A074907F074FF1322064B1A7024
S315080033C00022BDE8084011461046FFF739BF00BF86
S315080033D096D20008FCD10008B923002073B503462D
S315080033E0144605460E4600924FF48040084A09499D
S315080033F007F057FF0922084B31461A70A21C5A706B
S31508003400032022465D8002B0BDE87040FFF718BF72
S3150800341080D2000802D20008B92300202DE9F34122
S315080034201C469046CDE9001307460E4603460A4A4F
S315080034304FF48040094907F034FF112322464146DC
S315080034400520074D2B70231D6B706F80AE8002B070
S31508003450BDE8F041FFF7F4BE65D2000820D20008A7
S31508003460B923002070B50D4603780C4A04460C496A
S315080034704FF4804007F015FF00230A4E691E2046C8
S3150800348089B2738000F040F8024628B17188207826
S31508003490BDE87040FFF7EEBE70BD00BF5DD2000804
S315080034A04AD2000894230020024610B5F8B1114B01
S315080034B01968888890421AD398880024904281BF58
S315080034C001200968988099609868998820B904B19C
S315080034D098604FF6FF7203E08A4203D10CB19860F8
S315080034E09A8010BD01310124006889B2EEE70020F8
S315080034F0F7E700BF601600204FF6FF72014B186011
S315080035009A807047601600202DE9F0470578044632
S31508003510122D0E4688B017D8012D18D9AB1E102BC0
S3150800352015D8DFE813F0160014002F0014005A000F
S3150800353014000D0114009F00140014001400140058
S31508003540140050011400CC00522D00F0DE80062530
S315080035503FE0022940F0B481B0F80130B24A4FF496
S315080035608040B24907F09DFEB4F80140B4F5007FEB
S3150800357028BF4FF400742046FFF79EFEAC4B1C8014
S31508003580002526E0042924D1B0F80330A94A00937F
S31508003590B0F80130A8494FF4804007F082FEB4F82D
S315080035A0017006ACBEB22146304607F0C5FE054698
S315080035B018B19F4B5F800A250BE09DF81C303146F9
S315080035C0022B18BF022094E80C0008BF0120FFF761
S315080035D08FFE284608B0BDE8F08702278E1FB6B2D0
S315080035E00196B0F80330954A0093B0F80130944933
S315080035F04FF4804007F055FE04F10508E31D0196D7
S3150800360000938DF81470CDF810804246059BB4F8E7
S315080036100310B4F8010007F09CFE4FF6FF76B0429F
S31508003620054606D1A278637843EA0223804A538086
S31508003630C1E70023CDE90033CDF818808DF81C705A
S3150800364008AB0130314613E90C0080B207F081FE61
S315080036500146B0421CBF00F1FF3189B22846FFF788
S315080036606BFE8DE7022940F02B81B0F80130754AD0
S315080036704FF48040744907F014FE3146B4F801004F
S3150800368007F0B9FE6A4E054628B16378A27843EA80
S31508003690022373809DE733880146013BADF810305D
S315080036A0B4F8010004AB06AA07F0B7FE05460028E1
S315080036B0EBD1BDF810100698FFF75EFE89E78E1E5F
S315080036C0B6B20096B0F80130604A4FF480406049BF
S315080036D007F0E7FD0821B4F8010007F08CFE05465F
S315080036E030B1A278637843EA0223514A538070E7DF
S315080036F001463346B4F80100E21C07F063FE0546AE
S315080037000028EED1FFF752FE3AE78E1EB6B20096B3
S31508003710B0F801304F4A4FF480404D4907F0C1FDDB
S315080037200421B4F8010007F066FE014600287FF47C
S3150800373027AF3346B4F80100E21C07F043FE1FE743
S315080037400E1FB6B2022E02D0102E40F0B980002508
S31508003750B4F803304FF480400093B4F801303E4A81
S31508003760354907F09EFDCDE90055631D06938DF892
S315080037701C6008AB13E90C00B4F80310B4F8010098
S3150800378007F0E7FD4FF6FF7398420646284F05D126
S315080037906378A27843EA02237B800CE73B882946B4
S315080037A0043BADF80E3004AA0DF10E0307F035FE02
S315080037B0054608B17E800CE73046BDF80E20049910
S315080037C0FFF70CFE05E70E1FB6B2022E01D0102E2B
S315080037D076D10025B4F803304FF480400093B4F84E
S315080037E001301E4A144907F05CFDCDE9005504F185
S315080037F0050AF6B28DF81460CDF810A05246059B5E
S31508003800B4F80310B4F8010007F0A3FD4FF6FF79EA
S3150800381048450746DFF8188022D16378A27843EA3C
S315080038200223A8F80230C6E6D0D3000898D10008CB
S3150800383094230020BDD3000815D30008AAD3000896
S3150800384033D30008A2D300085CD3000899D3000834
S3150800385002D2000890D3000882D300086FD300086C
S31508003860CDE90055CDF818A006AD8DF81C600130DD
S3150800387095E80C00494680B207F06BFD0446B8F897
S3150800388000304845A3F1060318BF00F1FF342A4665
S31508003890ADF80E304FF0000138460DF10E0318BF93
S315080038A0A4B207F0BAFD054610B1A8F8027090E672
S315080038B021463846BDF80E30069AFFF7AFFD88E672
S315080038C0042586E60022014B1A6070476C16002014
S315080038D003291FB503460A461CD90188081D8242DA
S315080038E018D304D85888042805D0062807D00120FC
S315080038F005B05DF804FB181DFFF7B4FDF7E70023D4
S31508003900CDE90233044B694600930223019307F07D
S31508003910B6FDECE70020EBE77910002037B500226A
S315080039200DF10700114600F05FF89DF807300C4CC2
S315080039300BB10023236021680A4DC1F5017292B2CA
S3150800394029440DF1070000F04FF82368C1182846EE
S315080039502160FFF7BDFF08B10023236003B030BD27
S315080039606C1600207016002010B504464FF48073BC
S3150800397000210E4A0E4807F015FE4FF48073002109
S315080039800C4A0D4807F00EFE2046FCF7F1FB07F03F
S31508003990CAFD00F02BFD07F0F8FE830705D500F0F9
S315080039A0EFFBBDE8104000F045BA10BDA419002091
S315080039B08C180020A41800207418002008B5134697
S315080039C00A460146024807F0ABFEC0B208BD00BF72
S315080039D08C18002008B5034807F0EDFD003818BF1D
S315080039E0012008BD8C180020F8B50E461746044677
S315080039F007F046FB214605463B463246044807F093
S31508003A008FFE0446284607F03FFB2046F8BD00BF58
S31508003A107418002008B5034807F0CDFD003818BF14
S31508003A20012008BD74180020F8B50E46174604464E
S31508003A3007F026FB214605463B463246044807F072
S31508003A403AFE0446284607F01FFB2046F8BD00BF8D
S31508003A508C18002010B50C460146044807F08AFE6B
S31508003A60A04234BF0020012010BD00BF74180020FA
S31508003A70F8B50F46114606461546FFF7EBFF04460E
S31508003A8028B12B463A463146024807F014FE20462E
S31508003A90F8BD00BF7418002010B5034CA07900F0DB
S31508003AA0FFFD0023236010BDA41A00201FB50B4C90
S31508003AB00B4AA37A0B490393637A4FF48050029317
S31508003AC0237A0193E3790093A37907F0EAFBA01D13
S31508003AD000F06AFD0023236004B010BDA41A00207C
S31508003AE06FD50008DFD300081FB5104C104AB4F88C
S31508003AF00D304FF480500293B4F809300D49019304
S31508003B00A3790093B4F8073007F0CBFBB4F8071095
S31508003B10A07900F07BFDB4F80D10B4F8090000F0A8
S31508003B2089FD0023236004B010BD00BFA41A00203D
S31508003B3041D5000808D40008014B998018607047E1
S31508003B40A41A00200022014B1A607047A41A00200C
S31508003B50034A13681BB19288824200D118477047FE
S31508003B60A41A0020014B187018467047C02300207D
S31508003B70162838B503464FF0020514BF034613232B
S31508003B800B4C0C4A4FF480500B496370257007F0B4
S31508003B9088FB2946204600F065FD00F0E3FE074B4A
S31508003BA0074A05301A60627898809A7138BD00BF56
S31508003BB0C0230020BAD500083FD40008A41A002064
S31508003BC0993A000830B504460378794A4FF480508C
S31508003BD0784985B007F065FB23780C2B0AD80C2B9F
S31508003BE00BD8DFE803F05A3F790A0A0A0A0A890A53
S31508003BF00A0A1600142B00F0A580204600F020F9CA
S31508003C00002867D1072223786B4802210270437087
S31508003C1023E0A3884FF4805001936388674A009392
S31508003C206378674907F03DFB4FF0FF32624C0C237F
S31508003C30A2700222E270002223706271012340F210
S31508003C40FF22637023715E4900924FF480505D4AEB
S31508003C50019307F026FB0621204605B0BDE8304053
S31508003C6000F000BDE388584A58494FF4805007F0E1
S31508003C7018FBE179A379564A43EA01239380134650
S31508003C80544943F8061BD4F80110C2F80610B4F8D4
S31508003C9005209A80E2799A711CE063894E4A4B495D
S31508003CA04FF4805007F0FDFAE27AA37A484943EACE
S31508003CB002238B800B46494A43F8062BD4F8012089
S31508003CC0C1F80620D4F805205A60B4F809201A81EC
S31508003CD0E27A9A7205B030BD6378414A4FF4805053
S31508003CE0404907F0DEFA00F03DFE394B3E4A053002
S31508003CF01A6098806278CEE7D4F80530D4F80120A7
S31508003D003A49CDE900234FF48050394A07F0C9FAF9
S31508003D1000F00AFAD4F80130274C63F0FF03184084
S31508003D2009252346002203F8015BC4F801002F4940
S31508003D305A60CDE900024FF480502E4A07F0B1FAD6
S31508003D40294689E7B4F807302B4A0293B4F80530B8
S31508003D504FF480500193B4F8033028490093B4F81F
S31508003D60013007F09EFAB4F80310B4F8010000F029
S31508003D706FFC1523104C6FF0270223700723E2709F
S31508003D802371E271237200216FF004004FF4FB6285
S31508003D90FB236070A1706071A1714FF48050CDE96A
S31508003DA0013216490092164A07F07BFA092153E7B1
S31508003DB0B1D5000855D40008C0230020A6D50008B0
S31508003DC066D4000897D5000889D5000897D4000856
S31508003DD0A41A0020AD3A00085BD50008E93A0008A5
S31508003DE034D500083FD40008993A0008A7D400083B
S31508003DF029D500081AD5000810D50008C0D400082F
S31508003E0002D5000810B5084B4FF480509C79074A34
S31508003E102346074907F045FA204600F013FCBDE89B
S31508003E201040FFF78FBE00BFA41A002029D600084D
S31508003E30CBD500080122014B1A707047CC2300200D
S31508003E40244B73B51E7804462EB10378162B05D07D
S31508003E50182B28D00026304602B070BD83781E493C
S31508003E60009343781D4A4FF4805007F01AFA637896
S31508003E70A278172003EA020404F00304022C18BFF0
S31508003E800124FFF76FFE05464470847023464FF4FD
S31508003E908050134A1049009407F003FA0221284675
S31508003EA007F03EFBD7E7B0F803300E4A0193837854
S31508003EB00D49009343784FF4805007F0F2F9B4F8AF
S31508003EC003100A48FFF738FED4F80120084BC3F858
S31508003ED00620C0E7CC230020DBD5000854D600080E
S31508003EE049D600083CD60008FBD50008053E000860
S31508003EF0A41A002013B50D4B01281B880C4CADF8ED
S31508003F000030ADF8043002BF02238DF800300423D8
S31508003F106946206808BF8DF8043007F08EFC2068D3
S31508003F2001A907F0A0FC02B010BD00BF83D60008A7
S31508003F30D81A002070B5334C11464FF4867086B0F7
S31508003F401E46154607F0B0F9236933B929464FF4DA
S31508003F50837007F0A9F906B070BDA5F108023243CF
S31508003F6021D101AA0321206807F0E0FC636860619B
S31508003F705B7A04F1180123769DF804300220DA1FD3
S31508003F8053425341627E63F30002039B6276E36108
S31508003F90BDF806306383236998470122002120680B
S31508003FA007F0CAFCD7E705F17F42324305D1002165
S31508003FB0012006B0BDE87040184715F4A04209D0A4
S31508003FC04FF480714FF4817007F06EF900210320D9
S31508003FD02369EEE705F4A0631A4308D001214FF4DC
S31508003FE0817007F061F90021FF202369E1E705F0F8
S31508003FF0A0421A4319BF012140F2011029464FF485
S315080040008370EEE7D81A00200A46014602484FF4A4
S315080040100073006807F086BCD81A0020F0B504467D
S31508004020154D164A6B68807A5B7A85B0D75C0E4662
S31508004030FFF760FF237A022B0DD1002339461A4673
S31508004040286800F019FD98B10021FF20334605B015
S31508004050BDE8F040184700222168009203920291B9
S315080040608DF80C303946286802AB00F013FDEAE7F4
S315080040702E6105B0F0BD00BFD81A00205BD6000837
S315080040802DE9FF4104461B4D1B4A6B68807A5B7A13
S315080040900E46D75CFFF72EFF237A4FF00108022B56
S315080040A008BF01238DF80430636818BF226803F13E
S315080040B0640308BF00220293637A002439460092FB
S315080040C08DF80C306A46234628688DF80D808DF8E1
S315080040D00E4000F0EBFC074642462146286807F0EA
S315080040E02BFC2FB12146FF20B04704B0BDE8F08174
S315080040F02E61FAE7D81A00205BD6000808B5002119
S315080041004FF4857007F0D0F80022044B03211A619A
S3150800411018680122BDE8084007F04EBBD81A0020EF
S3150800412000487047E01A0020014B188C704700BF02
S31508004130D81A00207FB502238DF80630064B5A8B15
S3150800414059690332ADF8042018686A4607F0F2FB8D
S31508004150009807B05DF804FBD81A0020002313B5B1
S31508004160064C60600093437AD0E90021206807F086
S315080041701FFC00F00DF802B010BD00BFD81A0020D1
S31508004180024A138C43F4807313847047D81A0020AC
S3150800419038B50D4C238CDB050CD563680B4D1B7AA3
S315080041A02A789A4206D0012B05D0022B07D06368DD
S315080041B01B7A2B7038BD206800F002FFF7E72068ED
S315080041C000F004FFF3E700BFD81A0020CD23002033
S315080041D010B50024064B1C60064B1C7007F0CEF980
S315080041E0B0FA80F3044A5B091370044B1C7010BDC7
S315080041F0FC1A0020D0230020CF230020CE23002045
S3150800420010B5074B1C782CB9064B1B7833B107F051
S31508004210BDF9044600F066F8204610BD8124F9E78A
S31508004220D0230020CF23002038B50A460F4903467D
S315080042300978C1B10E49087850B90E4C24783CB9B2
S315080042400D4C20681518B5F5806F02D982200870C4
S3150800425038BD1946094B184407F056FE2560BDE8D7
S31508004260384000F00DB88120F2E700BFCF230020C8
S31508004270D0230020CE230020FC1A0020001B00209B
S3150800428038B5134B134D1A782968022A0ED003291C
S3150800429001D8002038BD104A1068104A904203D051
S315080042A084200F4B1870F5E702221A700A48FCF7AB
S315080042B0DFF904462A680749074807F03CF9002C45
S315080042C0E7D041F207039C42E3D08520E9E700BF27
S315080042D0CF230020FC1A0020001B0020EB17A603A2
S315080042E0D02300200022014B1A707047CF230020EC
S315080042F01FB5124C637A20460133DBB2282B28BF40
S3150800430025236372FFF72AFF0023CDE90233E3680A
S31508004310627C01930123617DD207094801F10201FC
S315080043208DF80C3048BF8DF80E30FFF76DFE054945
S3150800433001A8FFF773FE04B010BD00BF001F0020E0
S31508004340141F002049430008022810B51BD002D8C4
S31508004350012805D0FEE7032843D0FF2841D0F9E716
S31508004360214C637C990707D5FFF7C8FEFFF7C0FF06
S31508004370637C6FF341036374637CDA0730D4BDE86A
S315080043801040FFF7B5BF4B78DB072AD54C68217874
S3150800439001F00F03032B11D0052B22D1C90904F113
S315080043A0080007F0F4F9D8B1FFF7A8FEFFF7C2FE38
S315080043B001462046BDE8104000F0DABAC90904F102
S315080043C0080007F0E4F958B1074C94F83D1004F1D9
S315080043D03C000231FFF718FE637C43F00203637466
S315080043E010BDFFF78BFECAE7001F002010B50A4C68
S315080043F05A220021204607F07FFD42F21072C4F8C7
S315080044000220064A44F80A2C054A44F8062C42F2C9
S31508004410015224F8022C10BD0A1F0020D6BE898E30
S315080044205555550038B50446FFF768FE002C3FD0B1
S31508004430204C257C627CB5FA85F35B0963F30002A0
S315080044406274FFF76DFE837905F00F05C3F3000369
S3150800445045EA8315237D23F04F031D43637D2575A8
S315080044600BB9062363750368C4F816308288124BA5
S315080044709A80FFF755FE837994F83C20C3F300032E
S315080044809B0143F0040322F04F02134384F83C30A7
S3150800449094F83D3013B9062384F83D300368C4F810
S315080044A03E308288054B9A80BDE83840FFF720BF2A
S315080044B038BD00BF001F0020161F00203E1F002029
S315080044C020290A4608B509D8054B0631597501460B
S315080044D003F11C0007F018FD002008BD1220FCE7B8
S315080044E0001F002020290A4608B50AD8064B0631BF
S315080044F083F83D10014603F1440007F005FD00204E
S3150800450008BD1220FCE700BF001F00200A20D0B516
S315080045100B4CE38C584305F04FFF0646A08C0F461C
S3150800452005F04AFF0022074B05F0B0FF02460B468E
S315080045303046394606F0D4F806F0BAF92083D0BDDD
S31508004540642000200000F43F1FB5154C40F601001A
S31508004550218906F0A9FEA37E5A061FD423F0070375
S3150800456043F001032089A376FFF7F2FAA37A04F150
S315080045700C00234493F82A306375FFF7EFFDD4E95E
S315080045800032A3EB520103EB520302934FF480333C
S31508004590019101A803490393FFF772FD04B010BD0A
S315080045A0642000202D4700080022134630B58BB042
S315080045B0D910415C03F007042141CC0742BF02F140
S315080045C02801694401F8283C03F1010348BF013278
S315080045D0252BEDD100230C4CD910415C03F00705BF
S315080045E02941C9075FBFB3FBF2F102FB113128313C
S315080045F069444CBFD9B211F8281C0133252B04F89D
S31508004600011FE9D10BB030BD8D20002010B540F256
S31508004610E244074A6043136800F5807004FB0133DF
S3150800462003EB5003136053680344536010BD00BF87
S3150800463064200020024B9884D984FFF767BF00BF27
S3150800464064200020014B1875704700BF64200020C5
S31508004650C908814228BF0146014B1985704700BF2A
S3150800466064200020044B5A6D22B95865A3F85810E7
S3150800467001207047002070476420002010B50446CA
S315080046800346054A4FF40060044906F00AFE204630
S31508004690BDE81040FFF76CBAD1D6000885D60008E9
S315080046A010B504460346084A4FF40060074906F069
S315080046B0F8FD074A2046BDE81040937E43F04003C4
S315080046C0937606F02BBF00BFC2D6000885D6000831
S315080046D06420002010B5144CA37E5B0623D4FFF794
S315080046E00DFD40F2E241A28C236801FB023394F8E7
S315080046F04F102360A37A0B442521B3FBF1F001FB8D
S3150800470010330A21A372238901332381636801FBCD
S3150800471002336360238B5A1E228323B9BDE81040F7
S315080047200820FFF7BDBF10BD642000200228F7B59A
S315080047300E460BD003D8012800F00181FEE70328B6
S3150800474000F00381FF2800F00081F7E74D784F68F5
S3150800475015F00105814C64D14FF0FF3140F6030096
S3150800476006F0A2FD0025A37E7D4F13F0200F12D080
S31508004770616D6FF34513A376002900F0C5803B7879
S3150800478094F8582043F00303B81C3B707A7007F07E
S31508004790BBFB00236365FFF71DF9A37E60F34103A6
S315080047A0C3F3C002A376C3F300139B0043EAC20314
S315080047B03A7843EA001322F01C0203F01C03134361
S315080047C03B7040F60200398806F06EFD7978644839
S315080047D00231C9B2FFF718FCA37E7668D90709D556
S315080047E06FF30003A37600236360FFF7A3FC206042
S315080047F0FFF78CFE002D00F0AF80337803F003033B
S31508004800022B06D0032B00F09380012B40F0A480E6
S31508004810002528467278B11C03B0BDE8F040FFF7C2
S3150800482027B940F60300398806F03EFD3B78A27E9C
S31508004830C3F3001363F382023B78A276D1B2C3F3C3
S31508004840C000C2F30012904210D0A17EC3F38003C9
S31508004850C1F3C002934285D082F00102D20042F031
S31508004860200221F028010A43A2767BE703F003021F
S31508004870022A1DD0032A03D0012AE6D1002018E017
S31508004880C1F3C002C3F38003934208D082F0010249
S31508004890D20042F0200221F028010A43A276A37E24
S315080048A0C3F3001282F0010262F30413A3765AE7F7
S315080048B02846797891B9A17EC3F38003C1F3C00273
S315080048C0934201D10025EAE782F00102D20042F0C4
S315080048D0200221F028010A43A276F3E7FFF7BAF887
S315080048E0A27E3978C2F3C003C1F38001994208D089
S315080048F083F00103DB0043F0200322F02802134370
S31508004900A3760028CBD12DE794F82820B91C0DF101
S315080049100700FFF753F848B19DF807300133DBB2BB
S315080049203A78787063F301023A7034E70123F7E7BF
S315080049307178B01C03B0BDE8F040FFF743B9074BE8
S315080049409B7E9A0708D45B0706D4FFF7C3FE03B01D
S31508004950BDE8F040FFF7F8BD03B0F0BD64200020C5
S31508004960641F0020014B1889704700BF642000208F
S31508004970F7B5274D04460E465C220021284607F067
S31508004980BBFA2023AB7605232B83627E237E012781
S3150800499043EA0223AB84627F237F04F11E0043EAC5
S315080049A00223EB8494F82330C3F3040385F84F30CD
S315080049B094F82330C3F3421385F850301B232B8514
S315080049C0FFF7F2FDD4F80E30E27CEB60A37C2E6094
S315080049D043EA0223227D2F7543EA02432B6195F8A9
S315080049E04F30607DAB72E18A3944FFF70FFEFFF75F
S315080049F0ABFDEB8C074A0093AB8C07494FF400607C
S31508004A0006F04FFC204606F087FD384603B0F0BD99
S31508004A1064200020B5D6000898D60008F8B50D46DB
S31508004A2010B900242046F8BD0E4F3E68002EF8D176
S31508004A3000F056F804460028F3D0386000F09CF8D9
S31508004A40204606F0D4FE38B130463E6000F094F8B1
S31508004A50204606F0C1FEE4E7002DE3D02046A8472D
S31508004A60E0E700BFC0200020024B1868003818BFD6
S31508004A7001207047C020002010B507F05FF80446F3
S31508004A8018B9034B01215B689847204610BD00BF43
S31508004A903410002010B507F05AF820B9BDE81040C8
S31508004AA0014B1B68184710BD3410002010B506F0DE
S31508004AB0E0FE20B9BDE81040014B1B68184710BD41
S31508004AC034100020431E033306D8044B984228BFEF
S31508004AD01846642838BF6420704700BF40420F005C
S31508004AE0F8B5054606F0CCFA07460F4B1E6826B9F8
S31508004AF0384606F0C9FA344611E0B4688CB194F821
S31508004B0010C01CF0010F0CD14CF0010C95E80F00F9
S31508004B1084F810C084E80F00384606F0B5FA204637
S31508004B20F8BD3668E3E700BF2C10002038B5054607
S31508004B300C4641B10B6833B11B68013303D0CB680F
S31508004B400BB18B684BB907F075F8BDE838404FF4E0
S31508004B5092724121002000F01DBA084602F030FA90
S31508004B600023044A85F81C31C5E93043C2E90033FD
S31508004B7038BD00BF8810002010B5044618B9054B8B
S31508004B80054A136010BD00F0A9FBD4F8CC30002B01
S31508004B90F6D1F4E7C1B700082810002010B50C4676
S31508004BA000F0DAFB054B002103205B6898471CB12F
S31508004BB001F030FC0128FBD110BD00BF34100020E5
S31508004BC008B502460868FFF77DFF08604868FFF7E2
S31508004BD079FF48608868FFF775FF8860C868FFF73F
S31508004BE071FF0B69C860581C03D00B48834228BF65
S31508004BF003460B614B69581C03D00748834228BFFC
S31508004C00034688694B61FFF75DFFBDE80840886188
S31508004C10104601F027BA00BF40420F002DE9F84FB1
S31508004C20D0F8C43006460F4613B1838B8B4244D066
S31508004C30D6F8C0B0BBF1000F42D0DBF80830002B25
S31508004C403ED0DBF80C1000293AD0D6F8D4A0BAF139
S31508004C50000F38D04FF000094D46C84601E0DBF892
S31508004C60083005EBC50203EB8204E3890135BB4234
S31508004C7014D8238ABB4211D3B4F91220B6F92830C6
S31508004C80934250DD304696F81011FDF701FFF37D8B
S31508004C9081468342A04606D9DBF80C108D42DED346
S31508004CA0B8F1000F39D00023424630461946D0479E
S31508004CB0B783C6F8C48086F819910020BDE8F88F36
S31508004CC00320BDE8F88FD14647F6FF75544652468D
S31508004CD004EBC40803EB8808B8F80E30BB4216D8B4
S31508004CE0B8F81030BB4212D3B8F91220AA4202D142
S31508004CF04FF0FF09DCE7304696F81011FDF7C8FEBD
S31508004D00F37D81468342D3D94246DBF80C10013441
S31508004D10A14204D9DBF80830DAE70120CEE7002AF9
S31508004D20FBD09046C4E7A046BDE700BF2DE9F04793
S31508004D3082B004468946164601F03AFB00284CD153
S31508004D40444D2B68D4F8C0A0D4F8C4700BB15345B1
S31508004D5061D04FF00008C5F8089001F05BFB012808
S31508004D604CD1204606F000FF00283AD12B68DAF825
S31508004D7000103A6813B11868884257D0204606F0E2
S31508004D80D1FEC5E900A7D4F8D4508DF80760002DE8
S31508004D9053D00022204611460DF10703A8472046A6
S31508004DA000F00EFE0546B8F1000F00D08EB1B5FA38
S31508004DB085F040F2DE323321400900F0EBF8314647
S31508004DC0204601F051F8244B0546394620461B6813
S31508004DD09847284602B0BDE8F08700231D4D6B6052
S31508004DE0AFE7637CDA07C1D5A36B5B05BED51B4B62
S31508004DF00122002120461B689847B7E7012000F0EA
S31508004E00ABFA174B002103205B68984701F002FBB9
S31508004E100128FBD1A5E76B68002B9AD0BB4298D135
S31508004E20AB68994514D04FF0010894E7696811B149
S31508004E3009689142A5D05968A0E7E17D94F819312F
S31508004E403246994228BF1946204600F03FFDA6E79C
S31508004E500025BEE78810002028100020E422002044
S31508004E6034100020F8B50D46074606F009F929461C
S31508004E7006463846FFF7D2FE0446F0B1384606F035
S31508004E8073FE30B17B7C13F0010307D1104A82F818
S31508004E90D830304606F0F8F82046F8BDBA6B12F45A
S31508004EA0806213D0B7F80A21AA42EFD0B7F80C31BE
S31508004EB05B1BB3FA83F35B09E8E701F061FA224664
S31508004EC029463846FFF732FF0446D7E71346DDE79B
S31508004ED0003E00B0F8B51C4B05461B680E4603B1EC
S31508004EE0984731462846FFF721FED5F8C03073B1FA
S31508004EF05B6963B102F0BCFFD5F8C03040F26B12B3
S31508004F005B6942211B1A5842584100F043F80022B7
S31508004F104FF6FF734FF0240CF768D0B2B84208D3A7
S31508004F201C4621462846FFF79DFF06F088FE2046C8
S31508004F30F8BDB1680CFB0011CC899C4202D2002C4A
S31508004F40EFD023460132E8E7E02200204FF4007351
S31508004F5007B50A490DF10602ADF8063006F0E4FC7D
S31508004F60BDF80630B3F5007F05D1022808BF00203A
S31508004F7003B05DF804FB0120FAE700BFC420002057
S31508004F80024B1960024B1860FEE700BF3010002084
S31508004F90C422002008B550B90548064B01601A60BE
S31508004FA0054B1A68054B1A601868FFF7E9FF08BD34
S31508004FB030100020C8220020C0200020C422002073
S31508004FC0014906F0C6BC00BF0D660008014906F097
S31508004FD0C0BC00BFE165000837B50C46264D69B967
S31508004FE00A46072105F03EF8244BAC645C6005F0E0
S31508004FF057F82022224B5A6603B030BD07221146C5
S3150800500005F030F807221E4B0121DA60237901A842
S3150800501085F848306379019306F030FF019BC2B2E8
S31508005020D34000F00F0040EA031085F84900A27942
S3150800503085F84A20E27985F84B202068E8640193D0
S31508005040BBB1012102888B420CD821794B1E13442F
S315080050500C4A1362C2F8CC1020220B4B5A6605F094
S315080050601FF8C9E730F811500131AA4228BF2A466D
S31508005070E9E71A46E9E700BF003F00B0483F00B03D
S31508005080006000B8004000B8005000B8431C07D0C4
S315080050906FF0FF02034B10405A62A3F58053586223
S315080050A0704700BF00E000B810B504234FF03A413E
S315080050B001240A4AD1F81801C2F81831C2F8143185
S315080050C04C634FF400511163410742BFC2F81431D3
S315080050D0A2F58052C2F8183110BD00BF002000BAF0
S315080050E0D0F8C83013B11A68032A10D8094BDB6BFD
S315080050F0C3F3C20213F0380F03F0070018BF50437A
S3150800510013F4E07FC3F3821203D050437047986AC2
S31508005110400E7047008001B800F01803182B0AD01B
S3150800512003070AD440F2011310F0100018BF1846FE
S31508005130034BD86770470020FAE70120F8E700BF5D
S31508005140003F00B03B4B2DE9F7431E6801F4007998
S3150800515000F00103174653EA090205460C463CD0FF
S315080051604FF0000873B30022002301200021CDE987
S31508005170008803F09FFD4146304603F033F8414668
S31508005180F0830120FFF70AFDB16B06F1D80003F0A2
S31508005190A3F829490868FFF779FF4FF0FF330B603A
S315080051A0264B1A68511C06D06FF07E402449C86306
S315080051B0A1F58051CA634FF0FF321A60337C43F081
S315080051C004033374B9F1000F07D00121304606F005
S315080051D097FB24F4007405430C43D6E94E232A4072
S315080051E0234052EA030103D0164930460968884726
S315080051F0FB070FD51449154A086800211368116082
S315080052000121134A117003B19847124B002102205D
S315080052105B68984717F00E0F08D040F2F3123B214F
S31508005220002003B0BDE8F043FFF7B4BE03B0BDE805
S31508005230F08300BFC0200020401000203C10002052
S3150800524000E000B844100020D8220020DC2200200C
S31508005250D323002034100020F7B504461046D4E9BD
S315080052604EC7DDE908268CEA020587EA06010540ED
S31508005270194085EA0C057940C4E94E51002523F406
S31508005280004106EA010320F0010043F400730240DE
S3150800529043F00203CDE9005503F00CFD237C9A0781
S315080052A017D5D4F83C319B0513D54FF48811204601
S315080052B006F026FB237C65F341032374D4E94E23C9
S315080052C002400B4052EA030103D00349204609680D
S315080052D08847002003B0F0BD4410002038B10368A9
S315080052E0044A002B08BF1346034A13607047014B54
S315080052F0FAE700BFD7B9000844100020024B986EA1
S3150800530000F00F00704700BF003F00B00F2938B506
S3150800531005460C460ED801F07DF801280CD1074A3F
S315080053202846936E23F00F032343936606F01FFC6B
S31508005330002038BD0120FCE70220FAE7003F00B054
S31508005340014BD86E704700BF003F00B0014B0020EC
S31508005350D9667047003F00B003282DE9F7435BD8AC
S315080053602F4B13F800802F4B1E5C2F4B13F8009021
S3150800537005F086FE074603F069FE054640B10023A0
S315080053800022CDE9003301200023002103F092FC1E
S3150800539003F064FE48B100230022CDE90033002063
S315080053A000234FF4004103F085FC002E32D01F4B3A
S315080053B0DC6C04F008041E4B3146DC64404604F0FD
S315080053C05BF84A463146404604F0E2F8194BDC647D
S315080053D0D5B1194B1868816BD83002F07DFF174993
S315080053E00868FFF753FE4FF0FF330B60144B1A683B
S315080053F0511C06D06FF07E401249C863A1F5805152
S31508005400CA634FF0FF321A60384603B0BDE8F0436E
S3150800541005F03ABE3446CEE703B0BDE8F08300BFD8
S31508005420F8D60008F4D60008F0D60008004000B800
S31508005430006000B8005000B8C020002040100020CE
S315080054403C10002000E000B80F4A536C13F0A00F80
S3150800545015D1906C10F0040013D10C4BD3F8EC3E28
S3150800546023F07F4323F0FF035BB1D368C3F30362E2
S31508005470092A07D0B2F10C0018BF01207047002096
S3150800548070470120704700BF000002B8003000B026
S31508005490074A084B30B10221C2F864120422C3F845
S315080054A0642270470421C2F864120222F7E700BF9B
S315080054B0006001B8005001B870B50D46064620B91F
S315080054C01B4B1B68D3B1032017E000F0A3FF01288C
S315080054D02CD1184B93F90040D6F8C830C4F11C04F7
S315080054E00BB193F92630E41A641BC4F12B03002B85
S315080054F0B8BF5B42232B0CDD012070BD01F10F0301
